:020000040800F2
:10000000985300206902000885280008B5210008DF
:1000100019260008E5090008A931000800000000C1
:10002000000000000000000000000000A90100081E
:10003000D50A000800000000050200086D2B00082A
:10004000830200088302000883020008830200087C
:10005000830200088302000883020008830200086C
:10006000830200088302000883020008830200085C
:10007000830200088302000883020008830200084C
:10008000E9090008F50900088302000800000000E3
:1000900000000000000000000000000083020008D3
:1000A00083020008392C000883020008830200083C
:1000B000830200088302000883020008830200080C
:1000C00083020008830200088302000883020008FC
:1000D00083020008F13000088302000800000000DD
:1000E0008302000883020008830200080000000069
:1000F0000000000000000000000000008302000873
:100100000000000083020008830200088302000848
:1001100000000000000000000000000000000000DF
:1001200083020008010A00080D0A00088302000883
:100130008302000800000000000000000000000032
:100140000000000000000000000000008302000822
:1001500083020008190A0008250A00088302000823
:100160008302000883020008000000000000000075
:10017000000000000000000000000000000000007F
:1001800000000000830200080000000000000000E2
:1001900083020008DFF80CD000F0DCFB00480047C9
:1001A000B1570008985300202C4B19680868B0E834
:1001B000F04F80F30988BFF36F8F4FF0000080F39A
:1001C000118870470000000008480068006880F34C
:1001D00008884FF0000080F3148862B661B6BFF360
:1001E0004F8FBFF36F8F00DF00BF00BF08ED00E04F
:1001F000DFF80C00016841F470010160704700BF36
:1002000088ED00E0EFF30980BFF36F8F134B1A689E
:100210001EF0100F08BF20ED108A20E9F04F10608B
:1002200009B44FF0500080F31188BFF34F8FBFF334
:100230006F8F06F071FA4FF0000080F3118809BC4F
:1002400019680868B0E8F04F1EF0100F08BFB0EC56
:10025000108A80F30988BFF36F8F70472800002051
:10026000EFF30580704700000648804706480047C6
:10027000FEE7FEE7FEE7FEE7FEE7FEE7FEE7FEE756
:10028000FEE7FEE71D2C0008950100082DE9F05F50
:100290000546002092469B468846064681464024F5
:1002A0001BE0284641464746224600F06AFA53467C
:1002B0005A46C01A914110D311461846224600F002
:1002C00051FA2D1A67EB01084F4622460120002102
:1002D00000F048FA17EB00094E41201EA4F101047A
:1002E000DFDC484631462A464346BDE8F09F40EAF7
:1002F00001039B0703D009E008C9121F08C0042AA4
:10030000FAD203E011F8013B00F8013B521EF9D28A
:100310007047D2B201E000F8012B491EFBD27047B2
:100320000022F6E710B513460A4604461946FFF7C1
:10033000F0FF204610BD2DE9FE4F804681EA030004
:10034000C00F0C46009021F0004123F00045B8EBAF
:100350000200A94105D24046214690461C460B4664
:10036000024623F00040104347D0270DC7F30A0090
:10037000C3F30A510290401A019040286BDAC3F38C
:10038000130040F4801B0098924620B10023D2EB6A
:10039000030A63EB0B0B01985946C0F1400250462B
:1003A00000F0E0F906460D4650465946019A00F025
:1003B000F8F910EB08006141002487EA115284EA41
:1003C000E7731A4340D0009A62B3019A012A4FEAB8
:1003D000075215DC001B61EB02014FF0004202EAFC
:1003E0000752CDE90042001C41F5801132462B46F0
:1003F00000F0F8F903B0BDE8F08F40462146F9E778
:10040000001B61EB0201001C41F5801300185B41E9
:100410002018A2F5001747EB030140EAD570B61982
:100420006D4111E06D084FEA360645EAC0754FEAA6
:100430000752001B61EB0201001C41F580114908C5
:100440004FEA30000019514132462B4603B0BDE857
:10045000F04F00F0B8B90098012240000023D0EB23
:10046000020263EBE073009821464FEAE074B8EBB8
:10047000000061EB0401E9E783F000435BE781F0F2
:10048000004158E72DE9FE4F81EA030404F00044DF
:1004900021F0004100944FF0000B23F0004350EA9C
:1004A00001045ED052EA03045BD0C3F30A54C1F3E3
:1004B0000A552C44A4F2F3340194A0FB0254C1F376
:1004C000130141F48011C3F3130343F4801301FBC0
:1004D000024400FB034E840A970A44EA815447EA27
:1004E0008357A4FB076802958D0A05FB07854FEA31
:1004F000932C04FB0C542705029D4FEA065847EA4B
:100500001637B5EB08056EEB070C870E920E47EA1F
:10051000811742EA8312A7FB0201B6EB0B0164EBE1
:1005200000042B0D43EA0C335E1844EB1C50DA46F2
:100530005146E7FB0201C5F313044FEA0B3343EACC
:1005400014534FEA0432019C43EA0603A4F10C045D
:100550000294009CCDE900B400F044F903B0BDE87A
:10056000F08F00200146F9E72DE9F04D81EA030400
:1005700004F0004B21F0004514464FF0000A23F030
:10058000004150EA050220D054EA01021DD0C5F313
:100590000A570246C5F31303C1F31300C1F30A5609
:1005A00040F4801543F48013A7EB0608101BD646D1
:1005B00008F2FD3873EB050002D308F1010801E0F1
:1005C00092185B41B8F1000F03DA00200146BDE844
:1005D000F08D00204FF48011064684460EE0171B74
:1005E00073EB050705D3121B63EB050306434CEAC7
:1005F000010C49084FEA300092185B4150EA0107AC
:10060000EDD152EA030012D082EA040083EA050128
:10061000084305D0101BAB4106D20122002306E09F
:1006200000224FF0004302E06FF0010253101AEB7A
:1006300006004CEB085110EB0A0041EB0B01BDE842
:10064000F04D00F0C0B80EB5C10F80EAE07008446C
:10065000CA07002140F233438DE80E000A460B46DC
:1006600000F0C0F803B000BD70B5C1F30A5201F04C
:1006700000450024C1F3130140F2FF3341F480111F
:100680009A4201DA002070BD40F233439A42A2F24E
:10069000334203DC524200F074F800E090402C43F7
:1006A000F1D0404270BDC1F30A5210B5C1F313013D
:1006B00040F2FF3341F480119A4201DA002010BD6C
:1006C00040F233439A42A2F2334203DC524200F03A
:1006D00058F810BD904010BD30B5041E71F10004F3
:1006E00004DB4FF00044404264EB0101141E73F13F
:1006F000000405DB1C464FF00043524263EB040349
:100700008B4208BF824230BD30B5041E71F1000437
:1007100004DB4FF00044404264EB0101141E73F10E
:10072000000405DB1C464FF00043524263EB040318
:10073000994208BF904230BD30B50B4601460020BB
:100740002022012409E021FA02F59D4205D303FA93
:1007500002F5491B04FA02F52844151EA2F1010214
:10076000F1DC30BD202A04DB203A00FA02F100203F
:1007700070479140C2F1200320FA03F319439040DF
:100780007047202A04DB203A21FA02F0002170474A
:1007900021FA02F3D040C2F12002914008431946E9
:1007A0007047202A06DBCB17203A41FA02F043EAD1
:1007B000E07306E041FA02F3D040C2F1200291401A
:1007C00008431946704710B5141E73F1000408DA87
:1007D000401C41F1000192185B411A4301D120F005
:1007E000010010BD2DE9F04D92469B4611B1B1FAC2
:1007F00081F202E0B0FA80F220329046FFF7B2FFB9
:1008000004460F4640EA0A0041EA0B0153465A46A5
:10081000084313D0114653EA010019D0C8F1400231
:100820005046FFF7AEFF05460E4650465946424633
:10083000FFF798FF084305D0012004E02046394621
:10084000BDE8F08D0020054346EAE0762C433743AF
:100850000A986305E40AA0EB08000022FD0A44EAB6
:1008600047540A3002D500200146E9E70105101976
:100870006941DDE9084500196941BDE8F04DA2E78D
:100880002DE9F04D00231A461B1A8A4103DB002094
:100890000146BDE8F08DC1F30A52C1F3130141F4E2
:1008A00080154FF0000BD10702D100186D41521E88
:1008B0000027044640F2FF11384601EB620A3E462B
:1008C0008046024600204FF48011FFF75AFFC219FC
:1008D0007141BB1846EB0100B4EB030C75EB000C47
:1008E00004D3E41A65EB000517460E46241908F1F7
:1008F00001006D4180463428E3DDF91946EB06001E
:10090000091BA84103D24FF0FF32134601E0002239
:1009100013461BEB070046EB0A51BDE8F04DFFF70D
:1009200052BFC1F30A52C1F3130140F2FF3341F445
:1009300080119A4202DA00200146704740F23343A8
:100940009A42A2F2334202DC5242FFF71ABFFFF78B
:1009500009BF0000064C074D06E0E06840F00103C7
:1009600094E8070098471034AC42F6D3FFF716FC22
:10097000D8740008F87400080EB540F233410291B3
:100980000021CDE900110A460B46FFF72BFF03B00B
:1009900000BD00009FED0F1B10B553EC112B51EC67
:1009A000100BFFF76FFD9FED0D1B53EC112BFFF7A5
:1009B000C2FCFFF759FE40F6C411884203DC4FF435
:1009C000FA71884200DA0846FFF73DFE41EC100B51
:1009D00010BD00008EE3388EE33826400000000092
:1009E00000407F40FEE70000014800F0CFB8000063
:1009F00000050020014800F0C9B800006005002093
:100A0000014800F0C3B80000C0050020014800F014
:100A1000BDB8000040040020014800F0B7B8000055
:100A200020060020014800F0B1B80000A00400201A
:100A300001681823CAB2103AB2FBF3F2054B6FF308
:100A40000901032A9B5CC36500D9091D816508461D
:100A5000704700003072000810B5014600208B6915
:100A60008A6A4FF0C07453B1B3F5005F15D072B10C
:100A7000012A0CD0022A0AD0032A09D104E01AB1B3
:100A8000012A06D0022A03D1C96AC90100D5012072
:100A900010BDC96AA142FAD010BD002AF7D0012AC0
:100AA000F2D0022AF3D0032AF3D010BD30B5046887
:100AB000256825F480252560046863608368402BE1
:100AC000036803D099600068C26030BD9A60006816
:100AD000C16030BD704770472DE9F0410446876D15
:100AE00000F090FA064694F835000025022806D05A
:100AF0008020606584F834500120BDE8F0812068D2
:100B0000016821F0160101602068416921F080012F
:100B10004161206C08B9A06C20B12068016821F007
:100B2000080101602068016821F0010101600BE00B
:100B300000F068FA801B052806D92020606504F8BB
:100B4000345F03206070D8E720680068C007EFD1E9
:100B500094F85C103F208840B86004F8345F0120AE
:100B600060700020C9E790F83510022903D0802179
:100B7000416501207047052180F835100068016843
:100B800021F0010101600020704700002DE9F843C9
:100B900004464FF00009CDF8009063484FF4165119
:100BA000A56D0068B0FBF1F72E6894F85C10082082
:100BB00000FA01F131420FD021680A6852070BD5C3
:100BC0000A6822F004020A6094F85C108840A86069
:100BD000606D40F00100606594F85C104FF0010812
:100BE00008FA01F0304208D021684969090604D5A5
:100BF000A860606D40F00200606594F85C1004200D
:100C00008840304208D021680968890704D5A86067
:100C1000606D40F00400606594F85C10102088401E
:100C2000304218D021680968090714D5A8602068E7
:100C30000168490304D50068000308D5A16C07E0EA
:100C40000168C90503D4016821F008010160216C25
:100C500009B12046884794F85C1020208840304233
:100C600031D021680968C9062DD5A86094F83500EF
:100C700005282068016806D0490347D500680003AD
:100C80001DD4616C1CE021F01601016020684169EF
:100C900021F080014161206C08B9A06C20B120686E
:100CA000016821F00801016094F85C103F20884041
:100CB000A86084F8349084F83580216D1FE0E16BE2
:100CC00009B120468847606D00282BD0606DC007B1
:100CD00014D0052084F835002068016821F0010156
:100CE00001600098401C0090B84203D8206800685A
:100CF000C007F6D184F8349084F83580E16C00297F
:100D000010D001B02046BDE8F04308470168C9058E
:100D1000D5D4016821F01001016084F8349084F882
:100D20003580CCE7BDE8F883240000202DE9F041B0
:100D3000044600F067F906465CB1002584F834509B
:100D4000022084F835002068016821F0010101606B
:100D50000DE00120BDE8F08100F054F9801B05286A
:100D600005D920206065032084F83500F2E720686B
:100D70000068C007F0D12268116820480140D4E91A
:100D800001031843D4E90336334318436369184316
:100D9000A3691843E3691843236A18430843616A47
:100DA000042903D1D4E90B131943084310602068C8
:100DB0004069666A20F0070130460E430127042887
:100DC0000CD1A06A0643E06A40B12046FFF744FE1A
:100DD00020B14020606584F83570BAE7206846612C
:100DE0002046FFF725FE94F85C203F21914081606A
:100DF000656584F835700020ACE700003F8010F096
:100E00002DE9F0410446866D90F834000025012854
:100E10000DD0012084F8340094F835700020012FA3
:100E200007D084F8340002252846BDE8F08102206E
:100E3000FBE7022784F8357060652046FFF736FE31
:100E400094F85C103F208840B0602068016841F051
:100E500016010160206C20B12068016841F0080192
:100E600001602068016841F001010160DCE70000D9
:100E70002DE9F84F00224FF0010803254FF00F0E27
:100E80000B6808FA02F42340A34271D14E68012E88
:100E900005D0022E03D0112E01D0122E15D1866856
:100EA000570005FA07FC26EA0C06D1F80CC00CFA2C
:100EB00007FC4CEA060CC0F808C04668A6430C794B
:100EC000C4F30014944034434460C668570005FAE4
:100ED00007FC8C6826EA0C06BC403443C4604C68AE
:100EE000022C01D0122C13D1D40800EB8404A346A9
:100EF000D4F8209054074FEAD46A0EFA0AF629EA89
:100F000006090E6906FA0AF646EA0906CBF82060D9
:100F100004680E7924EA0C0406F00306BE4026435A
:100F200006604C68E40056D52E4C266846F4804690
:100F30002660246822F0030604F4804400942A4CBE
:100F40003444A446D4F808489607370F0EFA07F63B
:100F5000B443264EB04201D1002615E0244EB042E3
:100F600001D1012610E0234EB04202D102260BE04F
:100F700031E0214EB04201D1032605E01F4EB042C0
:100F800001D1042600E00726BE402643CCF80868BD
:100F90001B4E34684F689C43FF0300D51C433460EC
:100FA000174E361D34684F689C43BF0300D51C4361
:100FB0003460134E083634684F689C43FF0200D5F6
:100FC0001C4334600E4E0C3634684F689C43BF029D
:100FD00000D51C433460521C102AFFF451AFBDE809
:100FE000F88F000044380240003001400000024009
:100FF0000004024000080240000C024000100240C1
:10100000003C014001488068704700001800002043
:1010100070B5040025D094F83D00002520B984F86F
:101020003C50204600F050F9242084F83D00206810
:10103000016821F0010101602068016841F400416C
:1010400001602068016821F40041016000F0DEFACF
:101050004D4A6168914201D84C4900E04C498842B0
:1010600001D2012070BD4B492368B0FBF1F15E68ED
:1010700026F03F060E435E606368934206D94FF444
:10108000967359434FF47A73B1FBF3F12368491C0B
:101090001E6A26F03F06314319626168914210D8FA
:1010A0004900401EB0FBF1F2521CC2F30B02042AAD
:1010B00001D2042022E0B0FBF1F0401CC0F30B0091
:1010C0001CE0A268F2B301EBC10303EB0116431E5F
:1010D000B3FBF6F35B1C43F480431B0549D092B38A
:1010E00001EBC10202EB0111401EB0FBF1F0401C0C
:1010F000C0F30B0040F4804040F400402168CA690E
:101100004CF6FF739A431043C861D4E907100143BA
:101110002068026822F0C00211430160D4E9030193
:1011200001432068826848F2FF339A43114381608B
:10113000D4E9050108432168CA6822F0FF02104380
:10114000C86001E00EE016E02068016841F001018E
:1011500001602564202084F83D00256384F83E501A
:10116000002070BD01EB4106431EB3FBF6F35B1C90
:10117000B3E70120C2E701EB4101401EB0FBF1F0F3
:10118000401CC0F30B00B7E7A086010080841E005E
:1011900000093D0040420F002DE9FF4F83B09A4601
:1011A000DDE9119793460446DDF84080FFF72AFFFA
:1011B000054694F83D0020287FD11923012240499B
:1011C0002046009501F088F8002876D194F83C007C
:1011D000012872D0012084F83C0020680168C9070A
:1011E00003D1016841F0010101602068016821F428
:1011F00000610160212084F83D00402084F83E0019
:1012000000262664C4F82480A4F82A90608D2085E6
:101210002C48E062CDE9007553465A4620460499B1
:1012200000F0E0FF70B930E02A463946204601F070
:10123000D2F858B1206C042804D12068016841F428
:1012400000710160012007B0BDE8F08F606A21687D
:1012500000780861606A401C6062218D491E89B275
:101260002185628D521E628522685369DB435B07CC
:101270000BD469B100781061606A401C6062208DF7
:10128000401E2085608D401E6085208D0028CBD1BA
:101290002A463946204600F0F9FF0028CAD154F802
:1012A0003D0B016841F400710160202004F81E0923
:1012B000E67766770020C6E7FFE70220C3E7000075
:1012C000020010000000FFFF10B586B00446142194
:1012D0006846FFF725F813492068884220D1124854
:1012E000016841F0020101600068694600F00200F7
:1012F0000590C02000901220019001200290032050
:101300000390042004900948FFF7B2FD064810300E
:10131000016841F400110160006800F400100590BC
:1013200006B010BD005400403038024000040240B6
:1013300002488168027811448160704718000020DB
:101340000B4810B5016841F400710160016841F477
:1013500080610160016841F480710160032000F048
:1013600089F8002000F006F800F03EF8002010BDDB
:10137000003C024010B5014688B00022192000F060
:1013800059F8192000F048F813480024016841F08A
:1013900001010160006805A900F00100069068469F
:1013A00000F014F900F042F90C490D4AB0FBF1F1DC
:1013B0000C48491E026040F2E732C0E90324C0E94C
:1013C000011400F025FB10B1012008B010BD054844
:1013D00000F03AFBF9E700004438024040420F00B9
:1013E00000000140800600200A4808B5016841F469
:1013F00080410160006800F4804000900548001FB3
:10140000016841F080510160006800F08050009058
:1014100008BD000044380240002809DB00F01F022C
:10142000012191404009800000F1E020C0F8001146
:1014300070470000F0B40E4B1B680C46C3F3022348
:10144000C3F10705042D00D90425191D072901D270
:10145000002300E0DB1E012606FA05F1491E2140AB
:1014600099409E40761E16403143F0BC01F0DCBE30
:101470000CED00E0064900F0070208684FF6FF0394
:10148000184040EA0220034A1043086070470000F9
:101490000CED00E00000FA052DE9F0470E460500CE
:1014A00065D0DFF81481D8F80000F7B200F00F0023
:1014B000B04207D288F80070D8F8000000F00F00A2
:1014C000B04254D128683D4C810712D5400703D55E
:1014D000206840F4E05020602878000703D5206899
:1014E00040F4604020602068A96820F0F0000843C4
:1014F00020602878C0072DD0304968680839012855
:1015000012D0022813D0032811D0096889070029B6
:101510002DDA216821F0030101432160FFF772FDFC
:10152000814641F2883A0EE009688903EFE70968CD
:101530008901ECE7FFF766FDA0EB0901514502D9EF
:101540000320BDE8F0872068696800F00C00B0EB6C
:10155000810FEFD1D8F80010404601F00F01B142E1
:1015600007D90770006800F00F00B04201D00120D9
:10157000E7E72878400705D52068E96820F4E050BF
:10158000084320602878000706D52068296920F4E0
:10159000604040EAC100206000F058F82168084A25
:1015A000C1F30311515CC840064908600648006851
:1015B000FFF7E0FE0020C4E7003C0240083802408C
:1015C00038720008240000201C0000200F22026056
:1015D0000C4A136803F003034360136803F0F0033D
:1015E0008360136803F4E053C36012684FF4E05360
:1015F00003EAD20202610448006800F00F000860AC
:101600007047000008380240003C02400448054989
:1016100000680968044AC1F38221515CC8407047E0
:101620002400002008380240487200080448054998
:1016300000680968044AC1F34231515CC8407047F0
:10164000240000200838024048720008154810B5F0
:10165000006810F00C02144813D01449042A0FD06B
:10166000082A0ED10F4C241F2268236802F03F0283
:101670005B0207D52068C0F38810A0FB010106E0DB
:10168000084610BD2168C1F38811A1FB00010023A9
:10169000FEF7FCFD2168C1F30141491C4900B0FB84
:1016A000F1F010BD083802400024F40040787D01BC
:1016B0002DE9F84F04006ED02078DFF83C93C00786
:1016C000A9F104054AD009F104000168C1F38101C0
:1016D000012908D00068C0F3810002280AD1D9F896
:1016E0000000400206D52868800337D560680028CE
:1016F000E1D033E06068B0F5803F10D0B0F5A02FA6
:10170000286810D020F480302860286820F48020D9
:1017100028606068A8B1FFF775FC06460DE02868F0
:1017200040F48030F4E740F480202860F7E700BF01
:10173000FFF768FC801B642873D828688003F7D5FE
:101740000CE0FFF75FFC064605E000BFFFF75AFC20
:10175000801B6428F0D828688003F7D42078DFF84D
:101760009C8280074FF0000A3ED5A348001D016807
:1017700011F00C0F08D00068C0F3810002280BD1D3
:10178000D9F80000400207D42868800716D5E06821
:10179000012800D112E02BE1E068B8B10120C8F8BF
:1017A0000000FFF72FFC064605E000BFFFF72AFC0C
:1017B000801B0228C0D828688007F7D528682169CF
:1017C00020F0F80040EAC10028600DE0C8F800A051
:1017D000FFF718FC064604E0FFF714FC801B022804
:1017E0001FD828688007F7D42078000722D5824EBA
:1017F00083486169703671B101210160FFF702FC15
:10180000074604E0FFF7FEFBC01B022809D830683A
:101810008007F7D50EE0C0F800A0FFF7F3FB0746FE
:1018200005E082E0FFF7EEFBC01B02287DD83068A0
:101830008007F7D42078400768D5DFF8BCB10027CF
:101840000BF13C0BDBF80000C0000BD4DBF8001000
:1018500041F08051CBF80010DBF80000012700F0C8
:1018600080500090674E3068C00510D4306840F456
:1018700080703060FFF7C6FB009005E0FFF7C2FB09
:101880000099401A022850D83068C005F6D55A4E43
:10189000A0686C3601280FD00528306810D020F0E1
:1018A00001003060306820F004003060A068B8B1FA
:1018B000FFF7A8FB00900FE0306840F00100F4E76C
:1018C00040F004003060F7E7FFF79CFB0099411AF5
:1018D00041F28830814266D830688007F4D50EE046
:1018E000FFF790FB009007E0FFF78CFB0099411A8F
:1018F00041F28830814256D830688007F4D42FB145
:10190000DBF8001021F08051CBF80010A069C8B3BB
:101910003949091D0968C1F3810102294AD0022809
:10192000504607D0C8F8600000E03CE0FFF76AFBD3
:1019300004463BE04746C8F86000FFF763FB0646F5
:1019400005E000BFFFF75EFB801B02282BD828684C
:101950008001F7D4D4E907010843A16A2A4A49085B
:1019600002EB0141626A41EA8211084394F82C10AB
:1019700040EA0161C9F8001001203866FFF742FB18
:10198000044606E036E000BFFFF73CFB001B0228E0
:1019900009D828688001F7D52CE000BFFFF732FB9B
:1019A000001B022802D90320BDE8F88F28688001B7
:1019B000F4D41FE00128F7D0D9F80000E26900F460
:1019C0008001914214D1226A00F03F0191420FD16F
:1019D00047F6C071626A0140914209D1A26A00F4DF
:1019E0004031914204D1E16A00F07060884201D038
:1019F0000120D9E70020D7E7043802400000474221
:101A0000800E4742007000400000FFFF70477047A3
:101A100010B5040003D094F83D0010B107E0012098
:101A200010BD002084F83C00204600F00CF8022095
:101A300084F83D00211D206801F004F9012084F89C
:101A40003D00002010BD70470168CA6842F00102E5
:101A5000CA600068816801F00701062903D00168A7
:101A600041F00101016000207047704770B50446E5
:101A7000006801694FF00005C943890715D4C168A2
:101A8000C943890711D4E91E01610120207720682C
:101A900080698007204602D0FFF7E7FF04E000F0EE
:101AA00098F8204600F096F8257720680169C94328
:101AB000490717D4C168C943490713D46FF004011B
:101AC0000161022020772068806910F4407F204661
:101AD00002D0FFF7CAFF04E000F07BF8204600F0D8
:101AE00079F8257720680169C943090716D4C168C8
:101AF000C943090712D46FF008010161042020775F
:101B00002068C0698007204602D0FFF7AEFF04E0DE
:101B100000F05FF8204600F05DF825772068016945
:101B2000C943C90617D4C168C943C90613D46FF0A5
:101B300010010161082020772068C06910F4407FFF
:101B4000204602D0FFF791FF04E000F042F8204663
:101B500000F040F8257720680169C943C90708D11A
:101B6000C168C943C90704D1891E0161204600F03C
:101B700033F820680169C943090609D4C168C9431B
:101B8000090605D46FF0800101612046FFF73EFF92
:101B900020680169C943490609D4C168C943490697
:101BA00005D46FF040010161204600F01FF8206865
:101BB0000169C94389060BD4C168C943890607D4A2
:101BC0006FF0200101612046BDE87040FFF71FBFA4
:101BD00070BD70477047000000680349884201D11A
:101BE000FFF7A6BB7047000000000140704710B52A
:101BF00004460068416994F83920C1F3C011212AD4
:101C00000BD151B1416921F080014161206B08B1D4
:101C1000FEF762FF204601F01FF92068416994F841
:101C20003A20C1F38011222A0BD151B1416921F030
:101C300040014161606B08B1FEF74EFF204601F0A4
:101C4000FDF8002010BD704770B5026804461068AA
:101C5000D168536910F00F0F52D003F0010501F461
:101C600090762E435FD0C20705D0CA0503D5E26B3C
:101C700042F00102E263420705D5DA0703D0E26BC6
:101C800042F00202E263820705D5DA0703D0E26B75
:101C900042F00402E263020707D501F020022A4362
:101CA00003D0E26B42F00802E263E26B002A33D019
:101CB000800604D5880602D5204601F0D6F82068B3
:101CC0004069E16BC0F38010090700D428B32046B7
:101CD00001F0B4F82068416949061AD5416921F03C
:101CE00040014161606BA0B11B490165606BFEF76B
:101CF0003AFF002810D0606B016DBDE870400847C6
:101D0000830610D58B060ED52046BDE8704001F045
:101D1000ACB82046FFF797FF70BD2046FFF793FF52
:101D20000020E06370BD030606D50B0604D52046EF
:101D3000BDE8704001F078B94006F3D54806F1D50A
:101D4000D168204621F04001D160202184F839106B
:101D500000F02FFA70BD00009D2D000870B5040042
:101D600004D094F83900002510B106E0012070BDC0
:101D700084F83850204600F023F8242084F83900F5
:101D80002068C16821F40051C160204601F0B8F814
:101D90002068016921F4904101612068416921F0C6
:101DA0002A0141612068C16841F40051C160E563C6
:101DB000202084F8390084F83A00002070BD00002B
:101DC0002DE9F04F87B0054614216846FEF7A8FAC2
:101DD0009A48DFF864821438D5F800C0DFF85C92C6
:101DE00002210323964A4027002406154FF0070BD3
:101DF000C4455ED1D9F8008048F01008C9F80080C9
:101E0000D9F800C00CF0100CCDF814C0D0F800C008
:101E10004CF0010CC0F800C0006800F00100059013
:101E200058028DE81300CDE9033B69461046FFF7E1
:101E30001FF8DFF8148283494046C8F800104FF0BD
:101E4000006AC0E901A4C0E903468915C8F8144036
:101E5000C0E90641C8F82040B146C8F82440FEF762
:101E600065FF08B1FEF737FE774EC5F8348060365F
:101E7000C8F83850C6E90274C6E90494B4617148E0
:101E8000F461346278307462C6E9000A3046FEF7C5
:101E90004DFF08B1FEF71FFE2E630022072125200B
:101EA000B563FFF7C7FA2520FFF7B6FA07B0BDE81C
:101EB000F08FDFF89881C4455BD1DFF880C1A2467E
:101EC000ACF1040CDCF8008048F40038CCF8008059
:101ED000DCF800C00CF4003CCDF814C0D0F800C011
:101EE0004CF0010CC0F800C0006800F00100059043
:101EF0000C208DE81300CDE9033B69461046FEF740
:101F0000B7FFDFF84491524909F1C00948464FF044
:101F10000068C9F80010C0E90184C0E90346C9F8A7
:101F20001440C9F81840C9F81C40C9F82040C9F845
:101F30002440FEF7FBFE08B1FEF7CDFD454CC5F889
:101F400034904348C9F838501830A760C4E90008F5
:101F5000C4E903A6C4F814A0C4F818A0C4F81CA0CF
:101F6000C4F820A02046C4F824A05EE02C63A5633A
:101F70009CE7DFF8E480C44598D1D9F80080A246F8
:101F800048F02008C9F80080D9F800C00CF0200CF7
:101F9000CDF814C0D0F800C04CF0010CC0F800C05F
:101FA000006800F0010005904FF4C0508DE8130068
:101FB0000820CDE9033069461046FEF759FFDFF8E7
:101FC0009480204908F16008183940464FF0206994
:101FD000C8F80010C0E90194C0E90346C8F81440ED
:101FE000C8F81840C8F81C40C8F82040C8F8244079
:101FF000FEF79CFE08B1FEF76EFD164CC5F8348066
:102000001048C034C8F838506030A760C4E90009EF
:10201000C4E903A6C4F814A0C4F818A0C4F81CA00E
:10202000C4F820A02046C4F824A0FEF77FFE0028B4
:102030009CD0FEF750FD99E7001001404438024063
:102040000000024040640240400400200044004080
:10205000886002406005002000140140F8B5044685
:1020600090F83A0020283CD1C1B3BAB394F83800B4
:10207000012836D0012084F83800A162A28500250D
:10208000E563222084F83A00636B1748D863636BDA
:1020900016481864636B1648D864606B1346056570
:1020A0000846666B216802463046091DFEF7A8FE09
:1020B000206801684168009184F83850C16841F493
:1020C0008071C1602068416941F00101416120686F
:1020D000416941F0400141610020F8BDFFE7012066
:1020E000FBE70220F9E70000F72D0008332E000877
:1020F000AD2D0008704770472DE9F843044690F86D
:1021000039001F4616460D46202850D1B5B1AEB154
:1021100094F8380001284AD0012084F838004FF0A4
:102120000008C4F83C80212084F83900FEF76AFFDB
:10213000A6848146E68484F8388026E00120BDE844
:10214000F883E08C401EE084A0684B46B0F5805FC9
:102150004FF000024FF080012046009703D000F0BE
:1021600094FFE8B90DE000F090FFC8B92888216815
:10217000C0F308004860206908B16D1C05E0AD1C83
:1021800003E0216815F8010B4860E08C0028D8D1E5
:102190004B46002240212046009700F076FF08B110
:1021A0000320CCE7202084F839000020C7E7022074
:1021B000C5E77047FEE701684A69D24352050FD46C
:1021C0006FF480624A61002140F8301F2022427380
:1021D0008173026942F004020261017301207047B9
:1021E000002070472DE9F843044600680D46DDE9FC
:1021F000089701689846164641F4807101604B4685
:1022000000224FF001112046009700F065F848B118
:1022100020680068C00502D54FF4007020640320D8
:10222000BDE8F883216805F0FE0008613B464A4698
:102230001549204600F084F888B920684169806912
:1022400000903A464946204600F0C5F848B1206C57
:10225000042804D12068016841F400710160012064
:10226000DEE7F5B2B8F1010F09D02168300A086144
:102270003A464946204600F0AEF80028E7D12068EB
:1022800005610020CCE700000200010070B5164691
:102290000D4604460DE02046FFF78DFF08B10120F2
:1022A00070BD681C05D0FEF7ADFE801BA84207D8A4
:1022B00035B120684069C0434007ECD4002070BDB0
:1022C000002044F8300F20216173A073216941F090
:1022D000200121612073E2E72DE9F0471E46904678
:1022E0000D460446C1F30747DDF8209008E0701C56
:1022F00006D0FEF787FEA0EB0900B0420FD876B1FA
:102300002068012F18D0806925EA00000004000C25
:1023100014D000214145EAD00020BDE8F08700201C
:1023200044F8300F20216173A073216941F020012E
:10233000216120730120F0E74069E5E70121E9E729
:102340002DE9F0479A4691460E46044600254FF087
:102350002008C1F3074725E020684069C0434005D5
:1023600014D42068016841F40071016021686FF4A1
:1023700080604861256384F83D8084F83E50206C7D
:1023800040F00400206484F83C501FE0B9F1FF3FA6
:1023900008D0FEF737FEA0EB0A0149450CD8B9F189
:1023A000000F09D02068012F13D0806926EA0000B1
:1023B0000004000C0BD0CFE744F8305F84F80D80A8
:1023C000A573206940F02000206125730120BDE83D
:1023D000F0874069EAE770B516460D4604460DE001
:1023E0002046FFF7E8FE08B1012070BD681C05D04B
:1023F000FEF708FE801BA84207D835B12068406967
:10240000C0430006ECD4002070BD002044F8300F1B
:1024100020216173A073216941F0200121612073A3
:10242000E2E70000214808B5016841F4800101603D
:10243000016801F480010091016841F4001101601C
:102440000068002200F40010009011461020FEF7F2
:10245000F1FF1020FEF7E0FF002211461120FEF7E9
:10246000E9FF1120FEF7D8FF002211463920FEF7C0
:10247000E1FF3920FEF7D0FF002205213A20FEF7C8
:10248000D9FF3A20FEF7C8FF002211464520FEF78B
:10249000D1FF4520FEF7C0FF002205214620FEF7B0
:1024A000C9FFBDE808404620FEF7B6BF30380240FD
:1024B00010B50C4A40F20311032003F03BFA0A4C1A
:1024C000084A0021E060483A084803F06DFA054ADE
:1024D0006060243A0021064803F066FAA0600120FB
:1024E000206010BD1872000808000020D12A0008E2
:1024F000012B00080D4808B5016841F0800101601A
:10250000016801F080010091016841F00101016062
:10251000016801F001010091016841F002010160D0
:10252000006800F00200009008BD00003038024052
:102530000D4810B50B4901600C49416000214FF472
:1025400080428160C0E9031241618161C161016221
:10255000FEF75EFD002803D0BDE81040FEF7BBBAD1
:1025600010BD00000054004028020020A086010099
:102570000C4810B50A4901604FF416514160002122
:1025800081600C22C160C0E904128161C161FFF762
:10259000E5FB002803D0BDE81040FEF79CBA10BD53
:1025A00000100140800300200C4810B50A4901606A
:1025B0004FF4E1314160002181600C22C160C0E92B
:1025C00004128161C161FFF7C9FB002803D0BDE897
:1025D0001040FEF780BA10BD00440040C003002048
:1025E0000C4810B50A4901604FF4165141600021B2
:1025F00081600C22C160C0E904128161C161FFF7F2
:10260000ADFB002803D0BDE81040FEF764BA10BD52
:102610000014014000040020FEE700002DE9F04115
:1026200007462DED028B15460E464FF4C36000F0B1
:10263000BDFD95ED001B51EC100B53EC112BFDF77C
:102640001BFF41EC100BFEF7A5F951EC100BFEF748
:102650002AF8894C608040F2A25000F0A7FD95ED69
:10266000021B51EC100B53EC112BFDF764FE41ECF7
:10267000100BFEF78FF951EC100BFEF714F8E08108
:1026800040F2C45000F092FD95ED041B51EC100B8C
:1026900053EC112BFDF7F0FE41EC100BFEF77AF92D
:1026A00051EC100BFDF7FFFF60834FF4B56000F0B5
:1026B0007DFD95ED061B51EC100B53EC112BFDF736
:1026C0003AFE41EC100BFEF765F951EC100BFDF7EB
:1026D000EAFFE08440F2745000F068FD9FED678BE4
:1026E00051EC100B53EC182BFDF7C6FE97ED001BB9
:1026F00053EC112BFDF71FFE41EC100BFEF74AF9CE
:1027000051EC100BFDF7CFFFE08040F2DC5528467E
:1027100000F04CFD53EC182B51EC100BFDF70BFEA9
:1027200096ED001B53EC112BFDF7A6FE41EC100BB0
:10273000FEF730F951EC100BFDF7B5FF608140F268
:10274000E65000F033FD53EC182B51EC100BFDF765
:10275000F2FD97ED021B53EC112BFDF78DFE41ECC2
:10276000100BFEF717F951EC100BFDF79CFF608280
:10277000284600F01BFD53EC182B51EC100BFDF715
:102780007BFE96ED021B53EC112BFDF7D4FD41ECC3
:10279000100BFEF7FFF851EC100BFDF784FFE08201
:1027A0004FF4AF6000F002FD53EC182B51EC100B0E
:1027B000FDF7C1FD97ED041B53EC112BFDF75CFEFB
:1027C00041EC100BFEF7E6F851EC100BFDF76BFF38
:1027D000E083284600F0EAFC53EC182B51EC100B78
:1027E000FDF74AFE96ED041B53EC112BFDF7A3FDFC
:1027F00041EC100BFEF7CEF851EC100BFDF753FF38
:1028000060844FF4B96000F0D1FC53EC182B51EC0C
:10281000100BFDF731FE97ED061B53EC112BFDF766
:102820008AFD41EC100BFEF7B5F851EC100BFDF7EB
:102830003AFF6085284600F0B9FC53EC182B51ECA8
:10284000100BFDF778FD96ED061B53EC112BFDF7F1
:1028500013FE41EC100BFEF79DF851EC100BFDF749
:1028600022FFE0852046BDEC028B0122BDE8F0414D
:102870000C2102F0D1BF0000380100200000000050
:1028800000805640704770B5002404F1B000C0B21B
:1028900000F076F8002000F073F8102000F070F8D7
:1028A0000025002000F07EF86D1CEDB2802DF8D3DD
:1028B000641CE4B2082CE8D370BD10B5002041F2CE
:1028C0008831401C8842FCD3AE2000F059F800202B
:1028D00000F056F8102000F053F8402000F050F8B7
:1028E000B02000F04DF8812000F04AF8FF2000F001
:1028F00047F8A12000F044F8C82000F041F8A620D5
:1029000000F03EF8A82000F03BF83F2000F038F837
:10291000D32000F035F8002000F032F8D52000F088
:102920002FF8802000F02CF8D92000F029F8F120B1
:1029300000F026F8DA2000F023F8122000F020F84A
:10294000DB2000F01DF8402000F01AF8202000F0F5
:1029500017F8022000F014F88D2000F011F8142070
:1029600000F00EF8A42000F00BF8A62000F008F804
:10297000AF2000F005F8BDE81040FFF784BF00006D
:1029800001B584B001210A2204A88DE807000B4696
:10299000002278210248FEF7FFFB05B000BD0000D1
:1029A0002802002001B584B001210A2204A88DE884
:1029B00007000B46402278210248FEF7EDFB05B0E8
:1029C00000BD0000280200200E480A2101700C21E1
:1029D00001710D2101720B2101730E2101740F2170
:1029E00001750421017601210177002180F8201072
:1029F000052180F82410032180F82810022180F896
:102A00002C1070473801002010B52DED068BB0EE6C
:102A1000409AF0EE609A01F043F99FED238B51EC60
:102A2000100B53EC182BFDF72DFD9FED211B53ECE4
:102A3000112BFDF724FD41EC100B53EC102BFDF78F
:102A400021FD9FED1D1B53EC112BFDF718FD41ECF3
:102A5000100B01F089F9B0EE40AAF0EE60AAB0EEDA
:102A6000490AF0EE690A01F0B7F853EC182B51EC63
:102A7000100BFDF707FD9FED121B53EC112BFDF71B
:102A8000FBFC53EC1A2BFDF756FC9FED0F1B53EC90
:102A9000112BFDF769FDBDEC068B41EC100BBDE879
:102AA000104000F0D1BB00000000000000004440D6
:102AB0000000000000804340000000000024B340FC
:102AC00000000000004050400000000000003940BD
:102AD0004FF47A7405A000F07FFB00F0FFF803A02C
:102AE00000F07AFB204602F0D3FEF3E753746172E4
:102AF0007444656661756C745461736B0A0D0000F3
:102B0000C2B00BA000F068FB0F4C4FF0FF366D46D3
:102B100032466946E06804F055F80CA000F05CFB12
:102B2000E91C0CA000F058FB0EA000F055FBEFE7ED
:102B300033205374617274207573617274527846D5
:102B4000756E630D0A0000000800002052756E0DBE
:102B50000A000000332052756E20A3BA25730D0AB7
:102B600000000000656E64730D0A000010B550206F
:102B700080F31188BFF34F8FBFF36F8F04F064F9B8
:102B800018B104494FF080500860002080F311888C
:102B900010BD000004ED00E030B593B03021684670
:102BA000FDF7BEFB14210CA8FDF7BAFB1948002560
:102BB000016841F080510160006800F08050119080
:102BC0001548016821F4404141F40041016000686A
:102BD000022400F440401190012000900004019074
:102BE0008001CDE9064019200890A820CDE909040C
:102BF00004200B906846FEF75BFD0CA90F2081E8CE
:102C00003100E002CDE90F0502210CA8FEF744FCDB
:102C100013B030BD403802400070004005480168E4
:102C200041F47001016003494FF000608039086091
:102C30007047000088ED00E00148FEF717BF000074
:102C400080060020F0B502681D4B1E4C9F031E4DF0
:102C50001E4E984207D0B84205D0A04203D0A842E9
:102C600001D0B04204D122F0700C4A6842EA0C0252
:102C7000984210D0B8420ED0A0420CD0A8420AD040
:102C8000B04208D0124CA04205D0124CA04202D053
:102C9000114CA04203D122F44074CA6822434C690B
:102CA00022F08002224302608A68C2620A6882625D
:102CB000984201D10969016301214161F0BD000021
:102CC000000001400004004000080040000C0040EB
:102CD00000400140004401400048014010B51DA0E3
:102CE00000F07AFA1D4C6068FDF7ADFC9FED1C4BBF
:102CF00041EC100B9FED1C3BB0EE447AF0EE647A91
:102D0000B0EE446AF0EE646AB0EE445AF0EE645AF3
:102D10009FED172B9FED181B02F002F96068401C15
:102D200060602168884201D100206060144890ED05
:102D3000000B14A053EC102B00F04EFA104A10496F
:102D40002032A1F1200002F015FDBDE8104010A0D6
:102D500000F042BA626567696E0D0A00000000204B
:102D6000000000000000F03F000000000080514023
:102D70000000000000004EC000000000000037C04E
:102D8000E801002050656469735F7925660D0A00CB
:102D900066696E6973680D0A0000000010B5806BEB
:102DA0000021C185C184FEF74EFF10BD70B5846B54
:102DB0002068406994F83910C0F3C010002521291B
:102DC00004D118B1E584204600F046F82068406937
:102DD00094F83A10C0F38010222904D118B1E58587
:102DE000204600F02BF8E06B40F01000E063204636
:102DF000FEF729FF70BD10B50146806B09680968B0
:102E0000C90513D40021C1850168CA6822F4807203
:102E1000CA6001684A6922F001024A6101684A6990
:102E200022F040024A61202180F83A10FFF762F94F
:102E300010BD10B5806BFFF75EF910BD0168CA6860
:102E400022F49072CA6001684A6922F001024A6164
:102E5000202180F83A1070470168CA6822F0C00249
:102E6000CA60202180F83910704710B590F83A10E8
:102E7000222901D0022010BD8168B1F5805F11D0F8
:102E80000169002901681FD0496801F07F03816A48
:102E90004A1C82620B70C18D491E0904090CC18550
:102EA00018D02BE00269816A002A0268526805D0B6
:102EB000D2B20A80816A491C8162ECE7C2F308023F
:102EC0000A80816A891CF7E74A68816A4B1C836221
:102ED0000A70E0E70168CA6822F02002CA6001684F
:102EE000CA6822F48072CA6001684A6922F001024D
:102EF0004A61202180F83A10FFF7FCF8002010BD4D
:102F00002DE9F041044600680169E26821F440516E
:102F1000114301612169A068E269084361691143B5
:102F200008432168CA6849F20C639A430243CA60A5
:102F300020684169A26921F4407111434161E0694F
:102F4000192764253226B0F5004F354A35492068E7
:102F50004FF0000806D0884201D0904236D1FEF7EB
:102F600065FB35E0884201D0904202D1FEF75EFB5E
:102F700001E0FEF74BFB61684A18A0FB070148EB34
:102F80000803FDF783F90146B0FBF5F00201B1FB40
:102F9000F5F06FF01803584301EB800006EBC0001A
:102FA000B0FBF5F000F0F80002EB4002B1FBF5F0E9
:102FB000584301EB800006EBC000B0FBF5F000F0D9
:102FC0000700216810448860BDE8F081FEF71EFB11
:102FD00061688B0F8A00A0FB0701FDF757F90146D6
:102FE000B0FBF5F06FF01802504301EB800006EBE8
:102FF0000010B0FBF5F000F0F002B1FBF5F002EBD1
:103000000012B1FBF5F06FF01803584301EB80009C
:1030100006EB0010B0FBF5F000F00F00D1E7000068
:10302000001401400010014090F83910212901D00E
:10303000022070478168B1F5805F016A0BD04A1C9D
:103040000262026809785160C18C491E0904090CAA
:10305000C1840ED017E009880268C1F308015160ED
:1030600001690029016A02D0491C0162ECE7891C50
:10307000FBE70168CA6822F08002CA600068C16884
:1030800041F04001C160002070472DE9F0419846B1
:1030900017460E460446069D1DE0681C1BD02DB148
:1030A000FDF7B0FFA0EB0800A84214D92068C16862
:1030B00021F4D071C1602068416921F001014161B2
:1030C000202084F8390084F83A00002084F8380081
:1030D0000320BDE8F0812068006836EA000004D0D3
:1030E0000020B842D9D00020F3E70120F9E7000022
:1030F00010B500F007F8BDE810400148FEF7A4BD88
:10310000800300207CB51A4C0025009520680168DA
:10311000C943C9062BD40168406801902046FEF7D8
:1031200066FD606B00684068A4F58274C0F580702D
:10313000A4F80100012020700E48007888B10E48E4
:1031400001236A462146006803F0DEFC25700098E2
:1031500038B10A494FF080500860BFF34F8FBFF37A
:103160006F8F4FF48072E11C0148FEF777FF7CBD42
:1031700080030020080000201400002004ED00E07F
:10318000074910B54FF4807201F20110FEF766FF97
:1031900004480068C16841F01001C16010BD000022
:1031A0007F02002080030020FEE7000010B5A0F59C
:1031B000FA70FDF748FA9FED061B53EC112BFDF753
:1031C00061F9FDF751FAFDF73EFA41EC100B10BD25
:1031D0000AD7A3703D0AB73F0FB4054B10B503A93A
:1031E000044A029801F0ECFA10BC5DF814FB0000F0
:1031F000094F0008A000002003B401984100009886
:1032000050EAC12018BF04204A0D18BF40F0010049
:1032100040F2FF72B2EB515F08BF40F0020001289C
:1032200008BF052002B070470907090E002804DB1B
:1032300000F1E02080F80014704700F00F0000F16A
:10324000E02080F8141D704710B5B94A2DED020B2F
:103250002DED0C8B82B00F9921F000409FEDB6CB85
:1032600090422CDBA0F140530E9AA3F17F631A43E6
:103270000FD0B349884202DC16D10E98A0B19DED63
:103280000E0B02B0BDEC0C8B02B0BDE8104001F09B
:1032900093B90029C1BF9FEDAC0B02B0BDEC0C8B04
:1032A00002B0C8BF10BD16E0012001F0C1F902B0A4
:1032B000BDEC0C8B02B0BDE8104001F089B9A44A06
:1032C0009FEDA59B9FEDA6AB90425EDAA6499FEDD0
:1032D000A8CB814208DBB0EE4C0AF0EE6C0A02B0DB
:1032E000BDEC0C8B02B010BD9DED0E0B53EC102B02
:1032F00051EC100BFDF7C6F841EC180B9E48062167
:10330000B0EE480AF0EE680A784401F041F853EC58
:10331000182B51EC100BFDF7B5F841EC1B0B97483F
:10332000B0EE480AF0EE680A0421784401F030F863
:1033300053EC182B51EC100BFDF7A4F853EC192BA0
:10334000FCF7F9FF41EC100B51EC1B0B53EC102B6D
:10335000FDF70AF941EC100B53EC102B9DED0E0B11
:1033600051EC100BFDF78EF853EC1A2BFDF787F894
:103370009DED0E1B53EC112BFDF781F853EC1C2B2C
:10338000FDF77DF841EC100BA9E79FED7D8B9FEDDC
:103390007EBB9DED0E0B002953EC192B51EC100B4D
:1033A00052DAFCF7C8FF53EC182BFDF76BF841EC31
:1033B000180B77480621B0EE480AF0EE680A784408
:1033C00000F0E6FF53EC182B51EC100BFDF75AF808
:1033D00041EC1D0B6F48B0EE480AF0EE680A04217C
:1033E000784400F0D5FF53EC182B51EC100BFDF78F
:1033F00049F853EC192BFCF79EFF41EC190B51ECEB
:10340000180B02F06FFF41EC180B53EC192B51EC29
:103410001D0BFDF7A9F853EC182BFDF733F853EC0F
:103420001A2BFDF729F841EC100B51EC180B53EC5B
:10343000102BFCF780FF53EC1B2BFDF723F853EC0C
:103440001C2BFDF71CF86DE0FDF719F853EC182B59
:10345000FDF718F841EC180B02F044FF41EC1A0B91
:1034600000208DED00AB00909DED000B51EC1A0B90
:1034700053EC102BFCF75FFF9DED000B41EC1C0B98
:1034800053EC102B51EC100BFCF7FCFF53EC182BFA
:10349000FCF7F5FF53EC1C2BFDF766F841EC1C0B19
:1034A0003D48B0EE480AF0EE680A0621784400F084
:1034B0006FFF53EC182B51EC100BFCF7E3FF41ECC2
:1034C0001D0B3648B0EE480AF0EE680A0421784435
:1034D00000F05EFF53EC182B51EC100BFCF7D2FF01
:1034E00053EC192BFCF727FF41EC100B51EC1D0B93
:1034F00053EC102BFDF738F853EC1A2BFCF7C2FFF6
:1035000053EC1C2BFCF717FF41EC100B53EC102B6A
:103510009DED000B51EC100BFCF70DFF53EC1B2B3A
:10352000FCF7B0FF41EC100BD9E6000000000000F2
:103530000000F03F00000000182D4454FB2109401A
:103540000000F07F0000000000000000000000000C
:103550000000E03F00000000000000000000F03F1D
:10356000075C143326A6913C0000603C000000007C
:10357000182D4454FB21F93F443F0000523F000006
:10358000000000000000E03F0000000000000040DC
:103590008E3E00009C3E0000A03D0000AE3D0000BD
:1035A00070B5C1482DED020B2DED0E8B82B0119D33
:1035B00025F000449FEDBEDB9FEDBFEB84423EDB78
:1035C000A4F140511098A1F17F6108430FD0BC488D
:1035D000844202DC28D1109830B39DED100B02B06C
:1035E000BDEC0E8B02B0BDE8704000F0E5BF9DED74
:1035F000100B53EC1D2B51EC100BFCF743FF9DED12
:10360000100B41EC180B53EC1E2B51EC100BFCF77C
:1036100039FF53EC182BFCF78EFE41EC100B02B077
:10362000BDEC0E8B02B070BD012001F001F802B0BC
:10363000BDEC0E8B02B0BDE8704000F0C9BFA148E0
:103640009FEDA18B844256DA9DED100BB4F1795FAA
:103650000ADA51EC100BFFF7CFFD042808BF00F089
:10366000C7FF9DED100BDAE753EC102B51EC100B5C
:10367000FCF708FF41EC190B95480621B0EE490A0A
:10368000F0EE690A784400F083FE53EC192B51ECFC
:10369000100BFCF7F7FE41EC1A0B8E48B0EE490A0E
:1036A000F0EE690A0421784400F072FE53EC192B05
:1036B00051EC100BFCF7E6FE53EC182BFCF73BFE2D
:1036C00041EC100B51EC1A0B53EC102BFCF74CFF98
:1036D000CDE900019DED000B53EC102B9DED100B7F
:1036E00051EC100BFCF7CEFE9DED101B53EC112B93
:1036F000FCF721FED2E09DED100B51EC100B01F018
:10370000F6FB53EC182BFCF7BAFE9FED730BCDE9DB
:10371000000153EC102B9DED000B51EC100BFCF74E
:10372000B1FE41EC190B6E480621B0EE490AF0EEED
:10373000690A784400F02CFE53EC192B51EC100B65
:10374000FCF7A0FE41EC1B0B6648B0EE490AF0EE18
:10375000690A0421784400F01BFE53EC192B51EC4C
:10376000100BFCF78FFE53EC182BFCF7E4FD41EC3B
:103770001C0B51EC190B02F0B5FD41EC180B5A482B
:103780009FED5BABA04222DC53EC1C2B51EC1B0BDE
:10379000FCF7EAFECDE900019DED000B51EC180BA2
:1037A00053EC102BFCF76EFE53EC182BFCF7C3FD0B
:1037B00053EC1A2BFCF766FE53EC1D2BFCF75CFE5A
:1037C00053EC1E2BFCF75BFE41EC100B5FE08DED24
:1037D000008B002000909DED000B51EC180B53EC7A
:1037E000102BFCF7A8FD9DED000B41EC1E0B53ECDC
:1037F000102B51EC100BFCF745FE53EC192BFCF78A
:103800003EFE53EC1E2BFCF7AFFE41EC190B53ECC4
:103810001C2B51EC1B0BFCF7A7FE41EC1B0B53ECD4
:103820001A2B51EC190BFCF72DFE53EC1D2BFCF75A
:1038300026FE41EC190B53EC1A2B51EC180BFCF73C
:1038400021FE53EC1B2BFCF71DFE53EC192BFCF750
:1038500013FE9DED000B41EC180B53EC1A2B51ECB1
:10386000100BFCF70FFE9FED249B53EC192BFCF77C
:1038700006FE41EC100B51EC180B53EC102BFCF72F
:10388000FBFD53EC192BFCF7FAFD41EC100B002D5E
:103890003FF7C5AE51EC100B81F0004141EC100B2D
:1038A000BDE60000000000000000F03F0000000046
:1038B000075C143326A6913C182D4454FB21F93F94
:1038C0000000F07F0000E03F000000000000F03F3B
:1038D000183C0000263C0000000000000000E03F13
:1038E0006A3B0000783B00003333EF3F00000000EC
:1038F0000000000000000040182D4454FB21E93F67
:1039000070B59B482DED020B2DED068B079D25F024
:103910000044A04218DC9748844202DC0AD1069891
:1039200040B19DED060BBDEC068B02B0BDE87040CA
:1039300000F042BE002DCCBF9FED8F0B9FED900B92
:10394000BDEC068B02B070BD8F48A04215DD8F48DC
:10395000A042D8BF4FF0FF3458DD9DED060B51EC6F
:10396000100BFFF749FC042808BF00F041FE9DED55
:10397000060BBDEC068B02B070BD9DED060B51EC45
:10398000100B01F0B4FACDE9060181489FED828B5E
:10399000A0423CDD8248A0421FDD00249FED82ABA7
:1039A0009DED060B53EC1A2B51EC100BFCF7C3FCEE
:1039B0009DED060B41EC190B53EC1A2B51EC100B3F
:1039C000FCF760FD53EC182BFCF756FD53EC192B5C
:1039D000FCF7CAFDCDE9060149E09DED060B012487
:1039E00053EC182B51EC100BFCF7A5FC9DED060BCE
:1039F00041EC190B53EC182B51EC100BFCF73CFD70
:103A000053EC192BFCF7B0FDCDE906012FE0684817
:103A1000A0421FDD02249FED689B9DED060B53EC39
:103A2000192B51EC100BFCF72DFD53EC182BFCF768
:103A300082FC9DED060B41EC180B53EC192B51EC5D
:103A4000100BFCF719FD53EC182BFCF78DFDCDE99D
:103A500006010CE09DED060B032453EC102B9FEDAB
:103A6000580B51EC100BFCF77FFDCDE906019DEDE5
:103A7000060B53EC102B51EC100BFCF703FD41EC43
:103A8000180B53EC182BFCF7FDFC41EC190B4E48BE
:103A90000621B0EE490AF0EE690A784400F078FC9D
:103AA00053EC182B51EC100BFCF7ECFC41EC180B11
:103AB0004648B0EE490AF0EE690A0521784400F064
:103AC00067FC53EC192B51EC100BFCF7DBFC41ECC1
:103AD000100B51EC180B53EC102B002C0EDAFCF7EA
:103AE0002AFC9DED061B53EC112BFCF7CBFC9DED46
:103AF000061B53EC112BFCF7C2FC35E0FCF71BFC5A
:103B00009DED061B53EC112BFCF7BCFC41EC100B9C
:103B10002F48784400EBC40090ED001B51EC100BD3
:103B200053EC112BFCF7A8FC9DED061B53EC112B5D
:103B3000FCF7A2FC41EC100B2648784400EBC400D3
:103B400090ED001B51EC100B53EC112BFCF797FC84
:103B500041EC100B002DA2BFBDEC068B02B070BD76
:103B600051EC100B81F0004141EC100B01E700001B
:103B7000000010440000F07F182D4454FB21F93F51
:103B8000182D4454FB21F9BF0000DC3F0000203E0B
:103B90000000F33F00000000000000000000F03FC4
:103BA0000000E63F000000000000000000000040B0
:103BB0000080034000000000000000000000F83F0B
:103BC000000000000000F0BFBA38000070380000AC
:103BD000FA370000B237000010B52F499FED2C1BBB
:103BE0002DED020B84B0059820F000408842D8BF2C
:103BF0009DED040B2DDD2949884209D1049840B977
:103C00004FF0010000F014FD00F0E2FC06B010BD22
:103C100005DB9DED040B00F0CFFC06B010BD68463F
:103C20009DED040B00F0E0F810F0030004BF9DEDE3
:103C3000021B9DED000B0CD001280ED09DED021B48
:103C40009DED000B022817D0012000F01DFC06B0EE
:103C500010BD00F0E5FA06B010BD9DED021B9DED14
:103C6000000B012000F010FC51EC100B81F0004122
:103C700006B041EC100B10BD00F0D2FA51EC100B65
:103C800081F0004106B041EC100B10BD00000000B7
:103C90000000000000000000FB21E93F0000F07F71
:103CA00010B52F499FED2C1B2DED020B84B005980C
:103CB00020F000408842DCBF00209DED040B32DD87
:103CC0002849884209D1049840B94FF0010000F01A
:103CD000AFFC00F07DFC06B010BD05DB9DED040BD4
:103CE00000F06AFC06B010BD68469DED040B00F0C4
:103CF0007BF810F0030011D0012818D09DED021BB5
:103D00009DED000B02281AD000F08AFA51EC100B3E
:103D100081F0004106B041EC100B10BD9DED021B7F
:103D20009DED000B012000F0AFFB06B010BD9DED36
:103D3000021B9DED000B00F073FA06B010BD0120D0
:103D400000F0A2FB51EC100B81F0004106B041ECF9
:103D5000100B10BD0000000000000000000000007B
:103D6000FB21E93F0000F07F00B52DED048BB0EEA4
:103D7000409AF0EE609A83B051EC190BFCF780FD8D
:103D800041EC180B18EE100A18EE901A8DED008B0E
:103D9000002818BF0120084320F00040C0F17F60D8
:103DA00000F1E040C00F14D019EE101A19EE900A7D
:103DB0008DED009B002918BF0121084320F0004031
:103DC000C0F17F6000F1E040C00F04BF012000F0AF
:103DD0002FFCB0EE480A03B0F0EE680ABDEC048B8D
:103DE00000BD0000000000002DE9F14F04462DED5C
:103DF000020B2DED088B8AB09FEDE70B80ED020BD7
:103E0000139EE74826F0004585420ADC9DED120B23
:103E1000002084ED000B0AB0BDEC088B03B0BDE8B8
:103E2000F08FE0489FEDE0AB9FEDE1BBA84247DD9E
:103E3000E14F9FEDE39B9FEDE48B9DED120B53EC67
:103E40001A2B51EC100B002E1CDDFCF715FB41EC7E
:103E5000100BBD4208D053EC1B2B51EC100BFCF7A0
:103E60000BFBC4E900010BE053EC192B51EC100BD8
:103E7000FCF702FB53EC182BFCF7FEFAC4E9000137
:103E80000120C8E7FCF757FA41EC100BBD4208D0FF
:103E900053EC1B2B51EC100BFCF74DFAC4E900015D
:103EA0000BE053EC192B51EC100BFCF744FA53ECDC
:103EB000182BFCF740FAC4E900014FF0FF30AAE7E5
:103EC000C348A84279DB9DED120B51EC100B01F0B9
:103ED0000EF841EC180B9FEDC00B53EC102BFCF7C8
:103EE000D1FA9FEDBF1B53EC112BFCF724FAFCF722
:103EF000BBFB0746FCF7A7FB41EC190B53EC1A2B55
:103F0000FCF7C0FA53EC182BFCF7B9FA41EC180B8C
:103F100053EC1B2B51EC190BFCF7B4FADFF8C8A2D9
:103F200041EC100B4FEA15580125FA4453EC102BC5
:103F300051EC180BFCF7A0FA032DC4E900013DD0A9
:103F4000C1F30A5005EB4511A8EB0000113981427D
:103F500034DA0AEB051BB0EE48AA9BED000BF0EE3D
:103F600068AA53EC102B51EC190BFCF78BFA41ECBF
:103F70001B0B51EC1A0B53EC1B2BFCF77DFA41EC9D
:103F8000180B51EC1A0B53EC182BFCF775FA53EC89
:103F90001B2BFCF771FA9BED020B41EC1A0B53EC57
:103FA000102B51EC190BFCF76DFA53EC1A2BFCF7A4
:103FB00063FA41EC100B6D1CB8E70EE0002EA8BFB1
:103FC0003846BFF628AF94ED000B51EC100B81F092
:103FD0000041C4E9000178421DE7C6F3130040F434
:103FE000801EC6F30A50A0F2F530471100F01F05FD
:103FF000C5F12000DDF848B0089000200690079039
:104000000520EC467949002D07EB0002794408BFF2
:1040100051F8221009D051F8223001EB8201AB4057
:104020004A68089922FA01F11943A1FB0E26A1FB67
:104030000B131A449A4234BF0123002303EB0608F2
:104040000CEB8003D3E901A60E448E4234BF01215C
:10405000002192448A4411B1924502D903E092456D
:1040600001D2012100E00021C3E901A641444CF83E
:104070002010011EA0F10100C4DC029800F10050E4
:10408000850F0298DDE903678000DDF81480FCF7F6
:10409000DAFA41EC1A0B3046FCF76EFC9FED541B2C
:1040A00053EC112BFCF7EEF941EC1B0B3846FCF7F7
:1040B00063FC9FED511B53EC112BFCF7E3F941EC32
:1040C000180B4046FCF758FC9FED4D1B53EC112B91
:1040D000FCF7D8F941EC190B51EC180B53EC192BE8
:1040E000FCF729F953EC1B2BFCF725F953EC1A2BA1
:1040F000FCF721F9CDE90801002008909DED080B9F
:1041000053EC1A2B51EC100BFCF7B6F953EC1B2BAC
:10411000FCF7B2F953EC182BFCF7AEF953EC192B62
:10412000FCF7ADF99FED381B53EC112BFCF7AAF906
:104130009FED370B41EC180B53EC102B9DED080B4A
:1041400051EC100BFCF79EF953EC182BFCF7F3F82D
:104150009FED310B41EC180B53EC102B9DED080B30
:1041600051EC100BFCF78EF953EC182BFCF7E3F82D
:1041700041EC100B139810F0004F06D06D4251EC3B
:10418000100B81F0004141EC100B284684ED000B30
:1041900041E60000000000000000000000000000F8
:1041A000FB21E93F7CD9024000004054FB21F93F4C
:1041B0003163621A61B4D03DFB21F93F0000000079
:1041C0000000601A61B4D03D7370032E8A19A33BBE
:1041D000FB2139410000000083C8C96D305FE43F16
:1041E000000000000000E03F8A340000D8330000E7
:1041F000000000000000103E000000000000103C25
:10420000000000000000103A182D4454FB21F93D35
:104210003326A611460B113C00000054FB21F93D4A
:1042200010B52DED040B2DED088B82B0B0EE419A48
:10423000F0EE619A0B9820F000449FED4BABB4F187
:10424000795F11DA9DED0A0B51EC100BFCF70CFABB
:10425000002801BFB0EE4A0AF0EE6A0A02B0BDECD7
:10426000088B04BF04B010BD9DED0A0B53EC102B5E
:1042700051EC100BFCF706F941EC180B3C480621F9
:10428000B0EE480AF0EE680A784400F081F853EC8A
:10429000182B51EC100BFCF7F5F89DED0A0B41ECD7
:1042A0001B0B53EC192B51EC100BFCF7EBF841EC0A
:1042B000190B53EC1B2B51EC180BFCF7E3F853ECE8
:1042C000192BFCF7D9F89FED2C0B41EC190B53EC93
:1042D000102B51EC180BFCF7D5F841EC100B2848CB
:1042E000844210DA53EC192B51EC100BFCF7C4F894
:1042F00053EC1A2BFCF7C3F841EC100B02B0BDECE9
:10430000088B04B010BD1F48A042BCBF9FED1E1B10
:104310008DED001B06DBA4F500100190002000903D
:104320009DED001B51EC100B53EC112BFCF7A4F886
:104330009DED000B41EC180B53EC102B51EC1A0BBC
:10434000FCF79AF841EC1A0B53EC192B51EC180BB3
:10435000FCF792F853EC1A2BFCF791F841EC100B98
:10436000CCE7000000000000000000000000F03F6B
:10437000FC30000000000000000000000000E03FF2
:104380003333D33F0000E93F000000000000D23F7C
:1043900070B504462DED028B4D1E00EBC500B0EE4E
:1043A000408AF0EE608A90ED000B35F0060017D0E1
:1043B00053EC182B51EC100BFCF764F841EC100B8C
:1043C0006D1E04EBC50090ED001B51EC100B53EC7F
:1043D000112BFBF7B0FF41EC100B35F00600E7D1D5
:1043E000022D36D0042D1CD0062D1CBFBDEC028B37
:1043F00070BD53EC182B51EC100BFCF743F894ED07
:104400000A1B53EC112BFBF796FF53EC182BFCF710
:1044100039F894ED081B53EC112BFBF78CFF41ECA2
:10442000100B53EC182B51EC100BFCF72BF894ED00
:10443000061B53EC112BFBF77EFF53EC182BFCF7FC
:1044400021F894ED040B53EC102BFBF774FF41ECB7
:10445000100B53EC182B51EC100BFCF713F894EDE8
:10446000021B53EC112BFBF766FF53EC182BFCF7E8
:1044700009F894ED001B53EC112BFBF75CFFBDEC2E
:10448000028B41EC100B70BD31B504462DED040BD1
:104490002DED0A8BB0EE41BAF0EE61BA0B989DEDAE
:1044A0000A0B20F00040B0F1795F0DDA51EC100BEF
:1044B000FEF7A2FE042808BF00F09AF89DED0A0B53
:1044C000BDEC0A8B05B030BD53EC102B51EC100B3A
:1044D000FBF7D8FF41EC180B9DED0A0B53EC182BA2
:1044E00051EC100BFBF7CEFF41EC190B2C48B0EE52
:1044F000480AF0EE680A05217844FFF749FF9FED6E
:104500002ACBB0EE40AAF0EE60AA9CB353EC1C2B71
:1045100051EC190BFBF7B6FF41EC1C0B53EC1A2BBB
:1045200051EC190BFBF7AEFF9FED210B41EC190B82
:1045300053EC102B51EC1B0BFBF7A4FF53EC192B86
:10454000FBF79AFF53EC182BFBF79CFF53EC1B2B4C
:10455000FBF792FF53EC1C2BFBF78EFF9DED0A1B24
:1045600053EC112BFBF78BFFBDEC0A8B05B041EC34
:10457000100B30BDFFE753EC1A2B51EC180BFBF777
:1045800081FF53EC1C2BFBF7D6FE53EC192BFBF7EA
:1045900079FF9DED0A1B53EC112BFBF7CCFEE3E7F3
:1045A000842F000000000000495555555555C5BFE2
:1045B000000000000000E03F10B553EC102B51EC60
:1045C000100BFBF7B8FE41EC100B10BD0000000013
:1045D0009FED050B10B553EC102B51EC100BFBF7B6
:1045E000C3FF41EC100B10BD0000000000000000F4
:1045F0009FED050B10B553EC102B51EC100BFBF796
:1046000041FF41EC100B10BD000000000000001045
:1046100002E008C8121F08C1002AFAD1704770478B
:10462000002001E001C1121F002AFBD170470000E9
:104630000149086070470000A40000202DE9FF5FD9
:1046400082B00021DDE90430020DDDF840B0034303
:1046500018D044F61050A2F2FF32424315141198BC
:1046600001281FD0A5EB0B00401C5FEA000A4FF0A9
:1046700000064E4FDFF83891B046504615D5CAF1C6
:10468000000413E0119801244AA3012801D16FEA24
:104690000B010298119AC0E90031C0E9024206B04C
:1046A000BDE8F09FCBF10000DFE704460021404A5F
:1046B000491842EB0450CDE9001012E0E00707D0A2
:1046C00032463B4640464946FBF7DCFE804689467B
:1046D00032463B4610461946FBF7D4FE06460F46C7
:1046E0006410002CEAD1DDE90401DDE90023BAF110
:1046F000000F06DAFBF7C6FE42464B46FBF7C2FE4A
:1047000005E0FBF731FF42464B46FBF72DFF044621
:104710000E460022284BFBF7F7FF03D84FF0FF307F
:10472000014607E00022254B20463146FBF703FEF9
:10473000FCF7F7F8102409E0002C0ADB0A2200231A
:10474000FBF7A4FD039B30321A55641E50EA0102A8
:10475000F2D1641C039AC4F111031444119A012A82
:1047600003D0012208430DD10AE0084304D0002001
:104770004FF0110B119072E7A3EB0B056D1E0DE0CE
:104780005B4504DD4FF0000205F1010504E003DAAA
:104790004FF00002A5F10105002AECD00298119912
:1047A000C0E90231C0E9004579E70000000014408B
:1047B0000000F03F300000000000F0430000E03F48
:1047C0002DE9FF4F95B09B468946064600250FE22E
:1047D000252877D100242746F84A0121059400E0D6
:1047E000044316F8013F203B01FA03F01042F7D1D1
:1047F00030782A2811D06FF02F033078A0F13002E2
:10480000092A16D8059A44F0020402EB820203EB4F
:1048100042021044761C0590EFE759F8042B0592EC
:10482000002A03DA504244F40054059044F0020494
:10483000761C30782E2816D116F8010F44F00404A7
:104840002A280DD06FF02F023078A0F13003092B09
:1048500009D807EB870302EB4303C718761CF3E77D
:1048600059F8047B761C30786C280FD006DC4C2875
:1048700017D068280DD06A2814D104E0742810D00D
:104880007A280FD10DE044F400140AE044F48014B7
:1048900001E044F440147278824202D104F580149D
:1048A000761C761C307866280BD013DC582877D01D
:1048B00009DC002875D04528F6D04628F4D04728D2
:1048C0001AD19DE118E0632835D0642879D0652895
:1048D00012D195E1702873D008DC6728F1D06928DF
:1048E0006FD06E280DD06F2806D1B5E073282CD07C
:1048F000752875D0782874D05A46179990476D1C42
:1049000075E1C4F30250022809D003280DD0D9F86C
:10491000001004280DD00D6009F1040967E1D9F8F1
:104920000010EA17C1E90052F6E7D9F800100D802F
:10493000F2E70D70F0E719F8041B8DF80010002065
:104940008DF80100EA46012003E059F804AB4FF06E
:10495000FF3061074FF0000102D40DE008F10101C2
:104960008846B9420FDA8045F8DB1AF808100029AA
:10497000F4D108E008F1010188468142FADB1AF817
:1049800008100029F6D105985B46A0EB08072146E0
:104990003846179A00F094FA284400EB080507E01F
:1049A0004DE029E10DE01AF8010B5A46179990479E
:1049B000B8F10108F7D25B4621463846179A13E151
:1049C00042E00A220092C4F302524FF0000A022A87
:1049D00008D059F804CB032A4FEAEC710AD00DE055
:1049E00029E02AE009F1070121F00702F2E802C1FB
:1049F000914609E00FFA8CFC4FEAEC71042A03D1CE
:104A00004FFA8CFC4FEAEC71002907DA0A460021C4
:104A1000DCF1000C61EB02012D2202E0220504D53D
:104A20002B228DF80420012203E0E20701D020228E
:104A3000F7E7904659E00A2102E010220DE010212C
:104A40004FF0000A00910BE010224FF0000A44F0F2
:104A500004040827009203E008224FF0000A0092A5
:104A6000C4F30252022A05D059F804CB0021032ACC
:104A700008D009E009F1070121F00702F2E802C1BC
:104A8000914605E01FFA8CFC042A01D10CF0FF0CC2
:104A90004FF00008220728D5702806D0009B83F02D
:104AA000100353EA0A0305D00EE040228DF80420DB
:104AB000012208E05CEA010206D030228DF80420D1
:104AC0008DF8050002229046009B83F0080353EA0C
:104AD0000A030AD15CEA010201D1620705D530223E
:104AE0008DF804204FF001087F1E582804D034A010
:104AF00003900EA802900DE036A0F9E753466046F9
:104B0000009AFBF7C3FB84460398825C0298401E20
:104B1000029002705CEA0100F0D1029806A9081A1E
:104B200000F1200A600702D524F4803400E0012758
:104B3000574502DDA7EB0A0000E0002000EB0A0168
:104B4000009005984144401A0590E00306D45B4666
:104B50002146179A059800F0B3F90544002706E0AE
:104B600001A85A46C05D179990476D1C7F1C4745A8
:104B7000F6DBE0030CD55B462146179A059800F05A
:104B80009FF9054404E030205A46179990476D1C60
:104B90000099481E00900029F5DC08E0029802996F
:104BA0005A460078491C0291179990476D1CBAF13A
:104BB0000001AAF1010AF1DC65E100000928010009
:104BC0003031323334353637383961626364656683
:104BD0000000000030313233343536373839414245
:104BE000434445460000000000F058F90544761C97
:104BF000307800287FF4ECAD19B02846BDE8F08F7E
:104C0000620700D4062709F1070222F0070CFCE82E
:104C10000223E14603F000485FEA080C02D00FF2DD
:104C2000702C0DE05FEA045C02D50FF2682C07E0FF
:104C30005FEAC47C02D00FF2602C01E0AFF2700C8E
:104C40004FF0FF3823F00043CDF850C065280CD05A
:104C500006DC452809D046281DD047283DD13DE037
:104C6000662818D067287ED138E00021112F01DB9B
:104C7000112000E0781CCDE9000106A90EA8FFF77D
:104C8000DDFCDDE90F010E9A03910021009207F18E
:104C9000010A04914DE04FF000400097CDE901106A
:104CA00006A90EA8FFF7CAFCDDE90F0203920E9BCE
:104CB00011990022DDF80CA00093049211B9791C1F
:104CC00000EB010AB7EB0A0004D4C0F1FF3007F192
:104CD000010A0490AAEB0700019044E0012F00DADA
:104CE00001270021112F01DD112000E03846CDE918
:104CF000000106A90EA8FFF7A1FCDDE90F010E9A3D
:104D00000391002104910092BA4621070CD4039923
:104D1000514500DA8A46BAF1010F05DD009AAAF181
:104D20000101515C302908D0B84202DA10F1040FB9
:104D300006DA0121CDE9011015E0AAF10101E9E748
:104D4000002805DC049901440491AAEB000102E06B
:104D5000411C514500DD8A460499401A401C0190CF
:104D60004FF000400290200704D40198504501DB29
:104D7000CDF8048000208DF84F0002980DF14F0708
:104D8000B0F1004F25D02B200E9002984FF0020872
:104D900000280CDA404202902D200E9007E00A21F4
:104DA0000298FBF7C9FC3031029007F8011DB8F1F9
:104DB0000001A8F10108F2DC02980028EFD1791E69
:104DC0000E980870307800F0200040F0450007F899
:104DD000020D12A8C01B00F107081498007800B15A
:104DE000012000EB0A01019801EBE07105984144B4
:104DF000401A401E0590E00306D45B462146179AF0
:104E0000059800F05DF805441498007818B15A46EA
:104E1000179990476D1CE00324D55B462146179AED
:104E2000059800F04DF805441CE00498002807DBC5
:104E3000DDE90301884203DD0098405C179901E039
:104E4000179930205A469047049805F10105401CF7
:104E500004900198401E019004D12E205A461799C3
:104E600090476D1CBAF10001AAF1010ADDDC05E0F2
:104E700017F8010B5A46179990476D1CB8F10001BD
:104E8000A8F10108F4DC5B462146179A0598ABE6C9
:104E90002D0000002B000000200000002DE9F04153
:104EA000044600251E461746880404D405E039460A
:104EB0002020B0476D1C641EF9D52846BDE8F0815E
:104EC0002DE9F041044600251E469046C80301D551
:104ED000302700E02027880404D505E04146384605
:104EE000B0476D1C641EF9D52846BDE8F08182B03C
:104EF000CDE9000121F0004001909DED000B02B0D2
:104F000051EC100B7047000013B50A2301226946CB
:104F10000248FDF7F1F800981CBD00008003002056
:104F20002DE9F0472DED100BDFF814A42DED108BBB
:104F3000AAF12004B0EE47CAF0EE67CAB0EE46DA36
:104F4000F0EE66DAB0EE43EAF0EE63EAB0EE429AD3
:104F5000F0EE629AB0EE41AAF0EE61AAB0EE40BA6D
:104F6000F0EE60BAA4F120079FEDF68BF74D2868AC
:104F700000EBD0704010FBF766FB53EC1B2BFBF7EC
:104F8000C3FB7DD8F2A0FEF727F92868FBF75BFB8F
:104F900041EC1F0B9FEDF20B51EC1B0B53EC102B54
:104FA000FBF770FA53EC1F2BFBF7DEFA41EC1B0BFF
:104FB000EDA053EC1B2BFEF70FF9B0EE4B0AF0EE11
:104FC0006B0AFEF709FE9FEDEB1B51EC100B53EC47
:104FD000112BFBF754FA53EC1E2BFBF753FA9FED02
:104FE000E71B53EC112BFBF74DFA41EC1E0BB0EE17
:104FF0004B0AF0EE6B0AFEF753FE53EC1B2B51EC01
:10500000100BFBF73CFA9FEDDF1B53EC112BFBF76A
:10501000ABFA41EC1F0B53EC1A2B51EC190BFBF7BD
:105020002BFA53EC1F2BFBF72DFA53EC1A2BFBF743
:1050300082F941EC1F0BB0EE4B0AF0EE6B0AFEF763
:105040002FFE53EC1B2B51EC100BFBF718FA9FEDC6
:10505000CD1B53EC112BFBF787FA41EC1B0B53ECE8
:10506000192B51EC1A0BFBF707FA53EC1B2BFBF730
:1050700009FA53EC192BFBF75EF941EC1A0B00E02F
:105080006FE053EC1E2B9FEDC1BB51EC1B0BFBF7EC
:10509000F3F9894649EC190B054684ED009B53EC66
:1050A000182B51EC1E0BFBF7EDF9884648EC100B62
:1050B000064653EC1B2B51EC100BFBF73CF9083464
:1050C00048EC106B84E8230253EC1B2B51EC100BC3
:1050D000083CFBF730F9C4E9060153EC192BADA0ED
:1050E000FEF77AF89DED180B51EC1A0B53EC102BD0
:1050F000FBF7C8F941EC180B53EC1D2B87ED008B27
:1051000051EC1F0BFBF7BEF9C7E9020153EC1C2B56
:1051100051EC1A0BFBF7B6F9C7E904019DED1A0B28
:1051200051EC1F0B53EC102BFBF7ACF9C7E9060150
:1051300053EC182B9AA0FEF74FF89FED9C0B9DA007
:105140008AED000B8AED020B8AED040B8AED060B4B
:1051500053EC102BBDEC108B10B0BDE8F047FEF700
:105160003BB8286800EBD0704010FBF76CFA53ECAA
:105170001B2BFBF7B1FA7DD22868FBF764FA53ECDE
:105180001B2BFBF7C1FA75D828680546FBF75BFABD
:1051900041EC1F0B05EBD5704010FBF754FA53ECB4
:1051A0001B2BFBF76CF99FED6E1B53EC112BFBF7E0
:1051B00069F953EC1F2BFBF7D7F941EC1B0BB0EE51
:1051C0004B0AF0EE6B0AFEF707FD9FED6A1B51ECF0
:1051D000100B53EC112BFBF752F953EC1E2BFBF782
:1051E00051F99FED661B53EC112BFBF74BF941EC8A
:1051F0001E0BB0EE4B0AF0EE6B0AFEF751FD53ECBE
:105200001B2B51EC100BFBF73AF99FED5E1B53EC97
:10521000112BFBF7A9F941EC1F0B53EC1A2B51ECA6
:10522000190BFBF729F953EC1F2BFBF72BF953EC68
:105230001A2BFBF780F841EC1F0BB0EE4B0AF0EE97
:105240006B0AFEF72DFD53EC1B2B51EC100BFBF7FB
:1052500016F99FED4C1B53EC112BFBF785F941EC34
:105260001B0B53EC192B51EC1A0BFBF705F953EC04
:105270001B2B00E0A6E0FBF705F953EC192BFBF71D
:105280005AF841EC190B53EC182B51EC1E0BFBF7A1
:10529000F9F8894649EC100B9FED3C8B054653EC21
:1052A000182B51EC100BFBF746F8C4E9000153EC46
:1052B0001E2B51EC180BFBF7DFF88846064649EC2D
:1052C000105BC4E9026853EC182B51EC100BFBF790
:1052D00032F8103484E843019DED180B51EC1F0B9C
:1052E00053EC102BFBF7CEF8C7E9000153EC1D2B54
:1052F00051EC190BFBF7C6F8C7E9020153EC1C2B64
:1053000051EC1F0BFBF7BEF8C7E904019DED1A0B2A
:1053100051EC190B53EC102BFBF7B4F89FED230B5A
:10532000C7E906018AED000B8AED020B8AED040B3A
:105330008AED060BBDEC108B10B0BDE8F0870000C5
:105340000802002000000000000000000000002013
:1053500074203C3D205473202F320D0A00000000C1
:1053600044174154FB2129407369676D6125660A22
:105370000D000000000000000000F03F00000000F1
:105380000000E03F44174154FB2119400000000099
:105390000080664050656469735F793A2566200035
:1053A00050656469735F783A25662000000000004C
:1053B00000004E4050656469735F7A3A2566200D9F
:1053C0000A00000087ED008B87ED028B87ED048BD0
:1053D0001FED120B87ED068B84ED000B84ED020BA5
:1053E00084ED040B84ED060BA4E700002DE9F04FDB
:1053F00091462DED108BB1B08A46834600259FED76
:10540000C6CB9FEDC7FB9FEDC88B9FEDC99B9FED62
:10541000CAAB9FEDCBBB00BF09EBC50090ED000B05
:1054200053EC102B51EC100BFBF72CF80AEBC508D2
:1054300041EC1E0B98ED000B53EC102B51EC100BB4
:10544000FBF720F80BEBC50741EC1D0B97ED000BAC
:1054500053EC102B51EC100BFBF714F853EC1D2BF5
:10546000FAF769FF53EC1E2BFAF765FF9FEDB61BA9
:1054700053EC112BFBF700F89FEDB51B53EC112BF0
:10548000FAF7FAFF53EC1C2BFAF7F6FF53EC1F2B3D
:10549000FBF76AF841EC100BFDF7D6FE684600EB0F
:1054A000C50484ED100BFEF797FB53EC182B51EC61
:1054B000100BFAF7E7FF53EC192BFAF73CFF41EC1E
:1054C0001D0B94ED100BFEF7EBFB53EC182B51EC7E
:1054D000100BFAF7D7FF53EC1D2BFBF745F841EC07
:1054E000100BFEF70DFA18A800EBC50686ED000BB1
:1054F00094ED100BFEF770FB53EC1F2B51EC100BCF
:10550000FAF7C0FF9FED941B53EC112BFAF713FF32
:1055100041EC100BFEF728FC97ED001B53EC102B11
:1055200051EC110BFBF720F841EC100BFEF738F8AB
:1055300096ED001B51EC100B53EC112BFAF79FFF6B
:1055400041EC100B84ED080B94ED101B53EC102B69
:1055500051EC110BFAF790FF41EC100BFEF73CFBFE
:1055600053EC182B51EC100BFAF78CFF41EC1D0B90
:1055700094ED080BFEF730FB53EC192B51EC100B9C
:10558000FAF780FF53EC1D2BFAF7D5FE94ED080BCC
:1055900094ED101B41EC1E0B53EC102B51EC110B36
:1055A000FAF76AFF41EC100BFEF716FB53EC182BD1
:1055B00051EC100BFAF766FF41EC1D0B94ED080B54
:1055C000FEF70AFB53EC192B51EC100BFAF75AFFBC
:1055D00053EC1D2BFAF7AFFE53EC1E2BFAF752FFDC
:1055E00053EC1C2BFAF7A7FE41EC100BFEF7BCFBAB
:1055F00020A800EBC50686ED000B94ED080B94ED9A
:10560000101B53EC102B51EC110BFAF735FF41EC4A
:10561000100BFEF7E1FA53EC182B51EC100BFAF7D4
:1056200031FF41EC1D0B94ED080BFEF7D5FA53EC5E
:10563000192B51EC100BFAF725FF53EC1D2BFAF741
:105640007AFE9FED471B53EC112BFAF78DFF41ECCF
:10565000100BFEF755F928A800EBC50787ED000BE6
:1056600096ED000B98ED001B53EC102B51EC110B39
:10567000FAF77AFF41EC100BFDF792FF97ED001B54
:1056800051EC100B53EC112BFAF7F9FE41EC100B17
:1056900053EC1A2B84ED000BFAF7F4FE53EC1B2BA2
:1056A000FAF762FF304A02EBC502C2E9000194ED4D
:1056B000080B53EC1A2B51EC100BFAF7E3FE53ECEA
:1056C0001B2BFAF751FF9FED291B53EC112BFAF717
:1056D000D6FE254A203A02EBC502C2E9000194ED4C
:1056E000100BFDF791F953EC1A2B51EC100BFAF754
:1056F000C9FE53EC1B2BFAF737FF1B4A403A02EB6B
:10570000C5026D1CC2E90001042DFFF685AE31B063
:10571000BDEC108BBDE8F08F000000000020AC4015
:1057200000000000002FDC400000000000C05B40D3
:105730000000000000406040000000000080664063
:1057400044174154FB210940000000008010C8406C
:10575000000000000081D040000000004089DC40D3
:105760000000000000004E40A801002000000000E2
:105770000080564010B5FFF739FE094AA2F14001FA
:1057800001F12000FCF74AFF0548403890ED000B7E
:10579000BDE8104053EC102B02A0FDF71DBD00002A
:1057A000A80100207368616E6B25660D0A00000079
:1057B00098B020216846FAF7B3FD2022154908A8C1
:1057C000FAF795FD13492022203110A8FAF78FFD32
:1057D000FBF7B6FDFDF7E0F9FCF78CFEFCF722FEC7
:1057E000FCF7C6FEFCF7E0FEFCF7FAFEFCF7A0FEB5
:1057F000FDF7C6FCFDF7E8F810AA08A96846FFF710
:10580000B9FFFDF75AF800F05DF8FCF751FE00F023
:1058100073F8FEE790710008F0B4072500244B1ED2
:10582000202B2ED2002A2CD0174B55265E701E70CE
:1058300001EB4106761D9E700326DE7019715A71C8
:10584000120A9A7112E000BF10F824205A556D1CFC
:10585000EAB200EB8405AE789E54521C6D88D2B239
:105860002D0A9D54521C641CD5B2E4B28C42EBD379
:105870009A78F0BC4FF6FF7303490448921CFCF77A
:105880003BBCF0BC70470000A800002000040020D2
:1058900010B5EFF3058179B9EFF3108111B9EFF38A
:1058A000118119B106490968022905D0002408B1FF
:1058B00000F07EFE204610BD6FF00504FAE7000000
:1058C00078000020EFF3058068B9EFF310820949F2
:1058D000086812B9EFF311820AB1022803D028B187
:1058E0004FF0FF3070476FF00500704701200860EF
:1058F000002070477800002010B5EFF3058070B9E4
:10590000EFF310820A49086812B9EFF311820AB165
:10591000022804D0012805D04FF0FF3010BD6FF0F1
:10592000050010BD0220086000F0AAFE002010BD96
:1059300078000020F8B514464FF00005EFF305821B
:105940006ABBEFF3108212B9EFF311821AB1154A54
:105950001268022A23D010B309B3ACB1D4E90232E1
:105960006BB1502A1BD32269CAB1676900FB01F6EB
:10597000B74214D30025009500F09EFF07E072B9EE
:10598000226962B9626952B9002200F071FF050014
:1059900005D00CB1216800E0002100F0D3FD2846BD
:1059A000F8BD0000780000202DE9FF414FEA010317
:1059B0004FF00005EFF30581039599BBEFF31081DC
:1059C00011B9EFF3118119B11F490968022938D0C3
:1059D00040B38026182100244AB3176807B13C461B
:1059E00097691FB139467F1E382F02D21779FF07FA
:1059F00003D0002004B0BDE8F081576907B1BE08AC
:105A0000D2F808C0BCF1000F0DD0D5685C2D18D3BA
:105A100012693AB137B18DE806103246214601F0DD
:105A2000D4F903900DE0D7685FB912694AB903AAA7
:105A3000CDE90012B2B2214601F09AF9012800D056
:105A400003950398D6E70000780000202DE9F04187
:105A5000134C0F46054666692068001D00F079FC6E
:105A6000681C07D137B12168BDE8F0410D48091D18
:105A700000F0BEBC20683544B5424560216805D2BF
:105A8000A068BDE8F041091D00F09ABC6068091DDE
:105A900000F096FC206B854200D22563BDE8F081C2
:105AA00028000020B00B00202DE9F041054600F051
:105AB000ABFC2D4C2069401C206120682B4F10B19D
:105AC000E06930B32BE025602069012827D100264A
:105AD00006EB860007EB800000F064FC761C382E95
