:020000040800F2
:10000000400B002069020008611900081F16000853
:10001000F5160008B5090008691D00080000000079
:10002000000000000000000000000000A90100081E
:10003000B709000800000000050200086D1A00085A
:10004000830200088302000883020008830200087C
:10005000830200088302000883020008830200086C
:10006000830200088302000883020008830200085C
:10007000830200088302000883020008830200084C
:1000800083020008830200088302000800000000C9
:1000900000000000000000000000000083020008D3
:1000A00083020008391B000883020008830200084D
:1000B000830200088302000883020008830200080C
:1000C00083020008830200088302000883020008FC
:1000D0008302000883020008830200080000000079
:1000E0008302000883020008830200080000000069
:1000F0000000000000000000000000008302000873
:100100000000000083020008830200088302000848
:1001100000000000000000000000000000000000DF
:10012000830200088302000883020008830200089B
:100130008302000800000000000000000000000032
:100140000000000000000000000000008302000822
:10015000830200088302000883020008830200086B
:100160008302000883020008000000000000000075
:10017000000000000000000000000000000000007F
:1001800000000000830200080000000000000000E2
:1001900083020008DFF80CD000F0C4FB00480047E1
:1001A000A53E0008400B00202C4B19680868B0E8F9
:1001B000F04F80F30988BFF36F8F4FF0000080F39A
:1001C000118870470000000008480068006880F34C
:1001D00008884FF0000080F3148862B661B6BFF360
:1001E0004F8FBFF36F8F00DF00BF00BF08ED00E04F
:1001F000DFF80C00016841F470010160704700BF36
:1002000088ED00E0EFF30980BFF36F8F134B1A689E
:100210001EF0100F08BF20ED108A20E9F04F10608B
:1002200009B44FF0500080F31188BFF34F8FBFF334
:100230006F8F03F0FFFE4FF0000080F3118809BCC0
:1002400019680868B0E8F04F1EF0100F08BFB0EC56
:10025000108A80F30988BFF36F8F70471000002069
:10026000EFF30580704700000648804706480047C6
:10027000FEE7FEE7FEE7FEE7FEE7FEE7FEE7FEE756
:10028000FEE7FEE71D1B0008950100082DE9F05F61
:100290000546002092469B468846064681464024F5
:1002A0001BE0284641464746224600F052FA534694
:1002B0005A46C01A914110D311461846224600F002
:1002C00039FA2D1A67EB01084F462246012000211A
:1002D00000F030FA17EB00094E41201EA4F1010492
:1002E000DFDC484631462A464346BDE8F09F40EAF7
:1002F00001039B0703D009E008C9121F08C0042AA4
:10030000FAD203E011F8013B00F8013B521EF9D28A
:100310007047D2B201E000F8012B491EFBD27047B2
:100320000022F6E710B513460A4604461946FFF7C1
:10033000F0FF204610BD2DE9FE4F804681EA030004
:10034000C00F0C46009021F0004123F00045B8EBAF
:100350000200A94105D24046214690461C460B4664
:10036000024623F00040104347D0270DC7F30A0090
:10037000C3F30A510290401A019040286BDAC3F38C
:10038000130040F4801B0098924620B10023D2EB6A
:10039000030A63EB0B0B01985946C0F1400250462B
:1003A00000F0C8F906460D4650465946019A00F03D
:1003B000E0F910EB08006141002487EA115284EA59
:1003C000E7731A4340D0009A62B3019A012A4FEAB8
:1003D000075215DC001B61EB02014FF0004202EAFC
:1003E0000752CDE90042001C41F5801132462B46F0
:1003F00000F0E0F903B0BDE8F08F40462146F9E790
:10040000001B61EB0201001C41F5801300185B41E9
:100410002018A2F5001747EB030140EAD570B61982
:100420006D4111E06D084FEA360645EAC0754FEAA6
:100430000752001B61EB0201001C41F580114908C5
:100440004FEA30000019514132462B4603B0BDE857
:10045000F04F00F0A0B90098012240000023D0EB3B
:10046000020263EBE073009821464FEAE074B8EBB8
:10047000000061EB0401E9E783F000435BE781F0F2
:10048000004158E72DE9FE4F81EA030404F00044DF
:1004900021F0004100944FF0000B23F0004350EA9C
:1004A00001045ED052EA03045BD0C3F30A54C1F3E3
:1004B0000A552C44A4F2F3340194A0FB0254C1F376
:1004C000130141F48011C3F3130343F4801301FBC0
:1004D000024400FB034E840A970A44EA815447EA27
:1004E0008357A4FB076802958D0A05FB07854FEA31
:1004F000932C04FB0C542705029D4FEA065847EA4B
:100500001637B5EB08056EEB070C870E920E47EA1F
:10051000811742EA8312A7FB0201B6EB0B0164EBE1
:1005200000042B0D43EA0C335E1844EB1C50DA46F2
:100530005146E7FB0201C5F313044FEA0B3343EACC
:1005400014534FEA0432019C43EA0603A4F10C045D
:100550000294009CCDE900B400F02CF903B0BDE892
:10056000F08F00200146F9E72DE9F04D81EA030400
:1005700004F0004B21F0004514464FF0000A23F030
:10058000004150EA050220D054EA01021DD0C5F313
:100590000A570246C5F31303C1F31300C1F30A5609
:1005A00040F4801543F48013A7EB0608101BD646D1
:1005B00008F2FD3873EB050002D308F1010801E0F1
:1005C00092185B41B8F1000F03DA00200146BDE844
:1005D000F08D00204FF48011064684460EE0171B74
:1005E00073EB050705D3121B63EB050306434CEAC7
:1005F000010C49084FEA300092185B4150EA0107AC
:10060000EDD152EA030012D082EA040083EA050128
:10061000084305D0101BAB4106D20122002306E09F
:1006200000224FF0004302E06FF0010253101AEB7A
:1006300006004CEB085110EB0A0041EB0B01BDE842
:10064000F04D00F0A8B80EB5C10F80EAE070084484
:10065000CA07002140F233438DE80E000A460B46DC
:1006600000F0A8F803B000BD70B5C1F30A5201F064
:1006700000450024C1F3130140F2FF3341F480111F
:100680009A4201DA002070BD40F233439A42A2F24E
:10069000334203DC524200F05CF800E090402C430F
:1006A000F1D0404270BDC1F30A5210B5C1F313013D
:1006B00040F2FF3341F480119A4201DA002010BD6C
:1006C00040F233439A42A2F2334203DC524200F03A
:1006D00040F810BD904010BD30B5041E71F100040B
:1006E00004DB4FF00044404264EB0101141E73F13F
:1006F000000405DB1C464FF00043524263EB040349
:10070000994208BF904230BD30B50B4601460020EB
:100710002022012409E021FA02F59D4205D303FAC3
:1007200002F5491B04FA02F52844151EA2F1010244
:10073000F1DC30BD202A04DB203A00FA02F100206F
:1007400070479140C2F1200320FA03F3194390400F
:100750007047202A04DB203A21FA02F0002170477A
:1007600021FA02F3D040C2F1200291400843194619
:100770007047202A06DBCB17203A41FA02F043EA01
:10078000E07306E041FA02F3D040C2F1200291404A
:1007900008431946704710B5141E73F1000408DAB7
:1007A000401C41F1000192185B411A4301D120F035
:1007B000010010BD2DE9F04D92469B4611B1B1FAF2
:1007C00081F202E0B0FA80F220329046FFF7B2FFE9
:1007D00004460F4640EA0A0041EA0B0153465A46D6
:1007E000084313D0114653EA010019D0C8F1400262
:1007F0005046FFF7AEFF05460E4650465946424664
:10080000FFF798FF084305D0012004E02046394651
:10081000BDE8F08D0020054346EAE0762C433743DF
:100820000A986305E40AA0EB08000022FD0A44EAE6
:1008300047540A3002D500200146E9E701051019A6
:100840006941DDE9084500196941BDE8F04DA2E7BD
:100850002DE9F04D00231A461B1A8A4103DB0020C4
:100860000146BDE8F08DC1F30A52C1F3130141F412
:1008700080154FF0000BD10702D100186D41521EB8
:100880000027044640F2FF11384601EB620A3E465B
:100890008046024600204FF48011FFF75AFFC2192C
:1008A0007141BB1846EB0100B4EB030C75EB000C77
:1008B00004D3E41A65EB000517460E46241908F127
:1008C00001006D4180463428E3DDF91946EB06004E
:1008D000091BA84103D24FF0FF32134601E000226A
:1008E00013461BEB070046EB0A51BDE8F04DFFF73E
:1008F00052BFC1F30A52C1F3130140F2FF3341F476
:1009000080119A4202DA00200146704740F23343D8
:100910009A42A2F2334202DC5242FFF71ABFFFF7BB
:1009200009BF0000064C074D06E0E06840F00103F7
:1009300094E8070098471034AC42F6D3FFF72EFC3A
:1009400010440008304400080EB540F233410291D3
:100950000021CDE900110A460B46FFF72BFF03B03B
:1009600000BD00009FED0F1B10B553EC112B51EC97
:10097000100BFFF787FD9FED0D1B53EC112BFFF7BD
:10098000DAFCFFF771FE40F6C411884203DC4FF435
:10099000FA71884200DA0846FFF755FE41EC100B69
:1009A00010BD00008EE3388EE338264000000000C2
:1009B00000407F40FEE77047704700002DE9F84F88
:1009C00000224FF0010803254FF00F0E0B6808FAC4
:1009D00002F42340A34271D14E68012E05D0022EAD
:1009E00003D0112E01D0122E15D18668570005FABA
:1009F00007FC26EA0C06D1F80CC00CFA07FC4CEAFE
:100A0000060CC0F808C04668A6430C79C4F300146D
:100A1000944034434460C668570005FA07FC8C686C
:100A200026EA0C06BC403443C4604C68022C01D05A
:100A3000122C13D1D40800EB8404A346D4F82090E0
:100A400054074FEAD46A0EFA0AF629EA06090E6933
:100A500006FA0AF646EA0906CBF8206004680E7921
:100A600024EA0C0406F00306BE40264306604C68E8
:100A7000E40056D52E4C266846F48046266024684D
:100A800022F0030604F4804400942A4C3444A44623
:100A9000D4F808489607370F0EFA07F6B443264EE7
:100AA000B04201D1002615E0244EB04201D101260A
:100AB00010E0234EB04202D102260BE031E0214E7D
:100AC000B04201D1032605E01F4EB04201D10426F9
:100AD00000E00726BE402643CCF808681B4E346869
:100AE0004F689C43FF0300D51C433460174E361DEE
:100AF00034684F689C43BF0300D51C433460134ED9
:100B0000083634684F689C43FF0200D51C433460AC
:100B10000E4E0C3634684F689C43BF0200D51C4310
:100B20003460521C102AFFF451AFBDE8F88F00006A
:100B300044380240003001400000024000040240FE
:100B400000080240000C024000100240003C01403E
:100B5000014880687047000000000020024881685A
:100B60000278114481607047000000200B4810B5E6
:100B7000016841F400710160016841F48061016025
:100B8000016841F480710160032000F089F80020C1
:100B900000F006F800F03EF8002010BD003C0240D6
:100BA00010B5014688B00022192000F059F819202C
:100BB00000F048F813480024016841F00101016089
:100BC000006805A900F001000690684600F014F9DD
:100BD00000F042F90C490D4AB0FBF1F10C48491EF6
:100BE000026040F2E732C0E90324C0E9011400F0DA
:100BF00025FB10B1012008B010BD054800F03AFBFC
:100C0000F9E700004438024040420F000000014074
:100C1000A40100200A4808B5016841F48041016040
:100C2000006800F4804000900548001F016841F012
:100C300080510160006800F08050009008BD000005
:100C400044380240002809DB00F01F0201219140D6
:100C50004009800000F1E020C0F80011704700005A
:100C6000F0B40E4B1B680C46C3F30223C3F1070517
:100C7000042D00D90425191D072901D2002300E005
:100C8000DB1E012606FA05F1491E214099409E40CF
:100C9000761E16403143F0BC01F0A6B80CED00E022
:100CA000064900F0070208684FF6FF03184040EAC3
:100CB0000220034A10430860704700000CED00E07A
:100CC0000000FA052DE9F0470E46050065D0DFF873
:100CD0001481D8F80000F7B200F00F00B04207D23C
:100CE00088F80070D8F8000000F00F00B04254D12E
:100CF00028683D4C810712D5400703D5206840F491
:100D0000E05020602878000703D5206840F4604058
:100D100020602068A96820F0F0000843206028784F
:100D2000C0072DD0304968680839012812D0022840
:100D300013D0032811D00968890700292DDA21680A
:100D400021F0030101432160FFF702FF814641F2D8
:100D5000883A0EE009688903EFE709688901ECE742
:100D6000FFF7F6FEA0EB0901514502D90320BDE8CB
:100D7000F0872068696800F00C00B0EB810FEFD1BC
:100D8000D8F80010404601F00F01B14207D90770B2
:100D9000006800F00F00B04201D00120E7E728789A
:100DA000400705D52068E96820F4E050084320603A
:100DB0002878000706D52068296920F4604040EAB9
:100DC000C100206000F058F82168084AC1F30311FF
:100DD000515CC8400649086006480068FFF7E0FE1D
:100DE0000020C4E7003C024008380240A04100084F
:100DF0000C000020040000200F2202600C4A13683F
:100E000003F003034360136803F0F0038360136887
:100E100003F4E053C36012684FF4E05303EAD202D4
:100E200002610448006800F00F000860704700008D
:100E300008380240003C024004480549006809683F
:100E4000044AC1F38221515CC84070470C00002065
:100E500008380240B04100080448054900680968A4
:100E6000044AC1F34231515CC84070470C00002075
:100E700008380240B0410008154810B5006810F06D
:100E80000C02144813D01449042A0FD0082A0ED19A
:100E90000F4C241F2268236802F03F025B0207D533
:100EA0002068C0F38810A0FB010106E0084610BDD1
:100EB0002168C1F38811A1FB00010023FFF7E6F9C7
:100EC0002168C1F30141491C4900B0FBF1F010BD9C
:100ED000083802400024F40040787D012DE9F84FE5
:100EE00004006ED02078DFF83C93C007A9F1040518
:100EF0004AD009F104000168C1F38101012908D039
:100F00000068C0F3810002280AD1D9F8000040022D
:100F100006D52868800337D560680028E1D033E023
:100F20006068B0F5803F10D0B0F5A02F286810D0D1
:100F300020F480302860286820F4802028606068D1
:100F4000A8B1FFF705FE06460DE0286840F48030A2
:100F5000F4E740F480202860F7E700BFFFF7F8FDD2
:100F6000801B642873D828688003F7D50CE0FFF74E
:100F7000EFFD064605E000BFFFF7EAFD801B642891
:100F8000F0D828688003F7D42078DFF89C828007A7
:100F90004FF0000A3ED5A348001D016811F00C0F68
:100FA00008D00068C0F3810002280BD1D9F80000F6
:100FB000400207D42868800716D5E068012800D1D0
:100FC00012E02BE1E068B8B10120C8F80000FFF79B
:100FD000BFFD064605E000BFFFF7BAFD801B0228F3
:100FE000C0D828688007F7D52868216920F0F80064
:100FF00040EAC10028600DE0C8F800A0FFF7A8FD96
:10100000064604E0FFF7A4FD801B02281FD82868CD
:101010008007F7D42078000722D5824E8348616983
:10102000703671B101210160FFF792FD074604E0BF
:10103000FFF78EFDC01B022809D830688007F7D55E
:101040000EE0C0F800A0FFF783FD074605E082E050
:10105000FFF77EFDC01B02287DD830688007F7D4DB
:101060002078400768D5DFF8BCB100270BF13C0BB6
:10107000DBF80000C0000BD4DBF8001041F0805119
:10108000CBF80010DBF80000012700F08050009042
:10109000674E3068C00510D4306840F4807030600E
:1010A000FFF756FD009005E0FFF752FD0099401A4A
:1010B000022850D83068C005F6D55A4EA0686C3664
:1010C00001280FD00528306810D020F001003060D2
:1010D000306820F004003060A068B8B1FFF738FD38
:1010E00000900FE0306840F00100F4E740F00400A9
:1010F0003060F7E7FFF72CFD0099411A41F2883084
:10110000814266D830688007F4D50EE0FFF720FDF5
:10111000009007E0FFF71CFD0099411A41F288306A
:10112000814256D830688007F4D42FB1DBF8001024
:1011300021F08051CBF80010A069C8B33949091DCE
:101140000968C1F3810102294AD00228504607D01C
:10115000C8F8600000E03CE0FFF7FAFC04463BE022
:101160004746C8F86000FFF7F3FC064605E000BFFD
:10117000FFF7EEFC801B02282BD828688001F7D4EB
:10118000D4E907010843A16A2A4A490802EB014150
:10119000626A41EA8211084394F82C1040EA016126
:1011A000C9F8001001203866FFF7D2FC044606E0BB
:1011B00036E000BFFFF7CCFC001B022809D82868E6
:1011C0008001F7D52CE000BFFFF7C2FC001B02280E
:1011D00002D90320BDE8F88F28688001F4D41FE00D
:1011E0000128F7D0D9F80000E26900F480019142AB
:1011F00014D1226A00F03F0191420FD147F6C0712D
:10120000626A0140914209D1A26A00F440319142E0
:1012100004D1E16A00F07060884201D00120D9E772
:101220000020D7E70438024000004742800E4742C2
:10123000007000400000FFFF7047704710B50400C9
:1012400003D094F83D0010B107E0012010BD00204C
:1012500084F83C00204600F00CF8022084F83D00A1
:10126000211D206800F06EFC012084F83D00002064
:1012700010BD70470168CA6842F00102CA60006888
:10128000816801F00701062903D0016841F00101DE
:10129000016000207047704770B50446006801691E
:1012A0004FF00005C943890715D4C168C9438907B0
:1012B00011D4E91E01610120207720688069800730
:1012C000204602D0FFF7E7FF04E000F098F8204640
:1012D00000F096F8257720680169C943490717D4BB
:1012E000C168C943490713D46FF0040101610220AA
:1012F00020772068806910F4407F204602D0FFF7F5
:10130000CAFF04E000F07BF8204600F079F825776A
:1013100020680169C943090716D4C168C943090790
:1013200012D46FF008010161042020772068C069A1
:101330008007204602D0FFF7AEFF04E000F05FF820
:10134000204600F05DF8257720680169C943C90689
:1013500017D4C168C943C90613D46FF010010161E5
:10136000082020772068C06910F4407F204602D012
:10137000FFF791FF04E000F042F8204600F040F84B
:10138000257720680169C943C90708D1C168C943E5
:10139000C90704D1891E0161204600F033F8206896
:1013A0000169C943090609D4C168C943090605D4BE
:1013B0006FF0800101612046FFF73EFF2068016960
:1013C000C943490609D4C168C943490605D46FF029
:1013D00040010161204600F01FF820680169C943FF
:1013E00089060BD4C168C943890607D46FF0200170
:1013F00001612046BDE87040FFF71FBF70BD704718
:101400007047000000680349884201D1FFF7A6BB7E
:101410007047000000000140704770B5040004D020
:1014200094F83900002510B106E0012070BD84F861
:101430003850204600F022F8242084F83900206833
:10144000C16821F40051C160204600F0C7FB20684C
:10145000016921F4904101612068416921F02A016C
:1014600041612068C16841F40051C160E5632020FA
:1014700084F8390084F83A00002070BDF0B587B0D8
:10148000044614216846FEF74BFF3249DFF8C0C01E
:10149000276800222F4B14390224032507262E48E3
:1014A000674517D11F6847F010071F601B6803F0DE
:1014B000100305930B6843F001030B60096802AF4A
:1014C00001F0010105916902CDE9001487E864008B
:1014D00069461CE0DFF884C067451CD11D4B1B1F0B
:1014E0001F6847F400371F601B6803F4003305933F
:1014F0000B6843F001030B60096802AB01F00101C6
:1015000005910C21CDE9001483E864006946FFF7DA
:1015100055FA07B0F0BD124EB742FAD11E6846F038
:1015200020061E601B6803F0200305930B6843F040
:1015300001030B600968029201F0010105914FF46B
:10154000C051CDE900140821CDE903516946DEE719
:1015500000100140443802400000024000440040B6
:10156000001401402DE9F843044690F839001F4665
:1015700016460D46202850D1B5B1AEB194F83800CA
:1015800001284AD0012084F838004FF00008C4F840
:101590003C80212084F83900FFF7DAFAA6848146DE
:1015A000E68484F8388026E00120BDE8F883E08CEA
:1015B000401EE084A0684B46B0F5805F4FF000020B
:1015C0004FF080012046009703D000F09BFBE8B964
:1015D0000DE000F097FBC8B928882168C0F3080027
:1015E0004860206908B16D1C05E0AD1C03E021686E
:1015F00015F8010B4860E08C0028D8D14B4600223A
:1016000040212046009700F07DFB08B10320CCE785
:10161000202084F839000020C7E70220C5E7FEE754
:10162000094808B5016841F080010160016801F0D6
:1016300080010091016841F001010160006800F043
:101640000100009008BD0000303802400C4810B581
:101650000A4901604FF4E1314160002181600C22B0
:10166000C160C0E904128161C161FFF7D6FE0028A4
:1016700003D0BDE81040FFF79FB910BD0010014036
:10168000E40000200C4810B50A4901604FF4E13134
:101690004160002181600C22C160C0E904128161B7
:1016A000C161FFF7BAFE002803D0BDE81040FFF784
:1016B00083B910BD00440040240100200C4810B53F
:1016C0000A4901604FF416514160002181600C22EB
:1016D000C160C0E904128161C161FFF79EFE00286C
:1016E00003D0BDE81040FFF767B910BD00140140FA
:1016F00064010020FEE700002DE9F04107462DEDD2
:10170000028B15460E464FF4C36000F02FFB95ED9B
:10171000001B51EC100B53EC112BFEF7ADFE41EC0E
:10172000100BFFF71FF951EC100BFEF7BCFF894CB3
:10173000608040F2A25000F019FB95ED021B51ECC5
:10174000100B53EC112BFEF7F6FD41EC100BFFF7DD
:1017500009F951EC100BFEF7A6FFE08140F2C450EE
:1017600000F004FB95ED041B51EC100B53EC112B16
:10177000FEF782FE41EC100BFFF7F4F851EC100B72
:10178000FEF791FF60834FF4B56000F0EFFA95ED3E
:10179000061B51EC100B53EC112BFEF7CCFD41EC6A
:1017A000100BFFF7DFF851EC100BFEF77CFFE08425
:1017B00040F2745000F0DAFA9FED678B51EC100B99
:1017C00053EC182BFEF758FE97ED001B53EC112B32
:1017D000FEF7B1FD41EC100BFFF7C4F851EC100B14
:1017E000FEF761FFE08040F2DC55284600F0BEFACB
:1017F00053EC182B51EC100BFEF79DFD96ED001BE2
:1018000053EC112BFEF738FE41EC100BFFF7AAF852
:1018100051EC100BFEF747FF608140F2E65000F0FC
:10182000A5FA53EC182B51EC100BFEF784FD97ED45
:10183000021B53EC112BFEF71FFE41EC100BFFF7C0
:1018400091F851EC100BFEF72EFF6082284600F055
:101850008DFA53EC182B51EC100BFEF70DFE96EDA4
:10186000021B53EC112BFEF766FD41EC100BFFF74A
:1018700079F851EC100BFEF716FFE0824FF4AF60E1
:1018800000F074FA53EC182B51EC100BFEF753FDDB
:1018900097ED041B53EC112BFEF7EEFD41EC100B02
:1018A000FFF760F851EC100BFEF7FDFEE0832846D1
:1018B00000F05CFA53EC182B51EC100BFEF7DCFD3A
:1018C00096ED041B53EC112BFEF735FD41EC100B8C
:1018D000FFF748F851EC100BFEF7E5FE60844FF47B
:1018E000B96000F043FA53EC182B51EC100BFEF7E3
:1018F000C3FD97ED061B53EC112BFEF71CFD41ECCD
:10190000100BFFF72FF851EC100BFEF7CCFE6085A3
:10191000284600F02BFA53EC182B51EC100BFEF775
:101920000AFD96ED061B53EC112BFEF7A5FD41ECCD
:10193000100BFFF717F851EC100BFEF7B4FEE08523
:101940002046BDEC028B0122BDE8F0410C2102F0E3
:10195000CFBA0000E80100200000000000805640DF
:10196000704700000E480A2101700C2101710D2101
:1019700001720B2101730E2101740F2101750421E5
:10198000017601210177002180F82010052180F8DF
:101990002410032180F82810022180F82C107047B1
:1019A000E801002010B52DED068BB0EE409AF0EE68
:1019B000609A00F055FF9FED238B51EC100B53EC18
:1019C000182BFEF75FFD9FED211B53EC112BFEF74B
:1019D00056FD41EC100B53EC102BFEF753FD9FED21
:1019E0001D1B53EC112BFEF74AFD41EC100B00F0D0
:1019F0009BFFB0EE40AAF0EE60AAB0EE490AF0EE0E
:101A0000690A00F0C9FE53EC182B51EC100BFEF7DD
:101A100039FD9FED121B53EC112BFEF72DFD53ECFE
:101A20001A2BFEF788FC9FED0F1B53EC112BFEF7D2
:101A30009BFDBDEC068B41EC100BBDE8104000F0A7
:101A4000E3B9000000000000000044400000000076
:101A500000804340000000000024B340000000006C
:101A600000405040000000000000394010B55020F8
:101A700080F31188BFF34F8FBFF36F8F02F00CFB21
:101A800018B104494FF080500860002080F311889D
:101A900010BD000004ED00E030B593B03021684681
:101AA000FEF73EFC14210CA8FEF73AFC194800256D
:101AB000016841F080510160006800F08050119091
:101AC0001548016821F4404141F40041016000687B
:101AD000022400F440401190012000900004019085
:101AE0008001CDE9064019200890A820CDE909041D
:101AF00004200B906846FFF7F1F90CA90F2081E84C
:101B00003100E002CDE90F0502210CA8FFF7DAF859
:101B100013B030BD403802400070004005480168F5
:101B200041F47001016003494FF0006080390860A2
:101B30007047000088ED00E00148FFF7ADBB0000F2
:101B4000A4010020F0B502681D4B1E4C9F031E4DE2
:101B50001E4E984207D0B84205D0A04203D0A842FA
:101B600001D0B04204D122F0700C4A6842EA0C0263
:101B7000984210D0B8420ED0A0420CD0A8420AD051
:101B8000B04208D0124CA04205D0124CA04202D064
:101B9000114CA04203D122F44074CA6822434C691C
:101BA00022F08002224302608A68C2620A6882626E
:101BB000984201D10969016301214161F0BD000032
:101BC000000001400004004000080040000C0040FC
:101BD0000040014000440140004801402DE9F0412F
:101BE000044600680169E26821F440511143016133
:101BF0002169A068E26908436169114308432168CB
:101C0000CA6849F20C639A430243CA60206841697A
:101C1000A26921F4407111434161E06919276425EB
:101C20003226B0F5004F354A354920684FF000089C
:101C300006D0884201D0904236D1FFF70DF935E049
:101C4000884201D0904202D1FFF706F901E0FFF788
:101C5000F3F861684A18A0FB070148EB0803FEF798
:101C600015FB0146B0FBF5F00201B1FBF5F06FF09A
:101C70001803584301EB800006EBC000B0FBF5F001
:101C800000F0F80002EB4002B1FBF5F0584301EB25
:101C9000800006EBC000B0FBF5F000F00700216803
:101CA00010448860BDE8F081FFF7C6F861688B0FCB
:101CB0008A00A0FB0701FEF7E9FA0146B0FBF5F048
:101CC0006FF01802504301EB800006EB0010B0FBF0
:101CD000F5F000F0F002B1FBF5F002EB0012B1FB01
:101CE000F5F06FF01803584301EB800006EB00108D
:101CF000B0FBF5F000F00F00D1E700000014014048
:101D0000001001402DE9F041984617460E46044662
:101D1000069D1DE0681C1BD02DB1FEF719FFA0EB3E
:101D20000800A84214D92068C16821F4D071C160AC
:101D30002068416921F001014161202084F83900C7
:101D400084F83A00002084F838000320BDE8F081D0
:101D50002068006836EA000004D00020B842D9D0DC
:101D60000020F3E70120F9E7FEE7000010B5A0F539
:101D7000FA70FEF768FC9FED061B53EC112BFEF783
:101D800081FBFEF771FCFEF75EFC41EC100B10BD11
:101D90000AD7A3703D0AB73F0FB4054B10B503A98E
:101DA000044A029801F0ECFA10BC5DF814FB000044
:101DB000C93A00084C00002003B401984100009883
:101DC00050EAC12018BF04204A0D18BF40F001009E
:101DD00040F2FF72B2EB515F08BF40F002000128F1
:101DE00008BF052002B070470907090E002804DB70
:101DF00000F1E02080F80014704700F00F0000F1BF
:101E0000E02080F8141D704710B5B94A2DED020B83
:101E10002DED0C8B82B00F9921F000409FEDB6CBD9
:101E200090422CDBA0F140530E9AA3F17F631A433A
:101E30000FD0B349884202DC16D10E98A0B19DEDB7
:101E40000E0B02B0BDEC0C8B02B0BDE8104001F0EF
:101E500093B90029C1BF9FEDAC0B02B0BDEC0C8B58
:101E600002B0C8BF10BD16E0012001F0C1F902B0F8
:101E7000BDEC0C8B02B0BDE8104001F089B9A44A5A
:101E80009FEDA59B9FEDA6AB90425EDAA6499FED24
:101E9000A8CB814208DBB0EE4C0AF0EE6C0A02B02F
:101EA000BDEC0C8B02B010BD9DED0E0B53EC102B56
:101EB00051EC100BFEF7E6FA41EC180B9E48062198
:101EC000B0EE480AF0EE680A784401F041F853ECAD
:101ED000182B51EC100BFEF7D5FA41EC1B0B974871
:101EE000B0EE480AF0EE680A0421784401F030F8B8
:101EF00053EC182B51EC100BFEF7C4FA53EC192BD2
:101F0000FEF719FA41EC100B51EC1B0B53EC102BA4
:101F1000FEF72AFB41EC100B53EC102B9DED0E0B42
:101F200051EC100BFEF7AEFA53EC1A2BFEF7A7FAA2
:101F30009DED0E1B53EC112BFEF7A1FA53EC1C2B5D
:101F4000FEF79DFA41EC100BA9E79FED7D8B9FED0D
:101F50007EBB9DED0E0B002953EC192B51EC100BA1
:101F600052DAFEF7E8F953EC182BFEF78BFA41EC46
:101F7000180B77480621B0EE480AF0EE680A78445C
:101F800000F0E6FF53EC182B51EC100BFEF77AFA39
:101F900041EC1D0B6F48B0EE480AF0EE680A0421D0
:101FA000784400F0D5FF53EC182B51EC100BFEF7E2
:101FB00069FA53EC192BFEF7BEF941EC190B51EC01
:101FC000180B01F0E1FF41EC180B53EC192B51EC0D
:101FD0001D0BFEF7C9FA53EC182BFEF753FA53EC1E
:101FE0001A2BFEF749FA41EC100B51EC180B53EC8D
:101FF000102BFEF7A0F953EC1B2BFEF743FA53EC22
:102000001C2BFEF73CFA6DE0FEF739FA53EC182B67
:10201000FEF738FA41EC180B01F0B6FF41EC1A0B51
:1020200000208DED00AB00909DED000B51EC1A0BE4
:1020300053EC102BFEF77FF99DED000B41EC1C0BD0
:1020400053EC102B51EC100BFEF71CFA53EC182B31
:10205000FEF715FA53EC1C2BFEF786FA41EC1C0B2D
:102060003D48B0EE480AF0EE680A0621784400F0D8
:102070006FFF53EC182B51EC100BFEF703FA41ECF9
:102080001D0B3648B0EE480AF0EE680A0421784489
:1020900000F05EFF53EC182B51EC100BFEF7F2F939
:1020A00053EC192BFEF747F941EC100B51EC1D0BCB
:1020B00053EC102BFEF758FA53EC1A2BFEF7E2F90B
:1020C00053EC1C2BFEF737F941EC100B53EC102BA3
:1020D0009DED000B51EC100BFEF72DF953EC1B2B73
:1020E000FEF7D0F941EC100BD9E60000000000002B
:1020F0000000F03F00000000182D4454FB2109406F
:102100000000F07F00000000000000000000000060
:102110000000E03F00000000000000000000F03F71
:10212000075C143326A6913C0000603C00000000D0
:10213000182D4454FB21F93FEC220000FA22000044
:10214000000000000000E03F000000000000004030
:1021500036220000442200004821000056210000E1
:1021600070B5C1482DED020B2DED0E8B82B0119D87
:1021700025F000449FEDBEDB9FEDBFEB84423EDBCC
:10218000A4F140511098A1F17F6108430FD0BC48E1
:10219000844202DC28D1109830B39DED100B02B0C0
:1021A000BDEC0E8B02B0BDE8704000F0E5BF9DEDC8
:1021B000100B53EC1D2B51EC100BFEF763F99DED4A
:1021C000100B41EC180B53EC1E2B51EC100BFEF7CF
:1021D00059F953EC182BFEF7AEF841EC100B02B096
:1021E000BDEC0E8B02B070BD012001F001F802B011
:1021F000BDEC0E8B02B0BDE8704000F0C9BFA14835
:102200009FEDA18B844256DA9DED100BB4F1795FFE
:102210000ADA51EC100BFFF7CFFD042808BF00F0DD
:10222000C7FF9DED100BDAE753EC102B51EC100BB0
:10223000FEF728F941EC190B95480621B0EE490A42
:10224000F0EE690A784400F083FE53EC192B51EC50
:10225000100BFEF717F941EC1A0B8E48B0EE490A45
:10226000F0EE690A0421784400F072FE53EC192B59
:1022700051EC100BFEF706F953EC182BFEF75BF848
:1022800041EC100B51EC1A0B53EC102BFEF76CF9D0
:10229000CDE900019DED000B53EC102B9DED100BD3
:1022A00051EC100BFEF7EEF89DED101B53EC112BCB
:1022B000FEF741F8D2E09DED100B51EC100B01F050
:1022C000F6FB53EC182BFEF7DAF89FED730BCDE914
:1022D000000153EC102B9DED000B51EC100BFEF7A1
:1022E000D1F841EC190B6E480621B0EE490AF0EE28
:1022F000690A784400F02CFE53EC192B51EC100BBA
:10230000FEF7C0F841EC1B0B6648B0EE490AF0EE50
:10231000690A0421784400F01BFE53EC192B51ECA0
:10232000100BFEF7AFF853EC182BFEF704F841EC56
:102330001C0B51EC190B01F027FE41EC180B5A480D
:102340009FED5BABA04222DC53EC1C2B51EC1B0B32
:10235000FEF70AF9CDE900019DED000B51EC180BD9
:1023600053EC102BFEF78EF853EC182BFDF7E3FF20
:1023700053EC1A2BFEF786F853EC1D2BFEF77CF876
:1023800053EC1E2BFEF77BF841EC100B5FE08DED5C
:10239000008B002000909DED000B51EC180B53ECCE
:1023A000102BFDF7C8FF9DED000B41EC1E0B53EC0D
:1023B000102B51EC100BFEF765F853EC192BFEF7C0
:1023C0005EF853EC1E2BFEF7CFF841EC190B53ECE3
:1023D0001C2B51EC1B0BFEF7C7F841EC1B0B53EC0D
:1023E0001A2B51EC190BFEF74DF853EC1D2BFEF791
:1023F00046F841EC190B53EC1A2B51EC180BFEF775
:1024000041F853EC1B2BFEF73DF853EC192BFEF76C
:1024100033F89DED000B41EC180B53EC1A2B51ECEB
:10242000100BFEF72FF89FED249B53EC192BFEF7B2
:1024300026F841EC100B51EC180B53EC102BFEF767
:102440001BF853EC192BFEF71AF841EC100B002D7A
:102450003FF7C5AE51EC100B81F0004141EC100B81
:10246000BDE60000000000000000F03F000000009A
:10247000075C143326A6913C182D4454FB21F93FE8
:102480000000F07F0000E03F000000000000F03F8F
:10249000C01F0000CE1F0000000000000000E03F51
:1024A000121F0000201F00003333EF3F0000000028
:1024B0000000000000000040182D4454FB21E93FBB
:1024C00070B59B482DED020B2DED068B079D25F079
:1024D0000044A04218DC9748844202DC0AD10698E6
:1024E00040B19DED060BBDEC068B02B0BDE870401F
:1024F00000F042BE002DCCBF9FED8F0B9FED900BE7
:10250000BDEC068B02B070BD8F48A04215DD8F4830
:10251000A042D8BF4FF0FF3458DD9DED060B51ECC3
:10252000100BFFF749FC042808BF00F041FE9DEDA9
:10253000060BBDEC068B02B070BD9DED060B51EC99
:10254000100B01F0B4FACDE9060181489FED828BB2
:10255000A0423CDD8248A0421FDD00249FED82ABFB
:102560009DED060B53EC1A2B51EC100BFDF7E3FE1F
:102570009DED060B41EC190B53EC1A2B51EC100B93
:10258000FDF780FF53EC182BFDF776FF53EC192B6A
:10259000FDF7EAFFCDE9060149E09DED060B0124B8
:1025A00053EC182B51EC100BFDF7C5FE9DED060BFF
:1025B00041EC190B53EC182B51EC100BFDF75CFFA1
:1025C00053EC192BFDF7D0FFCDE906012FE0684849
:1025D000A0421FDD02249FED689B9DED060B53EC8E
:1025E000192B51EC100BFDF74DFF53EC182BFDF799
:1025F000A2FE9DED060B41EC180B53EC192B51EC90
:10260000100BFDF739FF53EC182BFDF7ADFFCDE9AB
:1026100006010CE09DED060B032453EC102B9FEDFF
:10262000580B51EC100BFDF79FFFCDE906019DED16
:10263000060B53EC102B51EC100BFDF723FF41EC74
:10264000180B53EC182BFDF71DFF41EC190B4E48EE
:102650000621B0EE490AF0EE690A784400F078FCF1
:1026600053EC182B51EC100BFDF70CFF41EC180B41
:102670004648B0EE490AF0EE690A0521784400F0B8
:1026800067FC53EC192B51EC100BFDF7FBFE41ECF2
:10269000100B51EC180B53EC102B002C0EDAFDF73D
:1026A0004AFE9DED061B53EC112BFDF7EBFE9DED55
:1026B000061B53EC112BFDF7E2FE35E0FDF73BFE68
:1026C0009DED061B53EC112BFDF7DCFE41EC100BCE
:1026D0002F48784400EBC40090ED001B51EC100B28
:1026E00053EC112BFDF7C8FE9DED061B53EC112B8F
:1026F000FDF7C2FE41EC100B2648784400EBC40005
:1027000090ED001B51EC100B53EC112BFDF7B7FEB5
:1027100041EC100B002DA2BFBDEC068B02B070BDCA
:1027200051EC100B81F0004141EC100B01E700006F
:10273000000010440000F07F182D4454FB21F93FA5
:10274000182D4454FB21F9BF0000DC3F0000203E5F
:102750000000F33F00000000000000000000F03F18
:102760000000E63F00000000000000000000004004
:102770000080034000000000000000000000F83F5F
:10278000000000000000F0BF621C0000181C0000E8
:10279000A21B00005A1B000010B52F499FED2C1BF7
:1027A0002DED020B84B0059820F000408842D8BF80
:1027B0009DED040B2DDD2949884209D1049840B9CB
:1027C0004FF0010000F014FD00F0E2FC06B010BD77
:1027D00005DB9DED040B00F0CFFC06B010BD684694
:1027E0009DED040B00F0E0F810F0030004BF9DED38
:1027F000021B9DED000B0CD001280ED09DED021B9D
:102800009DED000B022817D0012000F01DFC06B042
:1028100010BD00F0E5FA06B010BD9DED021B9DED68
:10282000000B012000F010FC51EC100B81F0004176
:1028300006B041EC100B10BD00F0D2FA51EC100BB9
:1028400081F0004106B041EC100B10BD000000000B
:102850000000000000000000FB21E93F0000F07FC5
:1028600010B52F499FED2C1B2DED020B84B0059860
:1028700020F000408842DCBF00209DED040B32DDDB
:102880002849884209D1049840B94FF0010000F06E
:10289000AFFC00F07DFC06B010BD05DB9DED040B28
:1028A00000F06AFC06B010BD68469DED040B00F018
:1028B0007BF810F0030011D0012818D09DED021B09
:1028C0009DED000B02281AD000F08AFA51EC100B93
:1028D00081F0004106B041EC100B10BD9DED021BD4
:1028E0009DED000B012000F0AFFB06B010BD9DED8B
:1028F000021B9DED000B00F073FA06B010BD012025
:1029000000F0A2FB51EC100B81F0004106B041EC4D
:10291000100B10BD000000000000000000000000CF
:10292000FB21E93F0000F07F00B52DED048BB0EEF8
:10293000409AF0EE609A83B051EC190BFDF788FFD6
:1029400041EC180B18EE100A18EE901A8DED008B62
:10295000002818BF0120084320F00040C0F17F602C
:1029600000F1E040C00F14D019EE101A19EE900AD1
:102970008DED009B002918BF0121084320F0004085
:10298000C0F17F6000F1E040C00F04BF012000F003
:102990002FFCB0EE480A03B0F0EE680ABDEC048BE1
:1029A00000BD0000000000002DE9F14F04462DEDB0
:1029B000020B2DED088B8AB09FEDE70B80ED020B2B
:1029C000139EE74826F0004585420ADC9DED120B78
:1029D000002084ED000B0AB0BDEC088B03B0BDE80D
:1029E000F08FE0489FEDE0AB9FEDE1BBA84247DDF3
:1029F000E14F9FEDE39B9FEDE48B9DED120B53ECBC
:102A00001A2B51EC100B002E1CDDFDF735FD41ECAF
:102A1000100BBD4208D053EC1B2B51EC100BFDF7F3
:102A20002BFDC4E900010BE053EC192B51EC100B0A
:102A3000FDF722FD53EC182BFDF71EFDC4E9000144
:102A40000120C8E7FDF777FC41EC100BBD4208D030
:102A500053EC1B2B51EC100BFDF76DFCC4E900018E
:102A60000BE053EC192B51EC100BFDF764FC53EC0D
:102A7000182BFDF760FCC4E900014FF0FF30AAE716
:102A8000C348A84279DB9DED120B51EC100B01F00D
:102A90000EF841EC180B9FEDC00B53EC102BFDF71B
:102AA000F1FC9FEDBF1B53EC112BFDF744FCFDF730
:102AB000DBFD0746FDF7C7FD41EC190B53EC1A2B64
:102AC000FDF7E0FC53EC182BFDF7D9FC41EC180B9B
:102AD00053EC1B2B51EC190BFDF7D4FCDFF8C8A20B
:102AE00041EC100B4FEA15580125FA4453EC102B1A
:102AF00051EC180BFDF7C0FC032DC4E900013DD0DB
:102B0000C1F30A5005EB4511A8EB000011398142D1
:102B100034DA0AEB051BB0EE48AA9BED000BF0EE91
:102B200068AA53EC102B51EC190BFDF7ABFC41ECF0
:102B30001B0B51EC1A0B53EC1B2BFDF79DFC41ECCE
:102B4000180B51EC1A0B53EC182BFDF795FC53ECBA
:102B50001B2BFDF791FC9BED020B41EC1A0B53EC88
:102B6000102B51EC190BFDF78DFC53EC1A2BFDF7D4
:102B700083FC41EC100B6D1CB8E70EE0002EA8BFE3
:102B80003846BFF628AF94ED000B51EC100B81F0E6
:102B90000041C4E9000178421DE7C6F3130040F488
:102BA000801EC6F30A50A0F2F530471100F01F0551
:102BB000C5F12000DDF848B008900020069007908D
:102BC0000520EC467949002D07EB0002794408BF47
:102BD00051F8221009D051F8223001EB8201AB40AC
:102BE0004A68089922FA01F11943A1FB0E26A1FBBC
:102BF0000B131A449A4234BF0123002303EB060847
:102C00000CEB8003D3E901A60E448E4234BF0121B0
:102C1000002192448A4411B1924502D903E09245C1
:102C200001D2012100E00021C3E901A641444CF892
:102C30002010011EA0F10100C4DC029800F1005038
:102C4000850F0298DDE903678000DDF81480FDF749
:102C5000FAFC41EC1A0B3046FDF776FE9FED541B53
:102C600053EC112BFDF70EFC41EC1B0B3846FDF726
:102C70006BFE9FED511B53EC112BFDF703FC41EC58
:102C8000180B4046FDF760FE9FED4D1B53EC112BDA
:102C9000FDF7F8FB41EC190B51EC180B53EC192B19
:102CA000FDF749FB53EC1B2BFDF745FB53EC1A2BAF
:102CB000FDF741FBCDE90801002008909DED080BD0
:102CC00053EC1A2B51EC100BFDF7D6FB53EC1B2BDE
:102CD000FDF7D2FB53EC182BFDF7CEFB53EC192B71
:102CE000FDF7CDFB9FED381B53EC112BFDF7CAFB15
:102CF0009FED370B41EC180B53EC102B9DED080B9F
:102D000051EC100BFDF7BEFB53EC182BFDF713FB3A
:102D10009FED310B41EC180B53EC102B9DED080B84
:102D200051EC100BFDF7AEFB53EC182BFDF703FB3A
:102D300041EC100B139810F0004F06D06D4251EC8F
:102D4000100B81F0004141EC100B284684ED000B84
:102D500041E600000000000000000000000000004C
:102D6000FB21E93F7CD9024000004054FB21F93FA0
:102D70003163621A61B4D03DFB21F93F00000000CD
:102D80000000601A61B4D03D7370032E8A19A33B12
:102D9000FB2139410000000083C8C96D305FE43F6A
:102DA000000000000000E03F321800008017000023
:102DB000000000000000103E000000000000103C79
:102DC000000000000000103A182D4454FB21F93D8A
:102DD0003326A611460B113C00000054FB21F93D9F
:102DE00010B52DED040B2DED088B82B0B0EE419A9D
:102DF000F0EE619A0B9820F000449FED4BABB4F1DC
:102E0000795F11DA9DED0A0B51EC100BFDF72CFCEC
:102E1000002801BFB0EE4A0AF0EE6A0A02B0BDEC2B
:102E2000088B04BF04B010BD9DED0A0B53EC102BB2
:102E300051EC100BFDF726FB41EC180B3C4806212A
:102E4000B0EE480AF0EE680A784400F081F853ECDE
:102E5000182B51EC100BFDF715FB9DED0A0B41EC07
:102E60001B0B53EC192B51EC100BFDF70BFB41EC3A
:102E7000190B53EC1B2B51EC180BFDF703FB53EC18
:102E8000192BFDF7F9FA9FED2C0B41EC190B53ECC4
:102E9000102B51EC180BFDF7F5FA41EC100B2848FC
:102EA000844210DA53EC192B51EC100BFDF7E4FAC5
:102EB00053EC1A2BFDF7E3FA41EC100B02B0BDEC1A
:102EC000088B04B010BD1F48A042BCBF9FED1E1B65
:102ED0008DED001B06DBA4F5001001900020009092
:102EE0009DED001B51EC100B53EC112BFDF7C4FAB8
:102EF0009DED000B41EC180B53EC102B51EC1A0B11
:102F0000FDF7BAFA41EC1A0B53EC192B51EC180BE4
:102F1000FDF7B2FA53EC1A2BFDF7B1FA41EC100BA6
:102F2000CCE7000000000000000000000000F03FBF
:102F3000A414000000000000000000000000E03FBA
:102F40003333D33F0000E93F000000000000D23FD0
:102F500070B504462DED028B4D1E00EBC500B0EEA2
:102F6000408AF0EE608A90ED000B35F0060017D035
:102F700053EC182B51EC100BFDF784FA41EC100BBD
:102F80006D1E04EBC50090ED001B51EC100B53ECD3
:102F9000112BFDF7D0F941EC100B35F00600E7D10D
:102FA000022D36D0042D1CD0062D1CBFBDEC028B8B
:102FB00070BD53EC182B51EC100BFDF763FA94ED38
:102FC0000A1B53EC112BFDF7B6F953EC182BFDF748
:102FD00059FA94ED081B53EC112BFDF7ACF941ECB9
:102FE000100B53EC182B51EC100BFDF74BFA94ED32
:102FF000061B53EC112BFDF79EF953EC182BFDF734
:1030000041FA94ED040B53EC102BFDF794F941ECCD
:10301000100B53EC182B51EC100BFDF733FA94ED19
:10302000021B53EC112BFDF786F953EC182BFDF71F
:1030300029FA94ED001B53EC112BFDF77CF9BDEC44
:10304000028B41EC100B70BD31B504462DED040B25
:103050002DED0A8BB0EE41BAF0EE61BA0B989DED02
:103060000A0B20F00040B0F1795F0DDA51EC100B43
:10307000FEF7A2FE042808BF00F09AF89DED0A0BA7
:10308000BDEC0A8B05B030BD53EC102B51EC100B8E
:10309000FDF7F8F941EC180B9DED0A0B53EC182BDA
:1030A00051EC100BFDF7EEF941EC190B2C48B0EE8A
:1030B000480AF0EE680A05217844FFF749FF9FEDC2
:1030C0002ACBB0EE40AAF0EE60AA9CB353EC1C2BC6
:1030D00051EC190BFDF7D6F941EC1C0B53EC1A2BF4
:1030E00051EC190BFDF7CEF99FED210B41EC190BBB
:1030F00053EC102B51EC1B0BFDF7C4F953EC192BBF
:10310000FDF7BAF953EC182BFDF7BCF953EC1B2B68
:10311000FDF7B2F953EC1C2BFDF7AEF99DED0A1B40
:1031200053EC112BFDF7ABF9BDEC0A8B05B041EC6C
:10313000100B30BDFFE753EC1A2B51EC180BFDF7C9
:10314000A1F953EC1C2BFDF7F6F853EC192BFDF706
:1031500099F99DED0A1B53EC112BFDF7ECF8E3E711
:103160002C13000000000000495555555555C5BFAA
:10317000000000000000E03F10B553EC102B51ECB4
:10318000100BFDF7D8F841EC100B10BD000000004B
:103190009FED050B10B553EC102B51EC100BFDF708
:1031A000E3F941EC100B10BD00000000000000002E
:1031B0009FED050B10B553EC102B51EC100BFDF7E8
:1031C00061F941EC100B10BD000000000000001080
:1031D00002E008C8121F08C1002AFAD170477047E0
:1031E000002001E001C1121F002AFBD1704700003E
:1031F0000149086070470000500000202DE9FF5F82
:1032000082B00021DDE90430020DDDF840B0034357
:1032100018D044F61050A2F2FF3242431514119810
:1032200001281FD0A5EB0B00401C5FEA000A4FF0FD
:1032300000064E4FDFF83891B046504615D5CAF11A
:10324000000413E0119801244AA3012801D16FEA78
:103250000B010298119AC0E90031C0E9024206B0A0
:10326000BDE8F09FCBF10000DFE704460021404AB3
:10327000491842EB0450CDE9001012E0E00707D0F6
:1032800032463B4640464946FDF7FCF880468946B3
:1032900032463B4610461946FDF7F4F806460F46FF
:1032A0006410002CEAD1DDE90401DDE90023BAF164
:1032B000000F06DAFDF7E6F842464B46FDF7E2F866
:1032C00005E0FDF751F942464B46FDF74DF904463E
:1032D0000E460022284BFDF7FFF903D84FF0FF30D0
:1032E000014607E00022254B20463146FDF723F832
:1032F000FDF7FFFA102409E0002C0ADB0A22002364
:10330000FCF7C4FF039B30321A55641E50EA0102D9
:10331000F2D1641C039AC4F111031444119A012AD6
:1033200003D0012208430DD10AE0084304D0002055
:103330004FF0110B119072E7A3EB0B056D1E0DE022
:103340005B4504DD4FF0000205F1010504E003DAFE
:103350004FF00002A5F10105002AECD00298119966
:10336000C0E90231C0E9004579E7000000001440DF
:103370000000F03F300000000000F0430000E03F9C
:103380002DE9FF4F95B09B468946064600250FE282
:10339000252877D100242746F84A0121059400E02A
:1033A000044316F8013F203B01FA03F01042F7D125
:1033B00030782A2811D06FF02F033078A0F1300236
:1033C000092A16D8059A44F0020402EB820203EBA4
:1033D00042021044761C0590EFE759F8042B059241
:1033E000002A03DA504244F40054059044F00204E9
:1033F000761C30782E2816D116F8010F44F00404FC
:103400002A280DD06FF02F023078A0F13003092B5D
:1034100009D807EB870302EB4303C718761CF3E7D1
:1034200059F8047B761C30786C280FD006DC4C28C9
:1034300017D068280DD06A2814D104E0742810D061
:103440007A280FD10DE044F400140AE044F480140B
:1034500001E044F440147278824202D104F58014F1
:10346000761C761C307866280BD013DC582877D071
:1034700009DC002875D04528F6D04628F4D0472826
:103480001AD19DE118E0632835D0642879D06528E9
:1034900012D195E1702873D008DC6728F1D0692833
:1034A0006FD06E280DD06F2806D1B5E073282CD0D0
:1034B000752875D0782874D05A46179990476D1C96
:1034C00075E1C4F30250022809D003280DD0D9F8C1
:1034D000001004280DD00D6009F1040967E1D9F846
:1034E0000010EA17C1E90052F6E7D9F800100D8084
:1034F000F2E70D70F0E719F8041B8DF800100020BA
:103500008DF80100EA46012003E059F804AB4FF0C2
:10351000FF3061074FF0000102D40DE008F1010116
:103520008846B9420FDA8045F8DB1AF808100029FE
:10353000F4D108E008F1010188468142FADB1AF86B
:1035400008100029F6D105985B46A0EB0807214634
:103550003846179A00F094FA284400EB080507E073
:103560004DE029E10DE01AF8010B5A4617999047F2
:10357000B8F10108F7D25B4621463846179A13E1A5
:1035800042E00A220092C4F302524FF0000A022ADB
:1035900008D059F804CB032A4FEAEC710AD00DE0A9
:1035A00029E02AE009F1070121F00702F2E802C14F
:1035B000914609E00FFA8CFC4FEAEC71042A03D122
:1035C0004FFA8CFC4FEAEC71002907DA0A46002119
:1035D000DCF1000C61EB02012D2202E0220504D592
:1035E0002B228DF80420012203E0E20701D02022E3
:1035F000F7E7904659E00A2102E010220DE0102181
:103600004FF0000A00910BE010224FF0000A44F046
:1036100004040827009203E008224FF0000A0092F9
:10362000C4F30252022A05D059F804CB0021032A20
:1036300008D009E009F1070121F00702F2E802C110
:10364000914605E01FFA8CFC042A01D10CF0FF0C16
:103650004FF00008220728D5702806D0009B83F081
:10366000100353EA0A0305D00EE040228DF804202F
:10367000012208E05CEA010206D030228DF8042025
:103680008DF8050002229046009B83F0080353EA60
:103690000A030AD15CEA010201D1620705D5302292
:1036A0008DF804204FF001087F1E582804D034A064
:1036B00003900EA802900DE036A0F9E7534660464D
:1036C000009AFCF7E3FD84460398825C0298401E52
:1036D000029002705CEA0100F0D1029806A9081A73
:1036E00000F1200A600702D524F4803400E00127AD
:1036F000574502DDA7EB0A0000E0002000EB0A01BD
:10370000009005984144401A0590E00306D45B46BA
:103710002146179A059800F0B3F90544002706E002
:1037200001A85A46C05D179990476D1C7F1C4745FC
:10373000F6DBE0030CD55B462146179A059800F0AE
:103740009FF9054404E030205A46179990476D1CB4
:103750000099481E00900029F5DC08E002980299C3
:103760005A460078491C0291179990476D1CBAF18E
:103770000001AAF1010AF1DC65E10000092801005D
:1037800030313233343536373839616263646566D7
:103790000000000030313233343536373839414299
:1037A000434445460000000000F058F90544761CEB
:1037B000307800287FF4ECAD19B02846BDE8F08FD2
:1037C000620700D4062709F1070222F0070CFCE883
:1037D0000223E14603F000485FEA080C02D00FF232
:1037E000702C0DE05FEA045C02D50FF2682C07E054
:1037F0005FEAC47C02D00FF2602C01E0AFF2700CE3
:103800004FF0FF3823F00043CDF850C065280CD0AE
:1038100006DC452809D046281DD047283DD13DE08B
:10382000662818D067287ED138E00021112F01DBEF
:10383000112000E0781CCDE9000106A90EA8FFF7D1
:10384000DDFCDDE90F010E9A03910021009207F1E2
:10385000010A04914DE04FF000400097CDE90110BE
:1038600006A90EA8FFF7CAFCDDE90F0203920E9B22
:1038700011990022DDF80CA00093049211B9791C73
:1038800000EB010AB7EB0A0004D4C0F1FF3007F1E6
:10389000010A0490AAEB0700019044E0012F00DA2E
:1038A00001270021112F01DD112000E03846CDE96C
:1038B000000106A90EA8FFF7A1FCDDE90F010E9A91
:1038C0000391002104910092BA4621070CD4039978
:1038D000514500DA8A46BAF1010F05DD009AAAF1D6
:1038E0000101515C302908D0B84202DA10F1040F0E
:1038F00006DA0121CDE9011015E0AAF10101E9E79D
:10390000002805DC049901440491AAEB000102E0BF
:10391000411C514500DD8A460499401A401C019023
:103920004FF000400290200704D40198504501DB7D
:10393000CDF8048000208DF84F0002980DF14F075C
:10394000B0F1004F25D02B200E9002984FF00208C6
:1039500000280CDA404202902D200E9007E00A2148
:103960000298FCF7D1FE3031029007F8011DB8F142
:103970000001A8F10108F2DC02980028EFD1791EBD
:103980000E980870307800F0200040F0450007F8ED
:10399000020D12A8C01B00F107081498007800B1AE
:1039A000012000EB0A01019801EBE0710598414408
:1039B000401A401E0590E00306D45B462146179A44
:1039C000059800F05DF805441498007818B15A463F
:1039D000179990476D1CE00324D55B462146179A42
:1039E000059800F04DF805441CE00498002807DB1A
:1039F000DDE90301884203DD0098405C179901E08E
:103A0000179930205A469047049805F10105401C4B
:103A100004900198401E019004D12E205A46179917
:103A200090476D1CBAF10001AAF1010ADDDC05E046
:103A300017F8010B5A46179990476D1CB8F1000111
:103A4000A8F10108F4DC5B462146179A0598ABE61D
:103A50002D0000002B000000200000002DE9F041A7
:103A6000044600251E461746880404D405E039465E
:103A70002020B0476D1C641EF9D52846BDE8F081B2
:103A80002DE9F041044600251E469046C80301D5A5
:103A9000302700E02027880404D505E04146384659
:103AA000B0476D1C641EF9D52846BDE8F08182B090
:103AB000CDE9000121F0004001909DED000B02B026
:103AC00051EC100B7047000013B50A230122694620
:103AD0000248FDF747FD00981CBD0000E4000020EF
:103AE0002DE9F04F91462DED108BB1B08A468346FB
:103AF00000259FEDC6CB9FEDC7FB9FEDC88B9FEDCB
:103B0000C99B9FEDCAAB9FEDCBBB00BF09EBC500C6
:103B100090ED000B53EC102B51EC100BFCF7B2FCAA
:103B20000AEBC50841EC1E0B98ED000B53EC102B73
:103B300051EC100BFCF7A6FC0BEBC50741EC1D0B81
:103B400097ED000B53EC102B51EC100BFCF79AFC8B
:103B500053EC1D2BFCF7EFFB53EC1E2BFCF7EBFBA0
:103B60009FEDB61B53EC112BFCF786FC9FEDB51BAC
:103B700053EC112BFCF780FC53EC1C2BFCF77CFC6A
:103B800053EC1F2BFCF7F0FC41EC100BFEF73CF95B
:103B9000684600EBC50484ED100BFEF7FDFD53EC09
:103BA000182B51EC100BFCF76DFC53EC192BFCF7A8
:103BB000C2FB41EC1D0B94ED100BFEF751FE53ECD4
:103BC000182B51EC100BFCF75DFC53EC1D2BFCF794
:103BD000CBFC41EC100BFEF773FC18A800EBC506FC
:103BE00086ED000B94ED100BFEF7D6FD53EC1F2B6A
:103BF00051EC100BFCF746FC9FED941B53EC112B82
:103C0000FCF799FB41EC100BFEF78EFE97ED001BC5
:103C100053EC102B51EC110BFCF7A6FC41EC100BF4
:103C2000FEF79EFA96ED001B51EC100B53EC112B96
:103C3000FCF725FC41EC100B84ED080B94ED101BF8
:103C400053EC102B51EC110BFCF716FC41EC100B54
:103C5000FEF7A2FD53EC182B51EC100BFCF712FCF5
:103C600041EC1D0B94ED080BFEF796FD53EC192B60
:103C700051EC100BFCF706FC53EC1D2BFCF75BFB27
:103C800094ED080B94ED101B41EC1E0B53EC102B24
:103C900051EC110BFCF7F0FB41EC100BFEF77CFD37
:103CA00053EC182B51EC100BFCF7ECFB41EC1D0B0B
:103CB00094ED080BFEF770FD53EC192B51EC100B33
:103CC000FCF7E0FB53EC1D2BFCF735FB53EC1E2BF4
:103CD000FCF7D8FB53EC1C2BFCF72DFB41EC100B35
:103CE000FEF722FE20A800EBC50686ED000B94ED42
:103CF000080B94ED101B53EC102B51EC110BFCF73F
:103D0000BBFB41EC100BFEF747FD53EC182B51ECBD
:103D1000100BFCF7B7FB41EC1D0B94ED080BFEF705
:103D20003BFD53EC192B51EC100BFCF7ABFB53ECA8
:103D30001D2BFCF700FB9FED471B53EC112BFCF7F1
:103D400013FC41EC100BFEF7BBFB28A800EBC507EA
:103D500087ED000B96ED000B98ED001B53EC102B3C
:103D600051EC110BFCF700FC41EC100BFEF7F8F9DD
:103D700097ED001B51EC100B53EC112BFCF77FFB64
:103D800041EC100B53EC1A2B84ED000BFCF77AFB83
:103D900053EC1B2BFCF7E8FB304A02EBC502C2E9EF
:103DA000000194ED080B53EC1A2B51EC100BFCF7AF
:103DB00069FB53EC1B2BFCF7D7FB9FED291B53EC46
:103DC000112BFCF75CFB254A203A02EBC502C2E945
:103DD000000194ED100BFDF7E5FD53EC1A2B51ECAF
:103DE000100BFCF74FFB53EC1B2BFCF7BDFB1B4AE6
:103DF000403A02EBC5026D1CC2E90001042DFFF63A
:103E000085AE31B0BDEC108BBDE8F08F0000000036
:103E10000020AC4000000000002FDC40000000004B
:103E200000C05B4000000000004060400000000057
:103E30000080664044174154FB2109400000000007
:103E40008010C840000000000081D0400000000049
:103E50004089DC400000000000004E405802002075
:103E6000000000000080564010B5FFF739FE094AF7
:103E7000A2F1400101F12000FDF73EFC0548403869
:103E800090ED000BBDE8104053EC102B02A0FDF7A5
:103E900083BF0000580200207368616E6B25660DB9
:103EA0000A00000098B020216846FCF739FA202269
:103EB0000E4908A8FCF71BFA0C492022203110A853
:103EC000FCF715FAFCF752FEFDF7E6FDFDF7A8FB3F
:103ED000FDF7BCFBFDF7D6FBFDF7F0FBFDF742FD60
:103EE00010AA08A96846FFF7BFFFFEE76041000877
:103EF000F0B4072500244B1E202B2ED2002A2CD0F4
:103F0000174B55265E701E7001EB4106761D9E70A4
:103F10000326DE7019715A71120A9A7112E000BFFD
:103F200010F824205A556D1CEAB200EB8405AE78D7
:103F30009E54521C6D88D2B22D0A9D54521C641C92
:103F4000D5B2E4B28C42EBD39A78F0BC4FF6FF7353
:103F500003490448921CFDF705BBF0BC7047000004
:103F6000540000206401002006484168096829B116
:103F70004168C968C9684968016370474FF0FF31FB
:103F8000FAE700001000002000B52DED048B83B08F
:103F900041EC190BFCF75CFC41EC180B18EE100A15
:103FA00018EE901A8DED008B002818BF01200843F1
:103FB00020F00040C0F17F6000F1E040C00F14D05D
:103FC00019EE101A19EE900A8DED009B002918BF0A
:103FD0000121084320F00040C0F17F6000F1E04083
:103FE000C00F04BF0120FFF703F951EC180B03B019
:103FF000BDEC048B00BDD0E9013201699A60D0E9C3
:1040000001235A604A68824201D182684A600022D4
:1040100002610868401E08600868704742684A608C
:1040200093688B6093685960916008610168491CCE
:1040300001607047164810B5816B11B101214162D2
:1040400010BD002141628169124A01E0B9B1491EE7
:1040500001EB810352F82330002BF7D001EB8103F1
:1040600002EB830202F1080453685B685360A342C9
:1040700001D15B685360DA680260816110BD502035
:1040800080F31188BFF34F8FBFF36F8FFEE70000FF
:1040900010000020780200202DE9F0412E4C00276E
:1040A000A06B40B1206A401C2062606A00B1012709
:1040B0003846BDE8F0816669761C666113D1606898
:1040C000006838B1502080F31188BFF34F8FBFF3E1
:1040D0006F8FFEE76068A1686160A060A06A401C05
:1040E000A062FFF741FF206BDFF87080864209D3A2
:1040F0006068006880B16068C068C56868688642AA
:104100000DD220632068C06A00EB800158F82100BE
:104110000128CAD90127C8E74FF0FF30F1E7281D71
:10412000FFF769FFA86A18B105F11800FFF763FFF0
:10413000E86AA169884200D9A06100EB800108EB20
:104140008100291DFFF76AFFE86A2168C96A884271
:10415000CED30127CCE70000100000207802002019
:104160000000000000806640000000000080664003
:1041700000000000008066400000000000806640F3
:104180000000000000004E400000000000004E4013
:104190000000000000004E400000000000004E4003
:1041A00000000000000000000102030406070809E7
:1041B0000000000001020304555555555555C53FF3
:1041C0007D6FEB0312D6D4BF5544880E55C1C93F4D
:1041D0003B8F68B52882A4BF88B20175E0EF493FE4
:1041E00009F7FD0DE13D023F4B2D8A1C273A03C024
:1041F000C88A599CE52A004059018D1B6C06E6BF10
:1042000082922EB1C5B8B33F555555555555C53F4A
:104210007D6FEB0312D6D4BF5544880E55C1C93FFC
:104220003B8F68B52882A4BF88B20175E0EF493F93
:1042300009F7FD0DE13D023F4B2D8A1C273A03C0D3
:10424000C88A599CE52A004059018D1B6C06E6BFBF
:1042500082922EB1C5B8B33F4FBB610567ACDD3F5D
:10426000182D4454FB21E93F9BF681D20B73EF3F9D
:10427000182D4454FB21F93FE2652F227F2B7A3C15
:10428000075C143326A6813CBDCBF07A8807703CCE
:10429000075C143326A6913CC4EB98999999C9BF41
:1042A000711623FEC671BCBF6D9A74AFF2B0B3BF76
:1042B0009AFDDE522DDEADBF2F6C6A2C44B4A2BF36
:1042C0000D5555555555D53FFF8300922449C23FA2
:1042D0006E204CC5CD45B73F513DD0A0660DB13FD6
:1042E000EB0D76244B7BA93F11DA22E33AAD903FE8
:1042F0004C5555555555A53F7751C1166CC156BF04
:104300009015CB19A001FA3EAD529C804F7E92BE13
:10431000C4B1B4BD9EEE213ED43888BEE9FAA8BD32
:1043200000004054FB21F93F3163621A61B4D03D73
:104330000000601A61B4D03D7370032E8A19A33B4C
:104340000000002E8A19A33BC14920259A837B399E
:1043500000000000000000006E83F9A22915444E01
:10436000D15727FCC0DD34F5999562DB4190433C81
:10437000AB6351FE61C5BBDE3A6E24B7E0D24D425D
:10438000EA2E49061C92D1091CEB1DFE3EA729B15D
:10439000F53582E88444BB2E26709CE9417E5FB4EB
:1043A00039D69139F43953838B5F849C3B28F9BD0E
:1043B000FF97F81F0F9805DE8B112FEF1F6D0A5A1C
:1043C000CF7E366DB709CB27663F464F2DEA5F9EFD
:1043D000C7BA27757BF1E5EBF739073DEA92528AB8
:1043E000B15FFB6B085D8D1FA6F810111111813FA5
:1043F000D561C119A0012ABF7DFEB157E31DC73E9B
:10440000EB9C2B8AE6E55ABE7CD5CF5A3AD9E53DDE
:10441000304400080000002054000000D0310008A3
:104420008444000854000020EC0A0000E031000839
:104430000100000010000000000000000024F40053
:10444000000000000000000000000000000000006C
:10445000000000000000000000000000000000005C
:10446000000000000000000000000000000000004C
:10447000000000000000000000000000000000003C
:044480000000000038
:040000050800019559
:00000001FF
