:020000040800F2
:1000000008B1002069020008794E0008D93A0008BA
:10001000B54B000859100008D57300080000000017
:10002000000000000000000000000000A90100081E
:100030005B1300080000000005020008BD55000821
:10004000830200088302000883020008830200087C
:10005000830200088302000883020008830200086C
:100060008302000883020008830200089D12000832
:10007000830200088302000883020008830200084C
:1000800083020008830200088302000800000000C9
:1000900000000000000000000000000083020008D3
:1000A000830200088D5600088302000883020008BE
:1000B000830200088302000883020008E93A00086E
:1000C000DD3A00088302000883020008830200086A
:1000D00083020008B15B00088302000800000000F2
:1000E0008302000883020008830200080000000069
:1000F0000000000000000000000000008302000873
:100100000000000083020008830200088302000848
:1001100000000000000000000000000000000000DF
:100120008302000883020008A91200088302000865
:100130008302000800000000000000000000000032
:10014000000000000000000000000000BD4F00089B
:10015000830200088302000883020008830200086B
:100160008302000883020008000000000000000075
:10017000000000000000000000000000000000007F
:1001800000000000830200080000000000000000E2
:1001900083020008DFF80CD000F0F4FC00480047B0
:1001A00039BF000808B100202C4B19680868B0E876
:1001B000F04F80F30988BFF36F8F4FF0000080F39A
:1001C000118870470000000008480068006880F34C
:1001D00008884FF0000080F3148862B661B6BFF360
:1001E0004F8FBFF36F8F00DF00BF00BF08ED00E04F
:1001F000DFF80C00016841F470010160704700BF36
:1002000088ED00E0EFF30980BFF36F8F134B1A689E
:100210001EF0100F08BF20ED108A20E9F04F10608B
:1002200009B44FF0500080F31188BFF34F8FBFF334
:100230006F8F0CF0F7FF4FF0000080F3118809BCBE
:1002400019680868B0E8F04F1EF0100F08BFB0EC56
:10025000108A80F30988BFF36F8F7047A8000020D1
:10026000EFF30580704700000648804706480047C6
:10027000FEE7FEE7FEE7FEE7FEE7FEE7FEE7FEE756
:10028000FEE7FEE771560008950100082DE9F05FD2
:100290000546002092469B468846064681464024F5
:1002A0001BE0284641464746224600F040FB5346A5
:1002B0005A46C01A914110D311461846224600F002
:1002C00027FB2D1A67EB01084F462246012000212B
:1002D00000F01EFB17EB00094E41201EA4F10104A3
:1002E000DFDC484631462A464346BDE8F09F40EAF7
:1002F00001039B0703D009E008C9121F08C0042AA4
:10030000FAD203E011F8013B00F8013B521EF9D28A
:100310007047D2B201E000F8012B491EFBD27047B2
:100320000022F6E710B513460A4604461946FFF7C1
:10033000F0FF204610BD00000FB400B58DB010A92D
:1003400009900B9000914FF0FF300A9000200C9024
:1003500005480690054807906A4609A80F9900F0DD
:100360001DFB0DB05DF814FBB9090008D7090008A2
:100370002DE9FF5F1D464FF0FF3BD5E90146914651
:100380005F464FF00008A9697F1C01988847296AD9
:10039000824688470028F6D1BAF1FF3F0CD024F4FA
:1003A000C064002E19DD600614D5BAF12B0F09D0F8
:1003B000BAF12D0F0ED103E0584604B0BDE8F09F0E
:1003C00044F48064A9697F1C01988847761E8246A0
:1003D000002E02DDBAF1300F03D0B9F1000F26D0A4
:1003E00032E0A969761E44F400747F1C01988847A6
:1003F0008246002E05DDBAF1780F06D0BAF1580F0B
:1004000003D0B9F1000F10D01EE0B9F1000F02D0F7
:10041000B9F1100F18D1A969761E24F400747F1C5D
:10042000019888478246102002E0082000E00A2058
:10043000814609E008FB0908A969761E44F40074A6
:100440007F1C019888478246002E05DD49465046AC
:1004500000F08FFA0028EDDAE96901988847A005D5
:1004600002D46FF00100A8E7E00725D1600613D59C
:10047000600502D5C8F1000000E0404629680A1D69
:100480002A600968220501D5087015E0220701D508
:10049000088011E008600FE02868011D29600068ED
:1004A000210502D580F8008006E0210702D5A0F8DA
:1004B000008001E0C0F8008038467EE72DE9FE4F5D
:1004C000804681EA0300C00F0C46009021F00041F5
:1004D00023F00045B8EB0200A94105D24046214671
:1004E00090461C460B46024623F00040104347D07E
:1004F000270DC7F30A00C3F30A510290401A019076
:1005000040286BDAC3F3130040F4801B0098924636
:1005100020B10023D2EB030A63EB0B0B0198594681
:10052000C0F14002504600F0F3F906460D46504631
:100530005946019A00F00BFA10EB080061410024C3
:1005400087EA115284EAE7731A4340D0009A62B3F3
:10055000019A012A4FEA075215DC001B61EB0201E8
:100560004FF0004202EA0752CDE90042001C41F57B
:10057000801132462B4600F04EFA03B0BDE8F08FF2
:1005800040462146F9E7001B61EB0201001C41F5E2
:10059000801300185B412018A2F5001747EB0301F8
:1005A00040EAD570B6196D4111E06D084FEA360684
:1005B00045EAC0754FEA0752001B61EB0201001CBF
:1005C00041F5801149084FEA300000195141324687
:1005D0002B4603B0BDE8F04F00F00EBA00980122A0
:1005E00040000023D0EB020263EBE0730098214649
:1005F0004FEAE074B8EB000061EB0401E9E783F037
:1006000000435BE781F0004158E72DE9FE4F81EAA6
:10061000030404F0004421F0004100944FF0000B6B
:1006200023F0004350EA01045ED052EA03045BD099
:10063000C3F30A54C1F30A552C44A4F2F3340194D1
:10064000A0FB0254C1F3130141F48011C3F313035F
:1006500043F4801301FB024400FB034E840A970A13
:1006600044EA815447EA8357A4FB076802958D0A40
:1006700005FB07854FEA932C04FB0C542705029DCC
:100680004FEA065847EA1637B5EB08056EEB070C3C
:10069000870E920E47EA811742EA8312A7FB0201F6
:1006A000B6EB0B0164EB00042B0D43EA0C335E1830
:1006B00044EB1C50DA465146E7FB0201C5F3130434
:1006C0004FEA0B3343EA14534FEA0432019C43EAE6
:1006D0000603A4F10C040294009CCDE900B400F0E0
:1006E0009AF903B0BDE8F08F00200146F9E72DE943
:1006F000F04D81EA030404F0004B21F0004514465C
:100700004FF0000A23F0004150EA050220D054EADD
:1007100001021DD0C5F30A570246C5F31303C1F306
:100720001300C1F30A5640F4801543F48013A7EB7D
:100730000608101BD64608F2FD3873EB050002D3FD
:1007400008F1010801E092185B41B8F1000F03DAEB
:1007500000200146BDE8F08D00204FF480110646D0
:1007600084460EE0171B73EB050705D3121B63EBE2
:10077000050306434CEA010C49084FEA3000921881
:100780005B4150EA0107EDD152EA030012D082EA40
:10079000040083EA0501084305D0101BAB4106D2D3
:1007A0000122002306E000224FF0004302E06FF038
:1007B000010253101AEB06004CEB085110EB0A0033
:1007C00041EB0B01BDE8F04D00F016B90EB5C10FBD
:1007D00080EAE0700844CA07002140F233438DE804
:1007E0000E000A460B4600F016F903B000BD70B5C6
:1007F000C1F30A5201F000450024C1F3130140F295
:10080000FF3341F480119A4201DA002070BD40F2BA
:1008100033439A42A2F2334203DC524200F087F89B
:1008200000E090402C43F1D0404270BDC1F30A5229
:1008300010B5C1F3130140F2FF3341F480119A4225
:1008400001DA002010BD40F233439A42A2F2334253
:1008500003DC524200F06BF810BD904010BD00F078
:10086000004230F000400AD0C10D01F56071C0F3C4
:10087000160042EA0151C2084007114370470020A8
:100880000146704730B5041E71F1000404DB4FF0DF
:100890000044404264EB0101141E73F1000405DBC7
:1008A0001C464FF00043524263EB04038B4208BFE7
:1008B000824230BD30B5041E71F1000404DB4FF0FC
:1008C0000044404264EB0101141E73F1000405DB97
:1008D0001C464FF00043524263EB0403994208BFA9
:1008E000904230BD30B50B46014600202022012445
:1008F00009E021FA02F59D4205D303FA02F5491BEE
:1009000004FA02F52844151EA2F10102F1DC30BD03
:10091000202A04DB203A00FA02F1002070479140BF
:10092000C2F1200320FA03F3194390407047202AB4
:1009300004DB203A21FA02F00021704721FA02F389
:10094000D040C2F120029140084319467047202A46
:1009500006DBCB17203A41FA02F043EAE07306E0E7
:1009600041FA02F3D040C2F12002914008431946F7
:1009700070473A2800D2303820F02002412A01D3B3
:10098000A2F13700884201D34FF0FF3070470000DA
:10099000026811441378016018467047D160044919
:1009A00051610449116200211161114600F002B940
:1009B00091090008A90B0008426842B1016811F8CA
:1009C000013B23B1521EC0E90012184670470121B5
:1009D000C160881E704742685AB1C368016843B954
:1009E00083688B4205D0491E521CC0E900120020CA
:1009F00070474FF0FF30704710B5141E73F10004BC
:100A000008DA401C41F1000192185B411A4301D100
:100A100020F0010010BD2DE9F04D92469B4611B12A
:100A2000B1FA81F202E0B0FA80F220329046FFF78C
:100A30006FFF04460F4640EA0A0041EA0B015346A5
:100A40005A46084313D0114653EA010019D0C8F1A1
:100A500040025046FFF76BFF05460E46504659468A
:100A60004246FFF755FF084305D0012004E0204629
:100A70003946BDE8F08D0020054346EAE0762C4378
:100A800037430A986305E40AA0EB08000022FD0A38
:100A900044EA47540A3002D500200146E9E701053F
:100AA00010196941DDE9084500196941BDE8F04DBB
:100AB000A2E72DE9F04D00231A461B1A8A4103DBF9
:100AC00000200146BDE8F08DC1F30A52C1F31301C5
:100AD00041F480154FF0000BD10702D100186D4191
:100AE000521E0027044640F2FF11384601EB620A0D
:100AF0003E468046024600204FF48011FFF717FF64
:100B0000C2197141BB1846EB0100B4EB030C75EB45
:100B1000000C04D3E41A65EB000517460E462419B1
:100B200008F101006D4180463428E3DDF91946EBF8
:100B30000600091BA84103D24FF0FF32134601E023
:100B4000002213461BEB070046EB0A51BDE8F04DAF
:100B5000FFF752BFC1F30A52C1F3130140F2FF3352
:100B600041F480119A4202DA00200146704740F2B7
:100B700033439A42A2F2334202DC5242FFF7D7BE1D
:100B8000FFF7C6BE064C074D06E0E06840F00103E3
:100B900094E8070098471034AC42F6D3FFF7FEFA0A
:100BA00038E3000858E30008C0B24FF4F05100F0F9
:100BB000A5B900002DE9F34F8BB04FF0000801F10B
:100BC0000C000C464FF0010B46460DF1080A01904F
:100BD0006269012101989047051E2DD0252D2CD04A
:100BE000216A8847C0B16269012101989047216A52
:100BF00088470028F7D1411E62690198904700E0BC
:100C0000761CA1690B988847216A88470028F7D18C
:100C1000E1690B988847DBE7A1690B98884707468D
:100C2000A84201D1761CD3E7E1690B9888477F1C65
:100C300002D1B8F1000F6FD046E1002762693D464E
:100C40003946019890472A2804D162690121019808
:100C500090470125DFF8849262690121019890474D
:100C6000A0F130010A290AD24F45E5DC07EB8701E4
:100C700000EB4107303FDFD445F01005ECE7E90613
:100C800001D46FF000476C280AD04C2814D0682893
:100C900015D06A280DD074281CD07A281AD01DE0EF
:100CA00062690121019890476C2802D045F0040543
:100CB00014E045F002050DE045F020050AE0626908
:100CC000012101989047682802D045F0080505E009
:100CD00045F400656269012101989047C4E9015714
:100CE00065283DD019DC58287AD00CDC452837D04F
:100CF00004DC252826D0412831D131E046282FD0E8
:100D000047282CD12CE05B2877D0612828D0632895
:100D10007CD0642823D15AE0D0E06F2848D008DC8A
:100D200066281DD067281BD0692821D06E2816D1CF
:100D300027E0702845D0732868D0752847D07828D8
:100D40000DD14DE0A1690B988847054625283FF451
:100D500069AFE1690B9888476D1C3FF46AAFB3E057
:100D600023466A466FF001000B99AFF300809EE0C6
:100D700045F040006060A80723464FF0000236D4DB
:100D80003EE0E8077FF447AF2068011D216000685E
:100D9000290501D506701BE7290701D5068017E74D
:100DA000A90703D5F117C0E9006111E706600FE755
:100DB00045F040006060A80723464FF0080216D4B3
:100DC0001EE040F60E0125EA0100606016E045F0E5
:100DD00040006060A80723464FF00A0207D40FE0E6
:100DE00045F040006060A80708D5234610226FF048
:100DF00001000B99AFF3008059E007E02346102271
:100E00006FF001000B99FFF7B3FA50E04FF00009C3
:100E10004F464B46632802D05B2806D040E0E806E8
:100E200001D40120A06001273AE062690121019804
:100E300090475E2805D14FF0010962694946019843
:100E40009047216939B900210A46534643F82120C9
:100E5000491C0829FADBB0B3216969B9C11700EB55
:100E6000D16253110AEB830122F01F02821A012082
:100E70000B68904003430B60626901210198904721
:100E80005D28E8D1B9F1000F09D00020514651F892
:100E90002020D24341F82020401C0828F7DB02AB79
:100EA000224600976FF001000B99AFF300800028F5
:100EB0000CDA401C08D1BBF1000F05D04FF0FF3019
:100EC0000DB0BDE8F08FFFE74046F9E7E90701D133
:100ED00008F1010806444FF0000B79E6CCCCCC0CAD
:100EE0000EB540F2334102910021CDE900110A46CE
:100EF0000B46FFF790FD03B000BD00007F2801D92D
:100F0000002208E0064A02EB5002C007127800D126
:100F1000120902F00F0201209040084070470000C3
:100F2000A0E2000870B58C1810F8015B15F00703FB
:100F300001D110F8013B2A1106D110F8012B03E072
:100F400010F8016B01F8016B5B1EF9D12B0705D47A
:100F50000023521E0DD401F8013BFAE710F8013BC3
:100F6000CB1A921C03E013F8015B01F8015B521EDF
:100F7000F9D5A142D8D3002070BD00009FED0F1B12
:100F800010B553EC112B51EC100BFFF73EFB9FED0E
:100F90000D1B53EC112BFFF791FAFFF728FC40F6DD
:100FA000C411884203DC4FF4FA71884200DA084623
:100FB000FFF70CFC41EC100B10BD00008EE3388EE7
:100FC000E33826400000000000407F409FED010B09
:100FD00000F004B8000000000000494010B551ECDA
:100FE000100B2DED028BFFF721FC154908801548E9
:100FF00003F012FC134CA06AFFF731FC41EC180B14
:10100000606AFFF72CFC41EC100B9FED0F2BB0EE4C
:10101000481AF0EE681A08F02DF90D480168491CCD
:101020000160082901DB002101600A4ABDEC028B46
:10103000A2F12001BDE81040A1F120000AF06EBF2E
:1010400000000020F003002000000000000000006D
:101050002000002068070020FEE7002070470020E5
:101060007047000010B500220449054804F0F0FE66
:101070000449034804F0E6FE002010BD1459002086
:101080005C5000202C55002070B5134C0968206876
:101090000844206011A006F041FA2068144DB0F514
:1010A0007A7F0FD2A91E415C0D290BD0691E415CCD
:1010B0000A2907D041190F4804F0C4FE0D4804F076
:1010C000A6FE07E0012060600BA006F027FA216869
:1010D00000206854002070BD700100204344435F2D
:1010E000526563656976655F46530A0D000000002E
:1010F0002C5500205C5000204F4B0A0D00000000D2
:1011000000207047094A10B5D2F8BC22D2F8142248
:101110000AB1012010BD0A460146044804F098FEB9
:10112000BDE81040014804F0F3BE00005C50002010
:101130009FED0B4B9FED0C3B9FED0D2BB0EE447ADA
:10114000F0EE647AB0EE446AF0EE646AB0EE445AAF
:10115000F0EE645A9FED081B9FED090B00F040B8BC
:10116000000000000000F03F0000000000004440CC
:101170000000000000002EC00000000000002E4013
:1011800000000000000049409FED0B4B9FED0C3B21
:101190009FED0D2BB0EE447AF0EE647AB0EE446A27
:1011A000F0EE646AB0EE445AF0EE645A9FED081B0C
:1011B0009FED090B00F014B8000000000000F03FA4
:1011C00000000000000044400000000000002E402D
:1011D0000000000000002EC0000000000000494098
:1011E00010B551EC100B2DED0E8BB0EE478AF0EEE2
:1011F000678AB0EE469AF0EE669AB0EE45AAF0EE37
:1012000065AAB0EE44BAF0EE64BAB0EE43CAF0EEAE
:1012100063CAB0EE42DAF0EE62DAB0EE41EAF0EE26
:1012200061EAFFF703FB1A491A4CB0EE486A0880DE
:10123000F0EE686AB0EE495AF0EE695AB0EE4A4AEA
:10124000F0EE6A4AB0EE4B3AF0EE6B3AB0EE4C2A52
:10125000F0EE6C2AB0EE4D1AF0EE6D1AB0EE4E0ABA
:10126000F0EE6E0A206808F0E7FF2068401C20605E
:10127000082801DB00202060074ABDEC0E8BA2F19C
:101280002001A1F12000BDE810400AF047BE000097
:10129000000000202000002068070020014800F026
:1012A00069BA0000A0040020014800F063BA000001
:1012B0008806002001681823CAB2103AB2FBF3F284
:1012C000054B6FF30901032A9B5CC36500D9091D17
:1012D000816508467047000028E0000810B5014607
:1012E00000208B698A6A4FF0C07453B1B3F5005F78
:1012F00015D072B1012A0CD0022A0AD0032A09D1D2
:1013000004E01AB1012A06D0022A03D1C96AC90130
:1013100000D5012010BDC96AA142FAD010BD002A33
:10132000F7D0012AF2D0022AF3D0032AF3D010BD5D
:1013300030B50468256825F480252560046863605D
:101340008368402B036803D099600068C26030BD99
:101350009A600068C16030BD7047704770470000F8
:1013600010B5D4482DED0E8B017819B10021017014
:1013700003F083FDD04C206800287DD0012802D0E6
:10138000022879D136E16068F0B3012875D00228CF
:1013900074D0032873D1606AFFF718FA41EC1E0B72
:1013A000206AFFF713FA41EC1D0BE069FFF70EFA14
:1013B00041EC1C0BA069FFF709FA41EC1B0B6069BB
:1013C000FFF704FA41EC1A0B2069FFF7FFF941EC33
:1013D000190BE068FFF7FAF941EC180BA068FFF76A
:1013E000F5F941EC100BB0EE4E7AF0EE6E7AB0EEFD
:1013F0004D6AF0EE6D6AB0EE4C5AF0EE6C5AB0EEFB
:101400004B4AF0EE6B4A00E011E0B0EE4A3AF0EEE3
:101410006A3AB0EE492AF0EE692AB0EE481AF0EEC8
:10142000681ABDEC0E8BBDE8104003F047BF606A40
:10143000FFF7CCF941EC1E0B206AFFF7C7F941EC2E
:101440001D0BE069FFF7C2F941EC1C0BA069FFF727
:10145000BDF941EC1B0B6069FFF7B8F941EC1A0BC1
:101460002069FFF7B3F941EC190BE068FFF7AEF91B
:1014700041EC180BA06803E011E127E070E015E1F2
:10148000FFF7A4F9B0EE4E7AF0EE6E7AB0EE4D6A48
:10149000F0EE6D6AB0EE4C5AF0EE6C5AB0EE4B4A7C
:1014A000F0EE6B4AB0EE4A3AF0EE6A3AB0EE492AF4
:1014B000F0EE692AB0EE481AF0EE681ABDEC0E8B19
:1014C00041EC100BBDE8104004F06AB9606AFFF708
:1014D0007DF941EC1B0B206AFFF778F941EC1C0BFE
:1014E000E069FFF773F941EC1A0BA069FFF76EF999
:1014F00041EC190B6069FFF769F941EC180B2069A1
:10150000FFF764F941EC1E0BE068FFF75FF941EC6F
:101510001D0BA068FFF75AF9B0EE4B7AF0EE6B7A2C
:10152000B0EE4C6AF0EE6C6AB0EE4A5AF0EE6A5ACF
:10153000B0EE494AF0EE694AB0EE483AF0EE683A49
:10154000B0EE4E2AF0EE6E2AB0EE4D1AF0EE6D1AA5
:10155000BDEC0E8B41EC100BBDE8104005F07CBFDC
:10156000606AFFF733F941EC1E0B206AFFF72EF992
:1015700041EC1D0BE069FFF729F941EC1C0BA06958
:10158000FFF724F941EC1B0B6069FFF71FF941ECF1
:10159000180B2069FFF71AF941EC1A0BE068FFF706
:1015A00015F941EC190BA068FFF710F9B0EE4E7A6F
:1015B000F0EE6E7AB0EE4D6AF0EE6D6AB0EE4C5A17
:1015C000F0EE6C5AB0EE4B4AF0EE6B4AB0EE483A91
:1015D000F0EE683AB0EE4A2AF0EE6A2AB0EE491A06
:1015E000F0EE691ABDEC0E8B41EC100BBDE810401B
:1015F000FFF7F6BD60680C2851D2DFE800F0060C5A
:1016000012181E242A30363C424ABDEC0E8BBDE82F
:10161000104004F099B8BDEC0E8BBDE8104005F009
:10162000F1BEBDEC0E8BBDE8104003F07DBFBDECFC
:101630000E8BBDE8104003F029BFBDEC0E8BBDE85A
:101640001040FFF775BDBDEC0E8BBDE8104003F0F8
:10165000DFBDBDEC0E8BBDE8104003F005BEBDEC58
:101660000E8BBDE81040FFF78FBDBDEC0E8BBDE8C3
:101670001040FFF7ABBCBDEC0E8BBDE81040FFF790
:101680006BBEBDEC0E8B4FF47A70BDE8104003F0DA
:10169000C9BBBDEC0E8BBDE8104003F0B5BDBDEC81
:1016A0000E8B0A20BDE810400AF0EABCBDEC0E8BA0
:1016B00010BD000002000020200400202DE9F041B0
:1016C0000446876D00F0A4FA064694F8350000251C
:1016D000022806D08020606584F834500120BDE8DF
:1016E000F0812068016821F01601016020684169DD
:1016F00021F080014161206C08B9A06C20B1206804
:10170000016821F0080101602068016821F00101F1
:1017100001600BE000F07CFA801B052806D9202030
:10172000606504F8345F03206070D8E720680068C3
:10173000C007EFD194F85C103F208840B86004F8EF
:10174000345F012060700020C9E790F8351002294D
:1017500003D08021416501207047052180F83510B4
:101760000068016821F0010101600020704790F8D5
:10177000350070472DE9F84304464FF00009CDF8D5
:10178000009063484FF41651A56D0068B0FBF1F767
:101790002E6894F85C10082000FA01F131420FD055
:1017A00021680A6852070BD50A6822F004020A6011
:1017B00094F85C108840A860606D40F0010060659E
:1017C00094F85C104FF0010808FA01F0304208D09C
:1017D00021684969090604D5A860606D40F00200DF
:1017E000606594F85C1004208840304208D021687D
:1017F0000968890704D5A860606D40F00400606541
:1018000094F85C1010208840304218D02168096894
:10181000090714D5A86020680168490304D5006849
:10182000000308D5A16C07E00168C90503D401686D
:1018300021F008010160216C09B12046884794F825
:101840005C1020208840304231D021680968C906E8
:101850002DD5A86094F8350005282068016806D0C9
:10186000490347D5006800031DD4616C1CE021F0DA
:10187000160101602068416921F080014161206CFE
:1018800008B9A06C20B12068016821F0080101604E
:1018900094F85C103F208840A86084F8349084F865
:1018A0003580216D1FE0E16B09B120468847606DEE
:1018B00000282BD0606DC00714D0052084F83500B7
:1018C0002068016821F0010101600098401C00902F
:1018D000B84203D820680068C007F6D184F8349075
:1018E00084F83580E16C002910D001B02046BDE8B5
:1018F000F04308470168C905D5D4016821F01001FB
:10190000016084F8349084F83580CCE7BDE8F88332
:10191000A40000202DE9F041044600F079F90646C4
:101920005CB1002584F83450022084F8350020682A
:10193000016821F0010101600DE00120BDE8F081A6
:1019400000F066F9801B052805D92020606503207A
:1019500084F83500F2E720680068C007F0D12268FB
:10196000116820480140D4E901031843D4E9033643
:101970003343184363691843A3691843E369184361
:10198000236A18430843616A042903D1D4E90B137D
:1019900019430843106020684069666A20F0070117
:1019A00030460E43012704280CD1A06A0643E06AA2
:1019B00040B12046FFF792FC20B14020606584F8DA
:1019C0003570BAE7206846612046FFF773FC94F84B
:1019D0005C203F2191408160656584F8357000206E
:1019E000ACE700003F8010F02DE9F0410446866D21
:1019F00090F83400002501280DD0012084F834002F
:101A000094F835700020012F07D084F834000225A7
:101A10002846BDE8F0810220FBE7022784F83570F4
:101A200060652046FFF784FC94F85C103F208840F6
:101A3000B0602068016841F016010160206C20B19F
:101A40002068016841F0080101602068016841F0E8
:101A500001010160DCE7000070B5044600F0D8F831
:101A60000546601C02D004480078044400F0D0F819
:101A7000401BA042FAD370BD980000202DE9F84F1A
:101A800000224FF0010803254FF00F0E0B6808FAF3
:101A900002F42340A34271D14E68012E05D0022EDC
:101AA00003D0112E01D0122E15D18668570005FAE9
:101AB00007FC26EA0C06D1F80CC00CFA07FC4CEA2D
:101AC000060CC0F808C04668A6430C79C4F300149D
:101AD000944034434460C668570005FA07FC8C689C
:101AE00026EA0C06BC403443C4604C68022C01D08A
:101AF000122C13D1D40800EB8404A346D4F8209010
:101B000054074FEAD46A0EFA0AF629EA06090E6962
:101B100006FA0AF646EA0906CBF8206004680E7950
:101B200024EA0C0406F00306BE40264306604C6817
:101B3000E40056D52E4C266846F48046266024687C
:101B400022F0030604F4804400942A4C3444A44652
:101B5000D4F808489607370F0EFA07F6B443264E16
:101B6000B04201D1002615E0244EB04201D1012639
:101B700010E0234EB04202D102260BE031E0214EAC
:101B8000B04201D1032605E01F4EB04201D1042628
:101B900000E00726BE402643CCF808681B4E346898
:101BA0004F689C43FF0300D51C433460174E361D1D
:101BB00034684F689C43BF0300D51C433460134E08
:101BC000083634684F689C43FF0200D51C433460DC
:101BD0000E4E0C3634684F689C43BF0200D51C4340
:101BE0003460521C102AFFF451AFBDE8F88F00009A
:101BF000443802400030014000000240000402402E
:101C000000080240000C024000100240003C01406D
:101C100001488068704700009800002070477047B6
:101C20002DE9F041016804464A694E6890F83E008B
:101C30000025D743FA0506D4F243D20503D46FF446
:101C4000807201254A61B90508D4F143C90505D45C
:101C500022686FF4007145F002055161790525D4C1
:101C6000F143C90522D4638D94F83D10226B2028DE
:101C700008D13BB9212910D029290ED0282901D11A
:101C8000212A0AD022686FF48061516145F0040571
:101C9000102806D0402804D008E0204602F0B2FB0D
:101CA00004E02068016841F400710160380508D43F
:101CB000F043C00505D421686FF4006045F00805C5
:101CC0004861002D07D0206C284320642046BDE8E1
:101CD000F04101F06DBFBDE8F0812DE9F0410268EF
:101CE00000245168C76A90F83E5090F83D60102D6E
:101CF0001CD0402D1AD0036C002B7ED053694FF0BE
:101D00002805DB439F0779D4CF43BF0576D4016C08
:101D100001B1946990F83D3000219D430B466ED08F
:101D2000C91E516180F83C30BDE8F0819469536967
:101D30004FF42A0CDB435FEAC37E4FF02A4604D0FF
:101D40006745F1D0B742EFD010E0CF43BF050DD4C7
:101D5000C16A614501D1012103E0C16AB14201D1EB
:101D60000821C162BDE8F04102F0E4B91E0716D4B3
:101D7000CE43B60513D4416CC9B21161416B11B9A0
:101D8000826B002AD0D0C96B19B9816BC96B00294D
:101D9000CAD00068416841F400614160C4E79E0711
:101DA00006D4CE43B60503D4BDE8F04102F036B9FF
:101DB000E443526864074FEA02521BD4002AB3DBA3
:101DC0001A0608D4CA43520505D45A0705D5BDE8FA
:101DD000F04102F0C7B85A07A6D4C9438905A3D475
:101DE000102D03D0BDE8F04102F0EAB9BDE8F041A2
:101DF00002F07EB8002A97DB02E015E029E015E04A
:101E00005A0608D4CA43520505D45A0705D5BDE879
:101E1000F04101F0F9BF5A0786D4C943890583D43C
:101E2000BDE8F04101F087BF946967E7556825F484
:101E300080655560E243540700D50121120601D5A3
:101E4000828900E0028B80F83C3092B2FFF7E7FE17
:101E50006AE7DC0606D4CC43A40503D4BDE8F04110
:101E600002F012BB212E27D0292E25D05C0655D496
:101E7000CC43640552D45B0752D590F83D10438D96
:101E8000002B8BD01269436A1A70426A521C42625C
:101E9000428D521E4285428D002AD9D12A29D7D19E
:101EA00001684A6822F480624A602221016380F856
:101EB0003D5000F005FB37E71C0623D4CC436405F6
:101EC00020D45B0720D590F83D10438D002BBFD068
:101ED000436A1B781361426A521C4262428D521E51
:101EE0004285428D002AB3D12929B1D101684A68BF
:101EF00022F480624A602121016380F83D5000F0A5
:101F0000E0FA11E75B07A3D4C9438905A0D4418D4A
:101F100000299DD0416A097811610AE05B0797D4D6
:101F2000C943890594D4418D002991D01169426A31
:101F30001170416A491C4162418D491E4185F3E699
:101F40007047000070B5040025D094F83D000025CE
:101F500020B984F83C50204600F052FA242084F83E
:101F60003D002068016821F00101016020680168DE
:101F700041F4004101602068016821F400410160E2
:101F800001F0A8F84D4A6168914201D84C4900E03F
:101F90004C49884201D2012070BD4B492368B0FBF7
:101FA000F1F15E6826F03F060E435E60636893427F
:101FB00006D94FF4967359434FF47A73B1FBF3F19A
:101FC0002368491C1E6A26F03F0631431962616886
:101FD000914210D84900401EB0FBF1F2521CC2F3EE
:101FE0000B02042A01D2042022E0B0FBF1F0401CD5
:101FF000C0F30B001CE0A268F2B301EBC10303EBDA
:102000000116431EB3FBF6F35B1C43F480431B0530
:1020100049D092B301EBC10202EB0111401EB0FBAB
:10202000F1F0401CC0F30B0040F4804040F400404D
:102030002168CA694CF6FF739A431043C861D4E91A
:10204000071001432068026822F0C00211430160BA
:10205000D4E9030101432068826848F2FF339A43C0
:1020600011438160D4E9050108432168CA6822F060
:10207000FF021043C86001E00EE016E0206801682E
:1020800041F0010101602564202084F83D002563B2
:1020900084F83E50002070BD01EB4106431EB3FBA7
:1020A000F6F35B1CB3E70120C2E701EB4101401EE0
:1020B000B0FBF1F0401CC0F30B00B7E7A0860100B5
:1020C00080841E0000093D0040420F0070477047A9
:1020D00070477047704700002DE9FF4F83B09A4664
:1020E000DDE9119793460446DDF84080FFF790FD47
:1020F000054694F83D00202870D11923012271492A
:102100002046009502F094FA0028F5D194F83C009E
:10211000012863D0012084F83C0020680168C907C9
:1021200003D1016841F0010101602068016821F4D8
:1021300000610160222084F83D00402084F83E00C8
:1021400000262664C4F82480A4F82A90608D208597
:102150005D48E062CDE9007553465A462046049931
:1021600002F07EF800287CD1208DD0B1012821D04A
:102170000228206824D0416980690090208D0328BE
:1021800069D801282BD0514902283B464FF0000264
:10219000009559D08846204602F04AFA002860D1BE
:1021A0003CE02068416981690091016841F4007157
:1021B000016077E02068016821F480610160F0E748
:1021C000016821F4806101602068016841F40061C8
:1021D0000160206841698069009063E06FE02A46F1
:1021E0003946204602F0A3FA98BB20680069616A6C
:1021F00008704EE02068016841F4007101602068B9
:102200000069616A0870606A401C6062218D491E25
:102210002185618D491E6185216838E0206801684B
:1022200021F48061016020680069616A0870606A59
:10223000401C6062208D401E2085608D401E6085A0
:102240003B46002241460095204602F0F1F900B9D4
:10225000D0E706E0FFE72A463946204602F067FA53
:1022600018B1012007B0BDE8F08F20680069616AED
:102270000870606A401C6062218D491E2185618D55
:10228000491E618521684A69D24352070AD4096907
:102290000170606A401C6062208D401E2085608D48
:1022A000401E6085208D00287FF468AF202084F8D0
:1022B0003D0084F83E6084F83C600020D2E70220B4
:1022C000D0E70000020010000000FFFF0400010042
:1022D0002DE9FF4F83B09A46DDE9119793460446F6
:1022E000DDF84080FFF794FC054694F83D00202877
:1022F0007FD11923012240492046009502F098F928
:10230000002876D194F83C00012872D0012084F88E
:102310003C0020680168C90703D1016841F0010150
:1023200001602068016821F400610160212084F8C7
:102330003D00402084F83E0000262664C4F8248036
:10234000A4F82A90608D20852C48E062CDE90075C4
:1023500053465A462046049902F000F870B930E01E
:102360002A463946204602F015FA58B1206C042856
:1023700004D12068016841F400710160012007B0B8
:10238000BDE8F08F606A216800780861606A401CCF
:102390006062218D491E89B22185628D521E62853F
:1023A00022685369DB435B070BD469B10078106185
:1023B000606A401C6062208D401E2085608D401E3A
:1023C0006085208D0028CBD12A463946204602F070
:1023D00009F90028CAD154F83D0B016841F4007195
:1023E0000160202004F81E09E67766770020C6E722
:1023F000FFE70220C3E70000020010000000FFFF1B
:1024000070B586B0064614216846FDF789FF274956
:102410003068884247D126480025016841F0020112
:1024200001600068694600F002000590C02000903D
:1024300012200190012002900320039004200490B8
:102440001C48FFF71BFB1A481030016841F40011CB
:1024500001600068194C00F40010059016482060D7
:102460004005C4E90105C013C4E903506561A561D5
:10247000E561256220466562FFF74CFA08B1FEF778
:102480006DFFB463002205211F20A66300F09CF8B5
:102490001F2000F08BF800220521202000F094F886
:1024A000202000F083F806B070BD0000005400400A
:1024B000303802400004024010600240A0040020B6
:1024C0007047704702488168027811448160704704
:1024D000980000200B4810B5016841F400710160BC
:1024E000016841F480610160016841F4807101601C
:1024F000032000F089F8002000F006F800F03EF814
:10250000002010BD003C024010B5014688B00022FA
:10251000192000F059F8192000F048F81348002459
:10252000016841F001010160006805A900F00100A7
:102530000690684600F0A8FD00F0DCFD0C490D4A4D
:10254000B0FBF1F10C48491E026040F2E732C0E9ED
:102550000324C0E9011400F0BFFF10B1012008B04E
:1025600010BD054800F0D4FFF9E7000044380240F0
:1025700040420F0000000140E80600200A4808B56C
:10258000016841F480410160006800F480400090DF
:102590000548001F016841F080510160006800F0AB
:1025A0008050009008BD000044380240002809DB3C
:1025B00000F01F02012191404009800000F1E0205D
:1025C000C0F8001170470000F0B40E4B1B680C46B9
:1025D000C3F30223C3F10705042D00D90425191DF7
:1025E000072901D2002300E0DB1E012606FA05F1CF
:1025F000491E214099409E40761E16403143F0BC52
:1026000004F0CABF0CED00E0064900F007020868BC
:102610004FF6FF03184040EA0220034A10430860C7
:10262000704700000CED00E00000FA0570470068FC
:10263000416200207047F0B50368586A39B19C6A5E
:102640004FF4827600EB144400204D1E0AE040EA6D
:10265000024098620FE006EB8007DF59401C04EB54
:102660001744C0B2A842F6D344EA02404FF4807245
:1026700002EB810158500020F0BDD0F8040403F0B3
:1026800086BEC1EBC10200EB8202D0F80404926C5A
:1026900003F0F1BDC1EBC10200EB8202D0F80404EB
:1026A000D2F8082203F03CBED0F8040403F071BE57
:1026B00070B504460B0601F00F00C0EBC00104EB3F
:1026C00081014FF001024FF0000503D581F83D2054
:1026D0003C3103E081F8FD5101F5FE71087094F87A
:1026E000BC03012808D084F8BC23206804F0EAF970
:1026F00084F8BC53002070BD022070BD70B5044644
:1027000001F00F006268904201D9012070BD0B06F4
:1027100001F00F01C1EBC10104EB81014FF0010297
:102720004FF0000503D581F83D203C3103E081F8EE
:10273000FD5101F5FE718D70087094F8BC030128FD
:1027400008D084F8BC23206804F0B6FB84F8BC539E
:10275000002070BD022070BD01F00F01C1EBC1016E
:1027600000EB8100D0F8140270472DE9F0410446D7
:102770000F0601F00F00C0EBC00104EB81014FF028
:1027800001064FF0000503D581F83D603C3103E0C0
:1027900081F8FD5101F5FE7108708A60CB704A78AE
:1027A00002B1C880022B00D10D7194F8BC0301283E
:1027B00009D084F8BC63206804F0E0F8284684F867
:1027C000BC53BDE8F0810220FBE770B50C4601F078
:1027D0000F05C5EBC50100EB8101C1F81032C1F84E
:1027E00008220023C1F8143281F8FD3181F8FC5130
:1027F000036901F5FE71012B00D10A612207027CF9
:10280000006803D004F0B0FB002070BD04F09CFA17
:10281000FAE770B504460D4601F00F006168884282
:1028200001D9012070BD29064FF000064FF00102CA
:1028300007D5C0EBC00104EB810181F83D203C319C
:1028400007E0C5EBC50104EB810181F8FD6101F5ED
:10285000FE718A70087094F8BC03012807D084F8D0
:10286000BC23206804F054FB280702D007E00220B4
:1028700070BD217C04F57172206804F0F1FA84F8CF
:10288000BC63002070BD70B50C4601F00F05C5EBB0
:10289000C50100EB81010B658A6400234B650123B0
:1028A00081F83D3001F83C5F0369012B00D10A61DA
:1028B0002207027C006803D004F056FB002070BDA4
:1028C00004F042FAFAE700002DE9FC5F05680446CF
:1028D000284604F072FC00287ED1206804F099FCA0
:1028E000002879D0206804F094FC800704D5216882
:1028F000486900F002004861206804F08AFCC106C3
:1029000004F57170009034D52068816921F01001C0
:1029100081612F6A07F00F00C0EBC00004EB800656
:10292000C7F3434006F5FE76022802D0062811D0F0
:102930001AE047F6F070074216D0C7F30A1217469E
:102940002846F16804F069FCF0683844F060B0692A
:10295000384408E008222846009904F05EFCB0697B
:10296000C7F30A110844B0612068816941F0100181
:102970008161206804F04DFC00034FF0010A4FF024
:10298000080B5BD50026206804F022FC0746DFF820
:10299000689351E0F8074DD0F1B2206804F031FCA3
:1029A0008046C00707D005EB4611C1F808AB314699
:1029B000204602F009FB5FEA087022D505EB4611BC
:1029C000C1F808BB2068016C00EB46100191D0F8FB
:1029D000082B494507D900E08BE1110403D54FF4DA
:1029E0000041C0F8081B204600F073FA01984845E2
:1029F00007D92069012804D120680121009A04F038
:102A00002FFA5FEAC86004D505EB46111020C1F823
:102A1000080B5FEA886004D505EB46112020C1F859
:102A2000080B5FEA884005D505EB46104FF40051CE
:102A3000C0F8081B7F08761C002FABD1206804F07B
:102A4000E8FB40034FF000095CD5206804F0B9FBB7
:102A50000746002654E0F80750D0F1B2206804F091
:102A6000BEFB8046C00723D006F00F020AFA02F030
:102A7000D5F834288243C5F8342805EB4610C0F851
:102A800008A9206901280FD1C6EBC60004EB80001D
:102A9000D0E911211144816436B9206D20B9206834
:102AA0000121009A04F0DCF9F1B22046FFF7E9FDBC
:102AB0005FEA087003D505EB4611C1F808B95FEA73
:102AC000C86004D505EB46111020C1F808095FEA7B
:102AD000486004D505EB46114020C1F808095FEABB
:102AE000887004D505EB46110220C1F808095FEA99
:102AF000086003D53146204602F0CCFA7F08761CE8
:102B0000002FA8D1206804F084FB002811DAD5F842
:102B1000040820F00100C5F8040894F8F403012823
:102B200029D0204600F0B9F92068416901F0004140
:102B30004161206804F06DFB00050BD5D5F808084D
:102B4000C00702D0204600F0EDF92068416901F489
:102B500000614161206804F05CFBC00468D5D5F8D1
:102B6000040820F00100C5F804081021206804F0D2
:102B700005FB002127E084F8F49300212046FFF7AD
:102B800055FDD1E705EB41104FF67F32C0F808291B
:102B9000D0F8003923F40013C0F80039D0F8003918
:102BA00043F00063C0F80039C0F8082BD0F8002BC0
:102BB00022F40012C0F8002BD0F8002B42F0006283
:102BC000C0F8002B491C60688842DBD8D5F81C0887
:102BD00040F00110C5F81C08206B60B1D5F88408DE
:102BE00040F00B00C5F88408D5F8440840F00B000D
:102BF000C5F844080CE0D5F8141842F22B00014344
:102C0000C5F81418D5F8100840F00B00C5F81008E6
:102C1000D5F8000820F4FE60C5F80008217C206883
:102C2000009A04F01DF92068416901F48051416166
:102C3000206804F0EEFA800415D5206803F0DEFE6B
:102C4000206804F0ADFAE06000F03EFA0146227B15
:102C5000206804F019FB204600F00CF92068416957
:102C600001F400514161206804F0D3FA000707D550
:102C7000204600F016F92068416901F00801416121
:102C8000206804F0C6FAC00208D50021204600F0F2
:102C900035F82068416901F480114161206804F031
:102CA000B8FA800208D50021204600F02BF82068F1
:102CB000416901F400114161206804F0AAFA400062
:102CC00007D52046FFF7D9FC2068416901F0804113
:102CD0004161206804F09DFA40070AD520684568E4
:102CE000680702D52046FFF7DFFC206841682943CA
:102CF0004160BDE8FC9F00000A30544FD0F8040446
:102D000003F098BBD0F8040403F096BB2DE9F04122
:102D10008AB0040005D094F8BD032668002520B1D0
:102D200008E001200AB0BDE8F08184F8BC532046D9
:102D300000F05EF8032084F8BD03F06BC00500D4FA
:102D40002561206803F0FAFF04F11001282288466B
:102D50006846FDF7CCFA94E80F0003F05DFE02260A
:102D6000C8BB0021206804F066FA002001270EE0AD
:102D7000C0EBC00104EB810181F83D7001F83C0F0C
:102D8000C880CD708D60CD60401CC0B24D6161685F
:102D90008142EDD8002011E0C0EBC00104EB8101BD
:102DA00081F8FD5181F8FC0181F8FF51C1F804520E
:102DB000C1F80852401CC0B2C1F81052616881428B
:102DC000EAD8282241466846FDF791FA94E80F00B8
:102DD00003F0FAFE10B184F8BD63A2E784F838501E
:102DE00084F8BD73206803F0E1FE00209AE700003C
:102DF00010B586B0044614216846FDF791FA2068A4
:102E0000B0F1A04F2FD119480021026842F0010211
:102E10000260006800F0010005904FF4C05000907F
:102E20000220CDE90101032003900A2004906946A5
:102E30000F48FEF723FE0D48001D016841F0800198
:102E400001600A481430016841F480410160006863
:102E5000002200F48040059008214320FFF7B4FBD6
:102E60004320FFF7A3FB06B010BD0000303802403E
:102E70000000024070B50446C0680125022801D058
:102E8000FEF76CFA2946D4F8040403F02BFBD4F8BF
:102E90000404BDE8704003F0E6BAD0F8040403F07F
:102EA0000BBBD0F8040403F011BB10B5044690F836
:102EB000BC0301280BD0012084F8BC0384F838102F
:102EC000206804F0CFF9002084F8BC0310BD022074
:102ED00010BDD0F8042400F57171104603F00EBB4C
:102EE00010B50446006894F8BC13012906D00121EE
:102EF00084F8BC13A16A012902D008E0022010BDA9
:102F0000A169012903D0816B41F48031816320687C
:102F100004F01EF9206803F03BFE002084F8BC0397
:102F200010BD000010B50446D0F8040403F028FBDF
:102F30002068D0F8001E41F00101C0F8001E206A90
:102F4000002804D00248016841F00601016010BD6C
:102F500010ED00E02DE9F0470E46050065D0DFF8E2
:102F60001481D8F80000F7B200F00F00B04207D289
:102F700088F80070D8F8000000F00F00B04254D17B
:102F800028683D4C810712D5400703D5206840F4DE
:102F9000E05020602878000703D5206840F46040A6
:102FA00020602068A96820F0F0000843206028789D
:102FB000C0072DD0304968680839012812D002288E
:102FC00013D0032811D00968890700292DDA216858
:102FD00021F0030101432160FEF71AFE814641F210
:102FE000883A0EE009688903EFE709688901ECE790
:102FF000FEF70EFEA0EB0901514502D90320BDE802
:10300000F0872068696800F00C00B0EB810FEFD109
:10301000D8F80010404601F00F01B14207D90770FF
:10302000006800F00F00B04201D00120E7E72878E7
:10303000400705D52068E96820F4E0500843206087
:103040002878000706D52068296920F4604040EA06
:10305000C100206000F05EF82168084AC1F3031146
:10306000515CC8400649086006480068FFF74CFA02
:103070000020C4E7003C02400838024030E000086D
:10308000A40000209C0000200F2202600C4A13685C
:1030900003F003034360136803F0F00383601368D5
:1030A00003F4E053C36012684FF4E05303EAD20222
:1030B00002610448006800F00F00086070470000DB
:1030C00008380240003C0240014800687047000098
:1030D000A40000200448054900680968044AC1F3B7
:1030E0008221515CC8407047A4000020083802408B
:1030F00040E000080448054900680968044AC1F333
:103100004231515CC8407047A4000020083802409A
:1031100040E00008154810B5006810F00C02144893
:1031200013D01449042A0FD0082A0ED10F4C241FA3
:103130002268236802F03F025B0207D52068C0F3D3
:103140008810A0FB010106E0084610BD2168C1F30C
:103150008811A1FB00010023FDF798F82168C1F355
:103160000141491C4900B0FBF1F010BD0838024094
:103170000024F40040787D012DE9F84F04006ED062
:103180002078DFF83C93C007A9F104054AD009F183
:1031900004000168C1F38101012908D00068C0F36F
:1031A000810002280AD1D9F80000400206D528681B
:1031B000800337D560680028E1D033E06068B0F55F
:1031C000803F10D0B0F5A02F286810D020F48030B8
:1031D0002860286820F4802028606068A8B1FEF785
:1031E00017FD06460DE0286840F48030F4E740F40F
:1031F00080202860F7E700BFFEF70AFD801B6428E7
:1032000073D828688003F7D50CE0FEF701FD064669
:1032100005E000BFFEF7FCFC801B6428F0D828689E
:103220008003F7D42078DFF89C8280074FF0000AF3
:103230003ED5A348001D016811F00C0F08D00068AE
:10324000C0F3810002280BD1D9F80000400207D456
:103250002868800716D5E068012800D112E02BE12C
:10326000E068B8B10120C8F80000FEF7D1FC0646BE
:1032700005E000BFFEF7CCFC801B0228C0D8286800
:103280008007F7D52868216920F0F80040EAC100DE
:1032900028600DE0C8F800A0FEF7BAFC064604E07E
:1032A000FEF7B6FC801B02281FD828688007F7D4D9
:1032B0002078000722D5824E83486169703671B14B
:1032C00001210160FEF7A4FC074604E0FEF7A0FC24
:1032D000C01B022809D830688007F7D50EE0C0F877
:1032E00000A0FEF795FC074605E082E0FEF790FCA3
:1032F000C01B02287DD830688007F7D420784007AB
:1033000068D5DFF8BCB100270BF13C0BDBF80000FF
:10331000C0000BD4DBF8001041F08051CBF8001056
:10332000DBF80000012700F080500090674E306805
:10333000C00510D4306840F480703060FEF768FC3F
:10334000009005E0FEF764FC0099401A022850D86E
:103350003068C005F6D55A4EA0686C3601280FD0EB
:103360000528306810D020F001003060306820F06F
:1033700004003060A068B8B1FEF74AFC00900FE08E
:10338000306840F00100F4E740F004003060F7E7F7
:10339000FEF73EFC0099411A41F28830814266D81E
:1033A00030688007F4D50EE0FEF732FC009007E0AD
:1033B000FEF72EFC0099411A41F28830814256D81E
:1033C00030688007F4D42FB1DBF8001021F0805171
:1033D000CBF80010A069C8B33949091D0968C1F3C9
:1033E000810102294AD00228504607D0C8F860005F
:1033F00000E03CE0FEF70CFC04463BE04746C8F822
:103400006000FEF705FC064605E000BFFEF700FC85
:10341000801B02282BD828688001F7D4D4E9070143
:103420000843A16A2A4A490802EB0141626A41EA5B
:103430008211084394F82C1040EA0161C9F8001089
:1034400001203866FEF7E4FB044606E036E000BFE4
:10345000FEF7DEFB001B022809D828688001F7D59B
:103460002CE000BFFEF7D4FB001B022802D903208A
:10347000BDE8F88F28688001F4D41FE00128F7D058
:10348000D9F80000E26900F48001914214D1226A67
:1034900000F03F0191420FD147F6C071626A0140CE
:1034A000914209D1A26A00F44031914204D1E16A0B
:1034B00000F07060884201D00120D9E70020D7E7F2
:1034C0000438024000004742800E4742007000402E
:1034D0000000FFFF7047704710B5040003D094F858
:1034E0003D0010B107E0012010BD002084F83C0031
:1034F000204600F00CF8022084F83D00211D2068D1
:1035000002F0CAF8012084F83D00002010BD704789
:103510000168CA6842F00102CA600068816801F06F
:103520000701062903D0016841F001010160002074
:103530007047704770B50446006801694FF0000598
:10354000C943890715D4C168C943890711D4E91E45
:10355000016101202077206880698007204602D021
:10356000FFF7E7FF04E000F098F8204600F096F837
:10357000257720680169C943490717D4C168C94341
:10358000490713D46FF004010161022020772068FD
:10359000806910F4407F204602D0FFF7CAFF04E0A4
:1035A00000F07BF8204600F079F825772068016963
:1035B000C943090716D4C168C943090712D46FF07B
:1035C00008010161042020772068C0698007204637
:1035D00002D0FFF7AEFF04E000F05FF8204600F0F5
:1035E0005DF8257720680169C943C90617D4C16809
:1035F000C943C90613D46FF0100101610820207778
:103600002068C06910F4407F204602D0FFF791FF88
:1036100004E000F042F8204600F040F825772068EA
:103620000169C943C90708D1C168C943C90704D1A1
:10363000891E0161204600F033F820680169C94302
:10364000090609D4C168C943090605D46FF0800191
:1036500001612046FFF73EFF20680169C943490622
:1036600009D4C168C943490605D46FF0400101611E
:10367000204600F01FF820680169C94389060BD471
:10368000C168C943890607D46FF020010161204653
:10369000BDE87040FFF71FBF70BD70477047000066
:1036A00000680349884201D1FEF70CBF7047000053
:1036B00000000140704710B504460068416994F865
:1036C0003920C1F3C011212A0BD151B1416921F038
:1036D00080014161206B08B1FDF7F0FF204602F048
:1036E0001BF92068416994F83A20C1F38011222A1D
:1036F0000BD151B1416921F040014161606B08B1CA
:10370000FDF7DCFF204602F0F9F8002010BD7047FD
:1037100070B5026804461068D168536910F00F0F45
:1037200052D003F0010501F490762E435FD0C2071A
:1037300005D0CA0503D5E26B42F00102E2634207FD
:1037400005D5DA0703D0E26B42F00202E26382079A
:1037500005D5DA0703D0E26B42F00402E263020708
:1037600007D501F020022A4303D0E26B42F00802A1
:10377000E263E26B002A33D0800604D5880602D5C6
:10378000204602F0D2F820684069E16BC0F3801057
:10379000090700D428B3204602F0B0F82068416938
:1037A00049061AD5416921F040014161606BA0B121
:1037B0001B490165606BFDF7C8FF002810D0606BE6
:1037C000016DBDE870400847830610D58B060ED505
:1037D0002046BDE8704002F0A8B82046FFF797FFEA
:1037E00070BD2046FFF793FF0020E06370BD030625
:1037F00006D50B0604D52046BDE8704002F074B92A
:103800004006F3D54806F1D5D168204621F04001A5
:10381000D160202184F8391000F05DF970BD0000FE
:103820005D58000870B5040004D094F839000025F4
:1038300010B106E0012070BD84F83850204600F039
:1038400023F8242084F839002068C16821F400514D
:10385000C160204602F0B4F82068016921F490416B
:1038600001612068416921F02A0141612068C16835
:1038700041F40051C160E563202084F8390084F8E8
:103880003A00002070BD0000F0B587B00646142154
:103890006846FCF745FDDFF8D0C0306800253349A5
:1038A000022203230727324C60453DD12F481430B4
:1038B000D0F800C04CF0100CC0F800C0006800F058
:1038C00010000590086840F001000860086869462B
:1038D00000F00100059058028DE82500CDE903377E
:1038E0002046FEF7CBF8244C224820604FF00060C1
:1038F000C4E901054014C4E903506561A561E561AF
:10390000256220466562FEF705F808B1FDF726FD41
:103910007463002207212520A663FEF755FE2520AB
:10392000FEF744FE07B0F0BD144EB042FAD10F4886
:103930001030066846F400360660006800F4003077
:103940000590086840F0010008600868694600F0CA
:10395000010005900C208DE82500CDE903372046B5
:10396000FEF78CF8DEE7000000100140303802401E
:1039700000000240406402408806002000440040ED
:10398000F8B5044690F83A0020283CD1C1B3BAB348
:1039900094F83800012836D0012084F83800A1625C
:1039A000A2850025E563222084F83A00636B17485E
:1039B000D863636B16481864636B1648D864606BF1
:1039C000134605650846666B216802463046091DA8
:1039D000FEF70AF8206801684168009184F83850C1
:1039E000C16841F48071C1602068416941F0010102
:1039F00041612068416941F0400141610020F8BD0A
:103A0000FFE70120FBE70220F9E70000B7580008B4
:103A1000F35800086D580008704770472DE9F843C7
:103A2000044690F839001F4616460D46202850D10E
:103A3000B5B1AEB194F8380001284AD0012084F81D
:103A400038004FF00008C4F83C80212084F8390089
:103A5000FEF7DEF8A6848146E68484F8388026E006
:103A60000120BDE8F883E08C401EE084A0684B464E
:103A7000B0F5805F4FF000024FF0800120460097C4
:103A800003D002F062F8E8B90DE002F05EF8C8B9C0
:103A900028882168C0F308004860206908B16D1CBF
:103AA00005E0AD1C03E0216815F8010B4860E08CCF
:103AB0000028D8D14B46002240212046009702F032
:103AC00044F808B10320CCE7202084F83900002016
:103AD000C7E70220C5E77047FEE700000148FEF790
:103AE0009FB800004C0400200148FEF7F6B8000023
:103AF0004C04002038B5806B002190F83D202B4B02
:103B000046F2A8141B68B3FBF4F3C3EBC30303EB47
:103B1000830300933BB15B1E009303681B689B0506
:103B200005D5009BF6E7036C43F020030364436B69
:103B300003B1D963836B03B1D96303681C6824F4B0
:103B400080641C604185436B03B11965836B03B1CD
:103B5000196503681C6824F001041C6090F83D405E
:103B60002023602C0BD0282434EA02020FD080F8E6
:103B70003D3080F83E1000BFFEF7E2F938BD80F816
:103B80003D3080F83E100164FEF748F838BD026809
:103B9000136843F0010313600268136843F4806301
:103BA0001360016380F83D40E6E70000A4000020B8
:103BB00070B5044690F83D0094F83E10102901D0ED
:103BC000402906D1222804D121680A6822F4006223
:103BD0000A60282131EA00024FF000054FF020066C
:103BE00026D021684968090505D4602803D084F8E7
:103BF0003D6084F83E50256320684168090537D54B
:103C0000416821F400614160606B90F835203C49C7
:103C1000012A11D00165606BFDF797FD38B320686C
:103C2000016821F00101016084F83D60606B1CE0D7
:103C3000256384F83D10DFE7A06B0165A06BFDF7FD
:103C400084FDA0B120684169C943490605D40069D3
:103C5000616A0870606A401C60622068016821F037
:103C60000101016084F83D60A06B016D884710E0A0
:103C700094F83D10602910D04169C943490605D424
:103C80000069616A0870606A401C60622046FEF745
:103C900057F9206CC1071CD115E084F83D602564FC
:103CA0004169C943490605D40069616A0870606AC0
:103CB000401C60622068016821F00101016020461B
:103CC000FDF7ACFFE5E7810703D4410701D4000706
:103CD00004D52068416821F4E061416094F83D001A
:103CE000216C49070BD5282809D10648E0622563D5
:103CF00084F83D6084F83E502046FEF7E7F970BD39
:103D0000F53A00080000FFFF01684A69D2435205F6
:103D10000FD46FF480624A61002140F8301F2022E6
:103D200042738173026942F004020261017301204F
:103D300070470020704710B5C26A438D0168042B9C
:103D400006D0438D032B08D0438D022B1DD012E0EB
:103D50004A6822F480624A600CE04B6823F4806376
:103D60004B60042A06D0022A04D001680A6822F4B3
:103D700080620A6001680969426A1170416A491CDF
:103D80004162418D491E418510BD012A30D0102A63
:103D90002ED0042A30D0022A2ED00A6842F40072B3
:103DA0000A6001680969426A1170416A491C4162EE
:103DB000428D521E4285026812690A70416A491C8E
:103DC0004162418D491E418501684A6822F4407272
:103DD0004A60202180F83D1090F83E200021402AC2
:103DE00080F83E100CD012210163FEF770F910BD6F
:103DF0000A6822F48062D3E70A6842F48062CFE75F
:103E00000163FEF766F910BD38B590F83D10222920
:103E100014D1418D032912D901680969426A1170D0
:103E2000416A491C4162418D491E4185418D0329EA
:103E300004D10068416821F48061416038BDC26AE4
:103E4000022AFBD0012901D00029F7D1274946F2E7
:103E5000A81300220968B1FBF3F101EB8101009185
:103E600001682023009C641E009422D00C68A405E5
:103E7000F8D40C6824F480640C6001684C6824F465
:103E8000E0644C6001680969446A2170416A491C18
:103E90004162418D491E418580F83D3090F83E10C9
:103EA00080F83E2040291DD012210163FEF70FF952
:103EB00038BD046C44F0200404644C6824F4E064CD
:103EC0004C6001680969446A2170416A491C416279
:103ED000418D491E418580F83D3080F83E20FEF737
:103EE0002FF838BD0263FEF7F4F838BDA4000020B7
:103EF00010B5C16A90F83D20212A0BD1428D52B1F4
:103F0000416A026809781161416A491C4162418D28
:103F1000491E418510BD00222023082910D02029E8
:103F20000ED011F5803F0BD001684C6824F4E0649A
:103F30004C601121016380F83E2080F83D300EE096
:103F400001684C6824F4E0644C6001680C6844F437
:103F500000740C60026380F83D3080F83E20FEF76C
:103F6000B7F810BD10B590F83D1090F83E30C26A19
:103F7000048DB4B1212903D0402B11D122290FD1B6
:103F8000418DE1B390F83E10402942D0416A026869
:103F900009781161416A491C4162418D491E418580
:103FA00010BD2129E8D120230021082A13D0202A7E
:103FB00011D012F5803F0ED00268546824F4E064FA
:103FC00054601122026380F83E1080F83D3000BF3B
:103FD000FEF77EF810BD0268546824F4E064546073
:103FE0000268146844F400741460016380F83D3082
:103FF00090F83E2080F83E10402AE9D100E002E02F
:10400000FEF768F810BD0068416821F480614160E6
:1040100010BDBDE8104000F0D3B8000078B590F8AE
:104020003E50C26A036B90F83D6000240168222E66
:104030007AD1066D0EB9402D76D0056D1DB9056992
:10404000B5F5404F09D0458D05B3468D384D012E4D
:104050000ED0438D022B3AD05DE04A698A69009206
:104060000A6842F480720A60016D491C016578BDDE
:10407000AA4213D10A6822F480620A6001684A6881
:10408000120503D50A6822F4806216E04A698A693B
:1040900000920A6842F400720A6039E0082A10D0DF
:1040A000202A0ED0122B0AD0042A03D0022A01D0D3
:1040B000102AE7D10A6842F480620A6024E0012AEB
:1040C000E0D00A6822F480620A600168DEE7042A10
:1040D00021D0022A1FD0102A1DD00B6823F4806340
:1040E0000B6001680B6843F400630B6001684B6868
:1040F0001B0509D5AA4212D0012A10D0082A0ED0D9
:10410000102A0CD0202A0AD001684A6989690091D6
:10411000046578BD08E00B6843F48063E5E74A680E
:1041200042F480524A60EFE7486988690090F0E7FE
:104130000000FFFF90F83E10402910D00169B1F552
:10414000804F19D0016DA9B3016D012910D1416CC7
:104150005FF0F10201F4407142EAD11106E0016D15
:104160000029416C05D0C9B241F00101006801612C
:10417000704701F0FE01F9E790F83D102129416CEC
:1041800009D0C9B241F0010102681161416B29B146
:10419000C96B49B902E001F0FE01F5E7816B002926
:1041A000E6D0C96B0029E3D00068416841F40061A2
:1041B00041607047FFE7416CF02201F44071CBE7AA
:1041C00010B590F83D10026D22B3026D012A2FD078
:1041D000026D022A1DD1222931D0428D0AB1212936
:1041E00033D0428D002A14D1212912D101684A68A6
:1041F00022F4E0624A6001680A6842F400720A60D0
:1042000000210163202280F83D2080F83E10FDF758
:1042100061FF10BDC16C0129816C02D0C1F307217F
:1042200008E00268C9B21161016D891C016510BD09
:10423000816CC9B202681161016D491CF6E7006822
:10424000016841F48071016010BD416A026809781B
:104250001161416A491C4162418D491E418510BD71
:104260002DE9F84F0446006889460B9D0168984681
:10427000174641F4806101602068016841F4807153
:10428000016000954FF0011B0022594620460A9B11
:1042900000F0CEF94FF4007A40B120680068C00504
:1042A00001D5C4F840A00320BDE8F88F216809F0CB
:1042B000FE0008612B46284920460A9A00F0ECF9D6
:1042C000F0BB20684169806900902A4620460A991F
:1042D00000F060FA40B1206C04283AD120680168EF
:1042E00041F40071016034E0FEB2B8F1010F09D071
:1042F0002168380A08612A4620460A9900F04AFADD
:104300000028E8D1206806612A4620460A9900F074
:1043100041FA0028DFD12068016841F48071016012
:1043200000950022594620460A9B00F081F900289A
:10433000B3D1216809F0FF0040F00100086100E0FE
:1043400007E02B46044920460A9A00F0A5F9002808
:10435000AAD00120A8E70000020001002DE9F843DF
:10436000044600680D46DDE9089701689846164640
:1043700041F4807101604B4600224FF0011120464C
:10438000009700F055F948B120680068C00502D5D3
:104390004FF4007020640320BDE8F883216805F025
:1043A000FE0008613B464A461549204600F074F974
:1043B00088B920684169806900903A46494620469C
:1043C00000F0E8F948B1206C042804D120680168A5
:1043D00041F4007101600120DEE7F5B2B8F1010F90
:1043E00009D02168300A08613A464946204600F063
:1043F000D1F90028E7D1206805610020CCE7000052
:10440000020001002DE9F04190F83D40C26A00230E
:1044100020261C4F01686FF48065082A01D0202AED
:1044200001D1282C04D0212C16D04D61BDE8F0819B
:10443000C7624A6822F4E0624A6001684D6101681F
:104440000A6822F480620A60036380F83D6080F8A5
:104450003E30FDF73BFEE9E7C7622122026380F8A8
:104460003D6080F83E304A6822F4E0624A600168AC
:104470004D6101680A6822F480620A60FEF721F843
:10448000D4E700000000FFFFF8B590F83D60044657
:104490000068416821F4E0614160206800254169BD
:1044A0000091016841F0010101602068016821F478
:1044B0008061016020684168090520D5474F222EA0
:1044C00048D02A2E46D0616B096849686185618DA4
:1044D00019B1216C41F004012164416821F40061AB
:1044E0004160606BFDF743F9012808D0606B0765F8
:1044F000606BFDF72AF910B1606B016D8847608D24
:1045000008B320684169C943490708D40069616A52
:104510000870606A401C6062608D401E6085206883
:104520004169C943490608D40069616A0870606A34
:10453000401C6062608D401E6085608D18B1206CEB
:1045400040F004002064206C00B32046BDE8F84031
:10455000FFF72EBBA16B096849686185618D19B1B0
:10456000216C41F004012164416821F40061416043
:10457000A06BFDF7FCF80128C1D0A06B0765A06B0C
:10458000FDF7E3F80028BAD0A06BB6E72A2E06D1D3
:104590002563282084F83D002046FDF791FF94F81C
:1045A0003D10202028290DD0216B222901D0222E58
:1045B00007D1256384F83D0084F83E502046FDF77E
:1045C0007FFFF8BD0649E162256384F83D0084F869
:1045D0003E502046FDF77AFDF8BD0000F53A000890
:1045E0000000FFFF70B516460D4604460DE020465C
:1045F000FFF78AFB08B1012070BD681C05D0FDF7EC
:1046000007FB801BA84207D835B120684069C0432A
:104610004007ECD4002070BD002044F8300F20216A
:104620006173A073216941F0200121612073E2E7E9
:104630002DE9F0471E4690460D460446C1F3074754
:10464000DDF8209008E0701C06D0FDF7E1FAA0EB41
:104650000900B0420FD876B12068012F18D08069C8
:1046600025EA00000004000C14D000214145EAD0E6
:104670000020BDE8F087002044F8300F202161734E
:10468000A073216941F02001216120730120F0E72E
:104690004069E5E70121E9E72DE9F0479A469146AF
:1046A0000E46044600254FF02008C1F3074725E0D9
:1046B00020684069C043400514D42068016841F473
:1046C0000071016021686FF480604861256384F89F
:1046D0003D8084F83E50206C40F00400206484F853
:1046E0003C501FE0B9F1FF3F08D0FDF791FAA0EB75
:1046F0000A0149450CD8B9F1000F09D02068012FF3
:1047000013D0806926EA00000004000C0BD0CFE72C
:1047100044F8305F84F80D80A573206940F02000D4
:10472000206125730120BDE8F0874069EAE72DE9A3
:10473000F041002590460E460446202717E04069C8
:10474000C043C0060CD454F8301B6FF01000486111
:1047500044F810596777A577206A2062257717E01B
:10476000FDF756FAA0EB0800B04208D83EB1206829
:104770004169C9434906E2D40020BDE8F08144F80C
:10478000305F6773A573206940F0200020612573B6
:104790000120F2E770B516460D4604460DE02046AE
:1047A000FFF7B2FA08B1012070BD681C05D0FDF713
:1047B0002FFA801BA84207D835B120684069C04352
:1047C0000006ECD4002070BD002044F8300F2021FA
:1047D0006173A073216941F0200121612073E2E738
:1047E000F0B500230A24302537261F4611E000BF0C
:1047F000B4EB107F02D905EB107C01E006EB107CD6
:1048000001F813C001EB430C00015B1C8CF8017034
:10481000DBB29342ECD3F0BD3EB50546504CFF20D1
:1048200018210094CDE9011001233422A0214D4824
:10483000FDF752FCB4F9000000EE100AF8EEC00AD1
:104840009FED490A20EE801AF3EE000A21EE201AAD
:1048500085ED001AB4F9020001EE100AB8EEC11A93
:1048600021EE001A21EE201A85ED011AB4F9040098
:1048700001EE100AB8EEC11A21EE001A61EE200A0C
:10488000C5ED020AB4F9060000EE900A2046F8EEE3
:10489000E00A20EE801ADFED350A21EE201A85EDC0
:1048A000031AB0F9080001EE100A2046B8EEC11A4A
:1048B00021EE001A21EE201A85ED041AB0F90A0043
:1048C00001EE100A2046B8EEC11A21EE001A61EE80
:1048D000200AC5ED050AB0F90C0000EE900A20464A
:1048E000F8EEE00AC5ED060AB0F90E0000EE900AF7
:1048F0002046F8EEE00AC5ED070AB0F9100000EE18
:10490000900A2046F8EEE00AC5ED080AB0F9120058
:1049100000EE900A2046F8EEE00A20EE801ADFED65
:10492000140A21EE201A85ED091AB0F9140001EEDF
:10493000100A2046B8EEC11A21EE001A21EE201A04
:1049400085ED0A1AB0F9160001EE100AB8EEC11A88
:1049500021EE000A20EE200A85ED0B0A3EBD000084
:10496000D00300204C040020000000380000FA446E
:104970000000344310B50A4C0A492088401C80B21C
:1049800020800988884209D300F00EF800231A46D7
:104990001946A06908F0CAFD0020208010BD000063
:1049A00004000020000000200448054A0388A2F10A
:1049B000400101F1200000F0FFB8000000000020DD
:1049C000B0030020114808B5016841F4800101607E
:1049D000016801F480010091016841F40011016057
:1049E0000068002200F40010009005210B20FDF764
:1049F000EBFD0B20FDF7DAFD002205213A20FDF743
:104A0000E3FDBDE808403A20FDF7D0BD3038024054
:104A100010B50121124A084607F0BEFB114C104B9D
:104A20000022A061103B01210F4807F05FFC0C4AF7
:104A30006061283A8321032007F074FB084A206153
:104A4000703A0021094807F0FFFB054AA0604C3A84
:104A50000021074807F0F8FBE0600120606010BD0E
:104A600018E000080400002075490008A954000857
:104A7000C55400080D4808B5016841F08001016087
:104A8000016801F080010091016841F001010160BD
:104A9000016801F001010091016841F0020101602B
:104AA000006800F00200009008BD000030380240AD
:104AB0000D4810B50B4901600C49416000214FF4CD
:104AC00080428160C0E9031241618161C16101627C
:104AD000FDF738FA002803D0BDE81040FCF73EBCD3
:104AE00010BD0000005400404C040020801A060055
:104AF0000C4810B50A4901604FF41651416000217D
:104B000081600C22C160C0E904128161C161FEF7BD
:104B100089FE002803D0BDE81040FCF71FBC10BD83
:104B200000100140080600200C4810B50A49016039
:104B30004FF416514160002181600C22C160C0E930
:104B400004128161C161FEF76DFE002803D0BDE84B
:104B50001040FCF703BC10BD004400404806002094
:104B600010B500220F49104801F059FB08B1FCF7BD
:104B7000F5FB0E490C4801F02BFD08B1FCF7EEFBEC
:104B80000B49094801F057F908B1FCF7E7FB064863
:104B900001F098FD002803D0BDE81040FCF7DEBB13
:104BA00010BD0000200100205C50002068020020A1
:104BB00078010020FEE700002DE9F04107462DEDC9
:104BC000028B984615460E464FF4C36002F004FC73
:104BD00095ED001B51EC100B53EC112BFBF70FFD67
:104BE00041EC100BFCF7CAF951EC100BFBF71EFE61
:104BF000894C608040F29A5002F0EEFB95ED021B6A
:104C000051EC100B53EC112BFBF758FC41EC100B43
:104C1000FCF7B4F951EC100BFBF708FEE08140F211
:104C2000AC5002F0D9FB95ED041B51EC100B53EC8A
:104C3000112BFBF7E4FC41EC100BFCF79FF951EC56
:104C4000100BFBF7F3FD608340F2B45002F0C4FB9D
:104C500095ED061B51EC100B53EC112BFBF72EFCC2
:104C600041EC100BFCF78AF951EC100BFBF7DEFD61
:104C7000E08440F2675002F0AFFB9FED688B51EC8F
:104C8000100B53EC182BFBF7BAFC97ED001B53EC01
:104C9000112BFBF713FC41EC100BFCF76FF951ECF7
:104CA000100BFBF7C3FDE08040F2356002F094FB8F
:104CB00053EC182B51EC100BFBF700FC96ED001B8E
:104CC00053EC112BFBF79BFC41EC100BFCF756F956
:104CD00051EC100BFBF7AAFD608140F2E65002F0A8
:104CE0007BFB53EC182B51EC100BFBF7E7FB97ED1C
:104CF000021B53EC112BFBF782FC41EC100BFCF771
:104D00003DF951EC100BFBF791FD608240F2BE556E
:104D1000284602F061FB53EC182B51EC100BFBF70B
:104D20006EFC96ED021B53EC112BFBF7C7FB41EC1D
:104D3000100BFCF723F951EC100BFBF777FDE08229
:104D40004FF4AF6002F048FB53EC182B51EC100B02
:104D5000FBF7B4FB97ED041B53EC112BFBF74FFC57
:104D600041EC100BFCF70AF951EC100BFBF75EFD60
:104D7000E083284602F030FB53EC182B51EC100B6B
:104D8000FBF73DFC96ED041B53EC112BFBF796FB58
:104D900041EC100BFCF7F2F851EC100BFBF746FD61
:104DA000608440F2725002F017FB53EC182B51EC68
:104DB000100BFBF724FC97ED061B53EC112BFBF7B4
:104DC0007DFB41EC100BFCF7D9F851EC100BFBF715
:104DD0002DFD608540F2216002F0FEFA53EC182BA5
:104DE00051EC100BFBF76AFB96ED061B53EC112BF5
:104DF000FBF705FC41EC100BFCF7C0F851EC100B75
:104E0000FBF714FDE0854246BDEC028B2046BDE871
:104E1000F0410C2107F0F8B840030020000000002A
:104E20000080564013494FF4C3624FF4AF634A8089
:104E300040F29A52CA8140F2AC524A8340F2B452D4
:104E4000CA8440F26752CA8040F235624A8140F219
:104E5000E6524A8240F2BE52CA82CB834A849A1FEB
:104E60004A8540F22162CA8502460C21014807F0BA
:104E7000CBB8000040030020704770B5002404F157
:104E8000B000C0B200F076F8002000F073F81020F7
:104E900000F070F80025002000F07EF86D1CEDB2E7
:104EA000802DF8D3641CE4B2082CE8D370BD10B593
:104EB000002041F28831401C8842FCD3AE2000F033
:104EC00059F8002000F056F8102000F053F8402068
:104ED00000F050F8B02000F04DF8812000F04AF8C2
:104EE000FF2000F047F8A12000F044F8C82000F0AF
:104EF00041F8A62000F03EF8A82000F03BF83F2043
:104F000000F038F8D32000F035F8002000F032F837
:104F1000D52000F02FF8802000F02CF8D92000F0E8
:104F200029F8F12000F026F8DA2000F023F812200A
:104F300000F020F8DB2000F01DF8402000F01AF807
:104F4000202000F017F8022000F014F88D2000F067
:104F500011F8142000F00EF8A42000F00BF8A620A1
:104F600000F008F8AF2000F005F8BDE81040FFF7AA
:104F700084BF000001B584B001210A2204A88DE895
:104F800007000B46002278210248FDF7A1F905B081
:104F900000BD00004C04002001B584B001210A22AC
:104FA00004A88DE807000B46402278210248FDF74F
:104FB0008FF905B000BD00004C0400200148FDF74A
:104FC00083BC0000FC5C00202DE9F04103680D4625
:104FD00004461E6C03EB4511D1F8080BD4F810E021
:104FE0004FF400474FF0200C04F57172BEF1010F31
:104FF00009D0DFF898E0764539D1020432D500BFF8
:10500000C1F8087B3FE0224B5FEA007E04D59E4258
:1050100039D90004F4D436E05FEA806E02D5C1F8D5
:1050200008CB30E010F0280F2DD19E4201D90004AA
:10503000E6D4C5EBC50004EB8000D1F8101BD0F816
:105040000432C1F31201591AC0F81412D0F8081230
:105050001944C0F8081295B9D4F8100278B90121A2
:1050600020680AE080060AD5C1F808CB07E035B908
:10507000D4F8100218B90021184601F0F1FEE9B287
:105080002046FDF707FB0020BDE8F0810A31544FB0
:105090000A30544F2DE9F84F0E46C1EBC60100EB24
:1050A000810481460568D4E914103C34884202D951
:1050B0000120BDE8F88F081AA168814200D2084695
:1050C000C01C870805EB46181BE000BFA0EB010AD7
:1050D000A068504500D282460AF10300870899F87B
:1050E000100000901FFA8AF3F2B22846E16802F03D
:1050F0003FF9E16801EB0A00E060A16901EB0A00F9
:10510000A061D8F8180980B2B84205D3D4E90501E6
:10511000814201D20028D9D1D4E90501884208D8BA
:1051200006F00F0101208840D5F834188143C5F8F6
:1051300034180020BDE7000010B504462DED0C8B9F
:10514000B0EE408AF0EE608A80ED060B90ED0A0B1F
:105150009FED29CB9FED2ADB53EC102B51EC180B64
:10516000FBF74DFA94ED041B53EC112BFBF74DFAB2
:1051700094ED020B94ED0C9B41EC1B0B53EC102BAC
:1051800051EC190BFBF741FA94ED000B41EC1A0BB3
:1051900053EC102B51EC180BFBF737FA53EC1A2B8E
:1051A000FBF78CF953EC1B2BFBF788F9C4E90801DA
:1051B00053EC182B51EC190BFBF780F941EC110B58
:1051C00053EC1C2B84ED0C1B84ED0A8BFBF772FB5C
:1051D00002D284ED0CCB0AE094ED0C0B53EC1D2BAA
:1051E00051EC100BFBF74EFB01D284ED0CDB94ED80
:1051F000080BBDEC0C8B10BD00000000000034401B
:1052000000000000000034C00A2006F039BF000092
:105210009FED0B4B9FED0C3B9FED0D2BB0EE447AB9
:10522000F0EE647AB0EE446AF0EE646AB0EE445A8E
:10523000F0EE645A9FED081B9FED090B00F03EB89D
:10524000000000000000F03F0000000000004E40A1
:105250000000000000003EC00000000000003E40D2
:1052600000000000008051409FED0C4B9FED0D2B86
:105270009FED0E1BB0EE447AF0EE647AB0EE446A15
:10528000F0EE646AB0EE445AF0EE645AB0EE423A80
:10529000F0EE623A9FED070B00F010B8000000003E
:1052A0000000F03F0000000000004440000000004B
:1052B000000000000000000000004E4010B551EC5E
:1052C000100B2DED0E8BB0EE478AF0EE678AB0EE34
:1052D000469AF0EE669AB0EE45AAF0EE65AAB0EEF8
:1052E00044BAF0EE64BAB0EE43CAF0EE63CAB0EE70
:1052F00042DAF0EE62DAB0EE41EAF0EE61EAFBF794
:1053000095FA1A491A4CB0EE486A0880F0EE686ABD
:10531000B0EE495AF0EE695AB0EE4A4AF0EE6A4AE7
:10532000B0EE4B3AF0EE6B3AB0EE4C2AF0EE6C2A4F
:10533000B0EE4D1AF0EE6D1AB0EE4E0AF0EE6E0AB7
:10534000206805F059F92068401C2060082801DB1E
:1053500000202060074ABDEC0E8BA2F12001A1F1D4
:105360002000BDE8104006F0D9BD0000000000207C
:1053700020000020680700200178407841EA0020E2
:10538000704700000E480A2101700C2101710D21A7
:1053900001720B2101730E2101740F21017504218B
:1053A000017601210177002180F82010052180F885
:1053B0002410032180F82810022180F82C10704757
:1053C0004003002010B52DED068BB0EE409AF0EEB4
:1053D000609A02F01DFE9FED238B51EC100B53ECF5
:1053E000182BFBF712F99FED211B53EC112BFBF748
:1053F00009F941EC100B53EC102BFBF706F99FED6C
:105400001D1B53EC112BFBF7FDF841EC100B02F0C8
:1054100063FEB0EE40AAF0EE60AAB0EE490AF0EEEC
:10542000690A02F091FD53EC182B51EC100BFBF7BD
:10543000ECF89FED121B53EC112BFBF7E0F853EC4B
:105440001A2BFBF73BF89FED0F1B53EC112BFBF7CF
:105450004EF9BDEC068B41EC100BBDE8104002F09C
:10546000ABB8000000000000000044400000000055
:1054700000804340000000000024B3400000000012
:10548000004050400000000000003940054910B5C0
:105490004FF4FA70088004F0ABFEBDE810400A201B
:1054A00006F0EEBD00000020FFF75AFB0448012182
:1054B000406906F05DFF00BFFBF752FFFCE700000C
:1054C00004000020A2B00AA002F028F80F4D4FF00F
:1054D000FF366C4632466946286908F035F9E11C0A
:1054E0000BA002F01BF8E01C04F002FEF2E7000043
:1054F0005374617274205374617274557361727461
:105500003152785461736B0D0A00000004000020D2
:105510005541525452313A20222573202220656E83
:1055200064730D0A000000009FED032B9FED041B28
:105530009FED050B00F00CB80000000000003EC01D
:10554000000000000000444000000000000049404E
:1055500010B551EC100B2DED048BB0EE428AF0EE3D
:10556000628AB0EE419AF0EE619AFBF75FF910495A
:10557000104CB0EE481A0880F0EE681AB0EE490AF6
:10558000F0EE690A206805F0FFF92068401C2060F1
:10559000082801DB00202060074ABDEC048BA2F143
:1055A0002001A1F12000BDE8104006F0B7BC0000CA
:1055B00000000020200000206807002010B55020C7
:1055C00080F31188BFF34F8FBFF36F8F08F0BAFAE3
:1055D00018B104494FF080500860002080F3118812
:1055E00010BD000004ED00E030B593B030216846F6
:1055F000FAF796FE14210CA8FAF792FE1A48002436
:10560000016841F080510160006800F08050119005
:105610001648016821F4404141F4004101600068EE
:10562000022500F4404011900120009000040190F8
:105630008001CDE90650192008904FF4A870099018
:1056400004200A9007200B906846FDF795FD0F2077
:10565000CDE90C05E802CDE90E4002210CA810941A
:10566000FDF778FC13B030BD4038024000700040B8
:105670000548016841F47001016003494FF0006082
:10568000803908607047000088ED00E00148FDF7B0
:1056900051BF0000E8060020F0B502681D4B1E4C0B
:1056A0009F031E4D1E4E984207D0B84205D0A0421F
:1056B00003D0A84201D0B04204D122F0700C4A6855
:1056C00042EA0C02984210D0B8420ED0A0420CD050
:1056D000A8420AD0B04208D0124CA04205D0124CC9
:1056E000A04202D0114CA04203D122F44074CA68F7
:1056F00022434C6922F08002224302608A68C2621F
:105700000A688262984201D10969016301214161FD
:10571000F0BD00000000014000040040000800400F
:10572000000C00400040014000440140004801409E
:1057300010B507F0ADFA002805D0D0E90021BDE88A
:1057400010400846104710BD9FED0B4B9FED0C3BE2
:105750009FED0D2BB0EE447AF0EE647AB0EE446A21
:10576000F0EE646AB0EE445AF0EE645A9FED081B06
:105770009FED090B00F014B8000000000000F03F9E
:10578000000000000000494000000000000054C07C
:1057900000000000000024400000000000405040D5
:1057A00010B551EC100B2DED0E8BB0EE478AF0EEDC
:1057B000678AB0EE469AF0EE669AB0EE45AAF0EE31
:1057C00065AAB0EE44BAF0EE64BAB0EE43CAF0EEA9
:1057D00063CAB0EE42DAF0EE62DAB0EE41EAF0EE21
:1057E00061EAFBF723F81A491A4CB0EE486A0880C0
:1057F000F0EE686AB0EE495AF0EE695AB0EE4A4AE5
:10580000F0EE6A4AB0EE4B3AF0EE6B3AB0EE4C2A4C
:10581000F0EE6C2AB0EE4D1AF0EE6D1AB0EE4E0AB4
:10582000F0EE6E0A206805F0A5F92068401C2060A3
:10583000082801DB00202060074ABDEC0E8BA2F196
:105840002001A1F12000BDE8104006F067BB000078
:1058500000000020200000206807002010B5806BA9
:105860000021C185C184FDF752FF10BD70B5846B66
:105870002068406994F83910C0F3C0100025212930
:1058800004D118B1E584204600F046F8206840694C
:1058900094F83A10C0F38010222904D118B1E5859C
:1058A000204600F02BF8E06B40F01000E06320464B
:1058B000FDF72DFF70BD10B50146806B09680968C2
:1058C000C90513D40021C1850168CA6822F4807219
:1058D000CA6001684A6922F001024A6101684A69A6
:1058E00022F040024A61202180F83A10FEF794F835
:1058F00010BD10B5806BFEF790F810BD0168CA6846
:1059000022F49072CA6001684A6922F001024A6179
:10591000202180F83A1070470168CA6822F0C0025E
:10592000CA60202180F83910704710B590F83A10FD
:10593000222901D0022010BD8168B1F5805F11D00D
:105940000169002901681FD0496801F07F03816A5D
:105950004A1C82620B70C18D491E0904090CC18565
:1059600018D02BE00269816A002A0268526805D0CB
:10597000D2B20A80816A491C8162ECE7C2F3080254
:105980000A80816A891CF7E74A68816A4B1C836236
:105990000A70E0E70168CA6822F02002CA60016864
:1059A000CA6822F48072CA6001684A6922F0010262
:1059B0004A61202180F83A10FEF72EF8002010BD31
:1059C0002DE9F041044600680169E26821F4405184
:1059D000114301612169A068E269084361691143CB
:1059E00008432168CA6849F20C639A430243CA60BB
:1059F00020684169A26921F4407111434161E06965
:105A0000192764253226B0F5004F354A35492068FC
:105A10004FF0000806D0884201D0904236D1FDF701
:105A200069FB35E0884201D0904202D1FDF762FB6C
:105A300001E0FDF74FFB61684A18A0FB070148EB46
:105A40000803FAF723FC0146B0FBF5F00201B1FBB5
:105A5000F5F06FF01803584301EB800006EBC0002F
:105A6000B0FBF5F000F0F80002EB4002B1FBF5F0FE
:105A7000584301EB800006EBC000B0FBF5F000F0EE
:105A80000700216810448860BDE8F081FDF722FB23
:105A900061688B0F8A00A0FB0701FAF7F7FB01464C
:105AA000B0FBF5F06FF01802504301EB800006EBFD
:105AB0000010B0FBF5F000F0F002B1FBF5F002EBE6
:105AC0000012B1FBF5F06FF01803584301EB8000B2
:105AD00006EB0010B0FBF5F000F00F00D1E700007E
